{
  "_format": "hh-sol-artifact-1",
  "contractName": "CardGame",
  "sourceName": "contracts/GameContract.sol",
  "abi": [
    {
      "inputs": [],
      "stateMutability": "nonpayable",
      "type": "constructor"
    },
    {
      "anonymous": false,
      "inputs": [
        {
          "indexed": true,
          "internalType": "address",
          "name": "attacker",
          "type": "address"
        },
        {
          "indexed": true,
          "internalType": "address",
          "name": "defender",
          "type": "address"
        },
        {
          "indexed": false,
          "internalType": "uint256",
          "name": "attackerCardId",
          "type": "uint256"
        },
        {
          "indexed": false,
          "internalType": "uint256",
          "name": "defenderCardId",
          "type": "uint256"
        },
        {
          "indexed": false,
          "internalType": "uint256",
          "name": "damage",
          "type": "uint256"
        }
      ],
      "name": "Attack",
      "type": "event"
    },
    {
      "anonymous": false,
      "inputs": [
        {
          "indexed": true,
          "internalType": "uint256",
          "name": "cardId",
          "type": "uint256"
        },
        {
          "indexed": true,
          "internalType": "address",
          "name": "player",
          "type": "address"
        }
      ],
      "name": "CardChosen",
      "type": "event"
    },
    {
      "anonymous": false,
      "inputs": [
        {
          "indexed": true,
          "internalType": "address",
          "name": "winner",
          "type": "address"
        }
      ],
      "name": "GameOvered",
      "type": "event"
    },
    {
      "anonymous": false,
      "inputs": [],
      "name": "GameStarted",
      "type": "event"
    },
    {
      "inputs": [
        {
          "internalType": "uint256",
          "name": "attackerId",
          "type": "uint256"
        },
        {
          "internalType": "uint256",
          "name": "defenderId",
          "type": "uint256"
        }
      ],
      "name": "attack",
      "outputs": [],
      "stateMutability": "nonpayable",
      "type": "function"
    },
    {
      "inputs": [
        {
          "internalType": "uint256",
          "name": "",
          "type": "uint256"
        }
      ],
      "name": "cards",
      "outputs": [
        {
          "internalType": "uint256",
          "name": "id",
          "type": "uint256"
        },
        {
          "internalType": "uint256",
          "name": "power",
          "type": "uint256"
        },
        {
          "internalType": "uint256",
          "name": "health",
          "type": "uint256"
        },
        {
          "internalType": "bool",
          "name": "isAlive",
          "type": "bool"
        },
        {
          "internalType": "bool",
          "name": "isTaken",
          "type": "bool"
        }
      ],
      "stateMutability": "view",
      "type": "function"
    },
    {
      "inputs": [
        {
          "internalType": "address",
          "name": "player",
          "type": "address"
        }
      ],
      "name": "enter",
      "outputs": [],
      "stateMutability": "nonpayable",
      "type": "function"
    },
    {
      "inputs": [],
      "name": "gameOver",
      "outputs": [
        {
          "internalType": "bool",
          "name": "",
          "type": "bool"
        }
      ],
      "stateMutability": "view",
      "type": "function"
    },
    {
      "inputs": [],
      "name": "gameStatus",
      "outputs": [
        {
          "internalType": "enum CardGame.GameStatus",
          "name": "",
          "type": "uint8"
        }
      ],
      "stateMutability": "view",
      "type": "function"
    },
    {
      "inputs": [
        {
          "internalType": "bool",
          "name": "player",
          "type": "bool"
        }
      ],
      "name": "getLiveCardsInfo",
      "outputs": [
        {
          "internalType": "uint256[5]",
          "name": "",
          "type": "uint256[5]"
        }
      ],
      "stateMutability": "view",
      "type": "function"
    },
    {
      "inputs": [],
      "name": "isGameOver",
      "outputs": [
        {
          "internalType": "bool",
          "name": "",
          "type": "bool"
        }
      ],
      "stateMutability": "view",
      "type": "function"
    },
    {
      "inputs": [],
      "name": "user1Address",
      "outputs": [
        {
          "internalType": "address",
          "name": "",
          "type": "address"
        }
      ],
      "stateMutability": "view",
      "type": "function"
    },
    {
      "inputs": [
        {
          "internalType": "uint256",
          "name": "",
          "type": "uint256"
        }
      ],
      "name": "user1Cards",
      "outputs": [
        {
          "internalType": "uint256",
          "name": "",
          "type": "uint256"
        }
      ],
      "stateMutability": "view",
      "type": "function"
    },
    {
      "inputs": [],
      "name": "user1IsEntered",
      "outputs": [
        {
          "internalType": "bool",
          "name": "",
          "type": "bool"
        }
      ],
      "stateMutability": "view",
      "type": "function"
    },
    {
      "inputs": [],
      "name": "user2Address",
      "outputs": [
        {
          "internalType": "address",
          "name": "",
          "type": "address"
        }
      ],
      "stateMutability": "view",
      "type": "function"
    },
    {
      "inputs": [
        {
          "internalType": "uint256",
          "name": "",
          "type": "uint256"
        }
      ],
      "name": "user2Cards",
      "outputs": [
        {
          "internalType": "uint256",
          "name": "",
          "type": "uint256"
        }
      ],
      "stateMutability": "view",
      "type": "function"
    },
    {
      "inputs": [],
      "name": "user2IsEntered",
      "outputs": [
        {
          "internalType": "bool",
          "name": "",
          "type": "bool"
        }
      ],
      "stateMutability": "view",
      "type": "function"
    },
    {
      "inputs": [],
      "name": "whoseTurn",
      "outputs": [
        {
          "internalType": "bool",
          "name": "",
          "type": "bool"
        }
      ],
      "stateMutability": "view",
      "type": "function"
    }
  ],
  "bytecode": "0x60806040526000600260186101000a81548160ff021916908360028111156200002d576200002c620001a0565b5b0217905550600060055560006006553480156200004957600080fd5b5060005b600a81101562000199576040518060a00160405280828152602001600a4262000077919062000208565b8152602001600a83426200008c91906200026f565b62000098919062000208565b81526020016001151581526020016000151581525060008083815260200190815260200160002060008201518160000155602082015181600101556040820151816002015560608201518160030160006101000a81548160ff02191690831515021790555060808201518160030160016101000a81548160ff02191690831515021790555090505060068110156200015957600381908060018154018082558091505060019003906000526020600020016000909190919091505562000183565b60048190806001815401808255809150506001900390600052602060002001600090919091909150555b80806200019090620002ba565b9150506200004d565b5062000307565b7f4e487b7100000000000000000000000000000000000000000000000000000000600052602160045260246000fd5b6000819050919050565b7f4e487b7100000000000000000000000000000000000000000000000000000000600052601260045260246000fd5b60006200021582620001cf565b91506200022283620001cf565b925082620002355762000234620001d9565b5b828206905092915050565b7f4e487b7100000000000000000000000000000000000000000000000000000000600052601160045260246000fd5b60006200027c82620001cf565b91506200028983620001cf565b92508282026200029981620001cf565b91508282048414831517620002b357620002b262000240565b5b5092915050565b6000620002c782620001cf565b91507fffffffffffffffffffffffffffffffffffffffffffffffffffffffffffffffff8203620002fc57620002fb62000240565b5b600182019050919050565b61144180620003176000396000f3fe608060405234801561001057600080fd5b50600436106100ea5760003560e01c8063ab57b8ef1161008c578063d014c01f11610066578063d014c01f14610255578063dbda362114610271578063e1fa7638146102a1578063efb4d32f146102bd576100ea565b8063ab57b8ef146101fb578063bdb337d114610219578063c0a487b814610237576100ea565b8063722fed7e116100c8578063722fed7e1461015b5780638bc86154146101795780638dc10768146101975780639394e718146101cb576100ea565b80630e04a7d8146100ef57806321d7f0501461010d5780632f0d33561461013d575b600080fd5b6100f76102db565b6040516101049190610d5e565b60405180910390f35b61012760048036038101906101229190610db4565b6102f2565b6040516101349190610df0565b60405180910390f35b610145610316565b6040516101529190610e4c565b60405180910390f35b61016361033c565b6040516101709190610ede565b60405180910390f35b61018161034f565b60405161018e9190610e4c565b60405180910390f35b6101b160048036038101906101ac9190610db4565b610375565b6040516101c2959493929190610ef9565b60405180910390f35b6101e560048036038101906101e09190610db4565b6103c5565b6040516101f29190610df0565b60405180910390f35b6102036103e9565b6040516102109190610d5e565b60405180910390f35b6102216103fc565b60405161022e9190610d5e565b60405180910390f35b61023f61040f565b60405161024c9190610d5e565b60405180910390f35b61026f600480360381019061026a9190610f78565b610422565b005b61028b60048036038101906102869190610fd1565b61062e565b60405161029891906110a9565b60405180910390f35b6102bb60048036038101906102b691906110c4565b6107a5565b005b6102c5610d0e565b6040516102d29190610d5e565b60405180910390f35b6000600260179054906101000a900460ff16905090565b6003818154811061030257600080fd5b906000526020600020016000915090505481565b600160009054906101000a900473ffffffffffffffffffffffffffffffffffffffff1681565b600260189054906101000a900460ff1681565b600260009054906101000a900473ffffffffffffffffffffffffffffffffffffffff1681565b60006020528060005260406000206000915090508060000154908060010154908060020154908060030160009054906101000a900460ff16908060030160019054906101000a900460ff16905085565b600481815481106103d557600080fd5b906000526020600020016000915090505481565b600260169054906101000a900460ff1681565b600260179054906101000a900460ff1681565b600260149054906101000a900460ff1681565b600260179054906101000a900460ff1615610472576040517f08c379a000000000000000000000000000000000000000000000000000000000815260040161046990611161565b60405180910390fd5b6000600281111561048657610485610e67565b5b600260189054906101000a900460ff1660028111156104a8576104a7610e67565b5b146104e8576040517f08c379a00000000000000000000000000000000000000000000000000000000081526004016104df906111cd565b60405180910390fd5b600260149054906101000a900460ff1661055d5780600160006101000a81548173ffffffffffffffffffffffffffffffffffffffff021916908373ffffffffffffffffffffffffffffffffffffffff1602179055506001600260146101000a81548160ff02191690831515021790555061062b565b600260159054906101000a900460ff166105d25780600260006101000a81548173ffffffffffffffffffffffffffffffffffffffff021916908373ffffffffffffffffffffffffffffffffffffffff1602179055506001600260156101000a81548160ff02191690831515021790555061062a565b6001600260186101000a81548160ff021916908360028111156105f8576105f7610e67565b5b02179055507f762f260439bb4be3ef6e4dc2786e2e7bd187d3d80b79057d7a424fe98563e33560405160405180910390a15b5b50565b610636610d21565b61063e610d21565b60011515831515036106f55760005b6004805490508110156106ef5760008060048381548110610671576106706111ed565b5b9060005260206000200154815260200190815260200160002060030160009054906101000a900460ff16156106dc57600481815481106106b4576106b36111ed565b5b90600052602060002001548282600581106106d2576106d16111ed565b5b6020020181815250505b80806106e79061124b565b91505061064d565b5061079c565b60005b60038054905081101561079a576000806003838154811061071c5761071b6111ed565b5b9060005260206000200154815260200190815260200160002060030160009054906101000a900460ff1615610787576003818154811061075f5761075e6111ed565b5b906000526020600020015482826005811061077d5761077c6111ed565b5b6020020181815250505b80806107929061124b565b9150506106f8565b505b80915050919050565b600060028111156107b9576107b8610e67565b5b600260189054906101000a900460ff1660028111156107db576107da610e67565b5b0361081b576040517f08c379a0000000000000000000000000000000000000000000000000000000008152600401610812906112df565b60405180910390fd5b600260179054906101000a900460ff161561086b576040517f08c379a000000000000000000000000000000000000000000000000000000000815260040161086290611161565b60405180910390fd5b600160009054906101000a900473ffffffffffffffffffffffffffffffffffffffff1673ffffffffffffffffffffffffffffffffffffffff163373ffffffffffffffffffffffffffffffffffffffff161480156108d55750600260169054906101000a900460ff16155b806109455750600260009054906101000a900473ffffffffffffffffffffffffffffffffffffffff1673ffffffffffffffffffffffffffffffffffffffff163373ffffffffffffffffffffffffffffffffffffffff161480156109445750600260169054906101000a900460ff165b5b610984576040517f08c379a000000000000000000000000000000000000000000000000000000000815260040161097b9061134b565b60405180910390fd5b60008082815260200190815260200160002060030160009054906101000a900460ff166109e6576040517f08c379a00000000000000000000000000000000000000000000000000000000081526004016109dd906113b7565b60405180910390fd5b60008083815260200190815260200160002060030160009054906101000a900460ff16610a48576040517f08c379a0000000000000000000000000000000000000000000000000000000008152600401610a3f906113b7565b60405180910390fd5b600080838152602001908152602001600020600101546000808381526020019081526020016000206002015411610c6357600080600083815260200190815260200160002060030160006101000a81548160ff0219169083151502179055503373ffffffffffffffffffffffffffffffffffffffff16600160009054906101000a900473ffffffffffffffffffffffffffffffffffffffff1673ffffffffffffffffffffffffffffffffffffffff1603610b155760056000815480929190610b0f9061124b565b91905055505b3373ffffffffffffffffffffffffffffffffffffffff16600260009054906101000a900473ffffffffffffffffffffffffffffffffffffffff1673ffffffffffffffffffffffffffffffffffffffff1603610b835760066000815480929190610b7d9061124b565b91905055505b6005805403610bf057600260009054906101000a900473ffffffffffffffffffffffffffffffffffffffff16600760006101000a81548173ffffffffffffffffffffffffffffffffffffffff021916908373ffffffffffffffffffffffffffffffffffffffff1602179055505b600560065403610c5e57600160009054906101000a900473ffffffffffffffffffffffffffffffffffffffff16600760006101000a81548173ffffffffffffffffffffffffffffffffffffffff021916908373ffffffffffffffffffffffffffffffffffffffff1602179055505b610ca5565b600080838152602001908152602001600020600101546000808381526020019081526020016000206002016000828254610c9d91906113d7565b925050819055505b600760009054906101000a900473ffffffffffffffffffffffffffffffffffffffff1673ffffffffffffffffffffffffffffffffffffffff167fbbca850ef098f4a3ce49a0770ca2e6e176215b97d03b6ea812dfd3586c1a6dad60405160405180910390a25050565b600260159054906101000a900460ff1681565b6040518060a00160405280600590602082028036833780820191505090505090565b60008115159050919050565b610d5881610d43565b82525050565b6000602082019050610d736000830184610d4f565b92915050565b600080fd5b6000819050919050565b610d9181610d7e565b8114610d9c57600080fd5b50565b600081359050610dae81610d88565b92915050565b600060208284031215610dca57610dc9610d79565b5b6000610dd884828501610d9f565b91505092915050565b610dea81610d7e565b82525050565b6000602082019050610e056000830184610de1565b92915050565b600073ffffffffffffffffffffffffffffffffffffffff82169050919050565b6000610e3682610e0b565b9050919050565b610e4681610e2b565b82525050565b6000602082019050610e616000830184610e3d565b92915050565b7f4e487b7100000000000000000000000000000000000000000000000000000000600052602160045260246000fd5b60038110610ea757610ea6610e67565b5b50565b6000819050610eb882610e96565b919050565b6000610ec882610eaa565b9050919050565b610ed881610ebd565b82525050565b6000602082019050610ef36000830184610ecf565b92915050565b600060a082019050610f0e6000830188610de1565b610f1b6020830187610de1565b610f286040830186610de1565b610f356060830185610d4f565b610f426080830184610d4f565b9695505050505050565b610f5581610e2b565b8114610f6057600080fd5b50565b600081359050610f7281610f4c565b92915050565b600060208284031215610f8e57610f8d610d79565b5b6000610f9c84828501610f63565b91505092915050565b610fae81610d43565b8114610fb957600080fd5b50565b600081359050610fcb81610fa5565b92915050565b600060208284031215610fe757610fe6610d79565b5b6000610ff584828501610fbc565b91505092915050565b600060059050919050565b600081905092915050565b6000819050919050565b61102781610d7e565b82525050565b6000611039838361101e565b60208301905092915050565b6000602082019050919050565b61105b81610ffe565b6110658184611009565b925061107082611014565b8060005b838110156110a1578151611088878261102d565b965061109383611045565b925050600181019050611074565b505050505050565b600060a0820190506110be6000830184611052565b92915050565b600080604083850312156110db576110da610d79565b5b60006110e985828601610d9f565b92505060206110fa85828601610d9f565b9150509250929050565b600082825260208201905092915050565b7f67616d65206f7665720000000000000000000000000000000000000000000000600082015250565b600061114b600983611104565b915061115682611115565b602082019050919050565b6000602082019050818103600083015261117a8161113e565b9050919050565b7f47616d6520616c72656164792073746172746564210000000000000000000000600082015250565b60006111b7601583611104565b91506111c282611181565b602082019050919050565b600060208201905081810360008301526111e6816111aa565b9050919050565b7f4e487b7100000000000000000000000000000000000000000000000000000000600052603260045260246000fd5b7f4e487b7100000000000000000000000000000000000000000000000000000000600052601160045260246000fd5b600061125682610d7e565b91507fffffffffffffffffffffffffffffffffffffffffffffffffffffffffffffffff82036112885761128761121c565b5b600182019050919050565b7f47616d6520686173206e6f742073746172746564207965742100000000000000600082015250565b60006112c9601983611104565b91506112d482611293565b602082019050919050565b600060208201905081810360008301526112f8816112bc565b9050919050565b7f4e6f7420796f7572207475726e00000000000000000000000000000000000000600082015250565b6000611335600d83611104565b9150611340826112ff565b602082019050919050565b6000602082019050818103600083015261136481611328565b9050919050565b7f546869732063617264206973206e6f7420616c69766500000000000000000000600082015250565b60006113a1601683611104565b91506113ac8261136b565b602082019050919050565b600060208201905081810360008301526113d081611394565b9050919050565b60006113e282610d7e565b91506113ed83610d7e565b92508282039050818111156114055761140461121c565b5b9291505056fea2646970667358221220134459fc1c1494b4a33eb3195f43c59c9341bf3bd3fe53d5bd65ca1c15bc4ff964736f6c63430008120033",
  "linkReferences": {},
  "deployedLinkReferences": {}
}