{
  "_format": "hh-sol-artifact-1",
  "contractName": "CardGame",
  "sourceName": "contracts/GameContract.sol",
  "abi": [
    {
      "inputs": [],
      "stateMutability": "nonpayable",
      "type": "constructor"
    },
    {
      "anonymous": false,
      "inputs": [
        {
          "indexed": true,
          "internalType": "address",
          "name": "attacker",
          "type": "address"
        },
        {
          "indexed": true,
          "internalType": "address",
          "name": "defender",
          "type": "address"
        },
        {
          "indexed": false,
          "internalType": "uint256",
          "name": "attackerCardId",
          "type": "uint256"
        },
        {
          "indexed": false,
          "internalType": "uint256",
          "name": "defenderCardId",
          "type": "uint256"
        },
        {
          "indexed": false,
          "internalType": "uint256",
          "name": "damage",
          "type": "uint256"
        }
      ],
      "name": "Attack",
      "type": "event"
    },
    {
      "anonymous": false,
      "inputs": [
        {
          "indexed": true,
          "internalType": "uint256",
          "name": "cardId",
          "type": "uint256"
        },
        {
          "indexed": true,
          "internalType": "address",
          "name": "player",
          "type": "address"
        }
      ],
      "name": "CardChosen",
      "type": "event"
    },
    {
      "anonymous": false,
      "inputs": [
        {
          "indexed": true,
          "internalType": "address",
          "name": "winner",
          "type": "address"
        }
      ],
      "name": "GameOvered",
      "type": "event"
    },
    {
      "anonymous": false,
      "inputs": [],
      "name": "GameStarted",
      "type": "event"
    },
    {
      "inputs": [
        {
          "internalType": "uint256",
          "name": "attackerId",
          "type": "uint256"
        },
        {
          "internalType": "uint256",
          "name": "defenderId",
          "type": "uint256"
        },
        {
          "internalType": "address",
          "name": "attacker",
          "type": "address"
        }
      ],
      "name": "attack",
      "outputs": [],
      "stateMutability": "nonpayable",
      "type": "function"
    },
    {
      "inputs": [
        {
          "internalType": "uint256",
          "name": "",
          "type": "uint256"
        }
      ],
      "name": "cards",
      "outputs": [
        {
          "internalType": "uint256",
          "name": "id",
          "type": "uint256"
        },
        {
          "internalType": "uint256",
          "name": "power",
          "type": "uint256"
        },
        {
          "internalType": "uint256",
          "name": "health",
          "type": "uint256"
        },
        {
          "internalType": "bool",
          "name": "isAlive",
          "type": "bool"
        },
        {
          "internalType": "bool",
          "name": "isTaken",
          "type": "bool"
        }
      ],
      "stateMutability": "view",
      "type": "function"
    },
    {
      "inputs": [
        {
          "internalType": "address",
          "name": "player",
          "type": "address"
        }
      ],
      "name": "enter",
      "outputs": [],
      "stateMutability": "nonpayable",
      "type": "function"
    },
    {
      "inputs": [],
      "name": "gameOver",
      "outputs": [
        {
          "internalType": "bool",
          "name": "",
          "type": "bool"
        }
      ],
      "stateMutability": "view",
      "type": "function"
    },
    {
      "inputs": [],
      "name": "gameStatus",
      "outputs": [
        {
          "internalType": "enum CardGame.GameStatus",
          "name": "",
          "type": "uint8"
        }
      ],
      "stateMutability": "view",
      "type": "function"
    },
    {
      "inputs": [],
      "name": "getAllCardList",
      "outputs": [
        {
          "components": [
            {
              "internalType": "uint256",
              "name": "id",
              "type": "uint256"
            },
            {
              "internalType": "uint256",
              "name": "power",
              "type": "uint256"
            },
            {
              "internalType": "uint256",
              "name": "health",
              "type": "uint256"
            },
            {
              "internalType": "bool",
              "name": "isAlive",
              "type": "bool"
            },
            {
              "internalType": "bool",
              "name": "isTaken",
              "type": "bool"
            },
            {
              "internalType": "address",
              "name": "player",
              "type": "address"
            }
          ],
          "internalType": "struct CardGame.CardExtended[]",
          "name": "",
          "type": "tuple[]"
        }
      ],
      "stateMutability": "view",
      "type": "function"
    },
    {
      "inputs": [],
      "name": "isGameOver",
      "outputs": [
        {
          "internalType": "bool",
          "name": "",
          "type": "bool"
        }
      ],
      "stateMutability": "view",
      "type": "function"
    },
    {
      "inputs": [],
      "name": "user1Address",
      "outputs": [
        {
          "internalType": "address",
          "name": "",
          "type": "address"
        }
      ],
      "stateMutability": "view",
      "type": "function"
    },
    {
      "inputs": [
        {
          "internalType": "uint256",
          "name": "",
          "type": "uint256"
        }
      ],
      "name": "user1Cards",
      "outputs": [
        {
          "internalType": "uint256",
          "name": "",
          "type": "uint256"
        }
      ],
      "stateMutability": "view",
      "type": "function"
    },
    {
      "inputs": [],
      "name": "user1IsEntered",
      "outputs": [
        {
          "internalType": "bool",
          "name": "",
          "type": "bool"
        }
      ],
      "stateMutability": "view",
      "type": "function"
    },
    {
      "inputs": [],
      "name": "user2Address",
      "outputs": [
        {
          "internalType": "address",
          "name": "",
          "type": "address"
        }
      ],
      "stateMutability": "view",
      "type": "function"
    },
    {
      "inputs": [
        {
          "internalType": "uint256",
          "name": "",
          "type": "uint256"
        }
      ],
      "name": "user2Cards",
      "outputs": [
        {
          "internalType": "uint256",
          "name": "",
          "type": "uint256"
        }
      ],
      "stateMutability": "view",
      "type": "function"
    },
    {
      "inputs": [],
      "name": "user2IsEntered",
      "outputs": [
        {
          "internalType": "bool",
          "name": "",
          "type": "bool"
        }
      ],
      "stateMutability": "view",
      "type": "function"
    },
    {
      "inputs": [],
      "name": "whoseTurn",
      "outputs": [
        {
          "internalType": "bool",
          "name": "",
          "type": "bool"
        }
      ],
      "stateMutability": "view",
      "type": "function"
    }
  ],
  "bytecode": "0x60806040526000600260186101000a81548160ff021916908360028111156200002d576200002c620001e5565b5b0217905550600060055560006006553480156200004957600080fd5b5060005b600a811015620001de576040518060a00160405280828152602001600160096007856200007b91906200024d565b4262000088919062000288565b62000094919062000302565b620000a091906200024d565b815260200160026008600485620000b891906200024d565b44620000c5919062000288565b620000d1919062000302565b620000dd91906200024d565b81526020016001151581526020016001151581525060008083815260200190815260200160002060008201518160000155602082015181600101556040820151816002015560608201518160030160006101000a81548160ff02191690831515021790555060808201518160030160016101000a81548160ff02191690831515021790555090505060058110156200019e576003819080600181540180825580915050600190039060005260206000200160009091909190915055620001c8565b60048190806001815401808255809150506001900390600052602060002001600090919091909150555b8080620001d5906200033a565b9150506200004d565b5062000387565b7f4e487b7100000000000000000000000000000000000000000000000000000000600052602160045260246000fd5b6000819050919050565b7f4e487b7100000000000000000000000000000000000000000000000000000000600052601160045260246000fd5b60006200025a8262000214565b9150620002678362000214565b92508282019050808211156200028257620002816200021e565b5b92915050565b6000620002958262000214565b9150620002a28362000214565b9250828202620002b28162000214565b91508282048414831517620002cc57620002cb6200021e565b5b5092915050565b7f4e487b7100000000000000000000000000000000000000000000000000000000600052601260045260246000fd5b60006200030f8262000214565b91506200031c8362000214565b9250826200032f576200032e620002d3565b5b828206905092915050565b6000620003478262000214565b91507fffffffffffffffffffffffffffffffffffffffffffffffffffffffffffffffff82036200037c576200037b6200021e565b5b600182019050919050565b6115cf80620003976000396000f3fe608060405234801561001057600080fd5b50600436106100ea5760003560e01c80639394e7181161008c578063c0a487b811610066578063c0a487b814610255578063d014c01f14610273578063daaf3d2e1461028f578063efb4d32f146102ab576100ea565b80639394e718146101e9578063ab57b8ef14610219578063bdb337d114610237576100ea565b80632f0d3356116100c85780632f0d33561461015b578063722fed7e146101795780638bc86154146101975780638dc10768146101b5576100ea565b806301943ace146100ef5780630e04a7d81461010d57806321d7f0501461012b575b600080fd5b6100f76102c9565b6040516101049190610fd4565b60405180910390f35b610115610486565b6040516101229190611005565b60405180910390f35b61014560048036038101906101409190611051565b61049d565b604051610152919061108d565b60405180910390f35b6101636104c1565b60405161017091906110b7565b60405180910390f35b6101816104e7565b60405161018e9190611149565b60405180910390f35b61019f6104fa565b6040516101ac91906110b7565b60405180910390f35b6101cf60048036038101906101ca9190611051565b610520565b6040516101e0959493929190611164565b60405180910390f35b61020360048036038101906101fe9190611051565b610570565b604051610210919061108d565b60405180910390f35b610221610594565b60405161022e9190611005565b60405180910390f35b61023f6105a7565b60405161024c9190611005565b60405180910390f35b61025d6105ba565b60405161026a9190611005565b60405180910390f35b61028d600480360381019061028891906111e3565b6105cd565b005b6102a960048036038101906102a49190611210565b6107d4565b005b6102b3610dd2565b6040516102c09190611005565b60405180910390f35b60606000600a67ffffffffffffffff8111156102e8576102e7611263565b5b60405190808252806020026020018201604052801561032157816020015b61030e610de5565b8152602001906001900390816103065790505b50905060005b600a81101561047e576040518060c0016040528060008084815260200190815260200160002060000154815260200160008084815260200190815260200160002060010154815260200160008084815260200190815260200160002060020154815260200160008084815260200190815260200160002060030160009054906101000a900460ff161515815260200160008084815260200190815260200160002060030160019054906101000a900460ff16151581526020016005831061041057600260009054906101000a900473ffffffffffffffffffffffffffffffffffffffff16610434565b600160009054906101000a900473ffffffffffffffffffffffffffffffffffffffff165b73ffffffffffffffffffffffffffffffffffffffff168152508282815181106104605761045f611292565b5b60200260200101819052508080610476906112f0565b915050610327565b508091505090565b6000600260179054906101000a900460ff16905090565b600381815481106104ad57600080fd5b906000526020600020016000915090505481565b600160009054906101000a900473ffffffffffffffffffffffffffffffffffffffff1681565b600260189054906101000a900460ff1681565b600260009054906101000a900473ffffffffffffffffffffffffffffffffffffffff1681565b60006020528060005260406000206000915090508060000154908060010154908060020154908060030160009054906101000a900460ff16908060030160019054906101000a900460ff16905085565b6004818154811061058057600080fd5b906000526020600020016000915090505481565b600260169054906101000a900460ff1681565b600260179054906101000a900460ff1681565b600260149054906101000a900460ff1681565b600260179054906101000a900460ff161561061d576040517f08c379a000000000000000000000000000000000000000000000000000000000815260040161061490611395565b60405180910390fd5b60006002811115610631576106306110d2565b5b600260189054906101000a900460ff166002811115610653576106526110d2565b5b14610693576040517f08c379a000000000000000000000000000000000000000000000000000000000815260040161068a90611401565b60405180910390fd5b600260149054906101000a900460ff166107085780600160006101000a81548173ffffffffffffffffffffffffffffffffffffffff021916908373ffffffffffffffffffffffffffffffffffffffff1602179055506001600260146101000a81548160ff0219169083151502179055506107d1565b600260159054906101000a900460ff166107d05780600260006101000a81548173ffffffffffffffffffffffffffffffffffffffff021916908373ffffffffffffffffffffffffffffffffffffffff1602179055506001600260156101000a81548160ff0219169083151502179055506001600260186101000a81548160ff0219169083600281111561079e5761079d6110d2565b5b02179055507f762f260439bb4be3ef6e4dc2786e2e7bd187d3d80b79057d7a424fe98563e33560405160405180910390a15b5b50565b600060028111156107e8576107e76110d2565b5b600260189054906101000a900460ff16600281111561080a576108096110d2565b5b0361084a576040517f08c379a00000000000000000000000000000000000000000000000000000000081526004016108419061146d565b60405180910390fd5b600260179054906101000a900460ff161561089a576040517f08c379a000000000000000000000000000000000000000000000000000000000815260040161089190611395565b60405180910390fd5b600160009054906101000a900473ffffffffffffffffffffffffffffffffffffffff1673ffffffffffffffffffffffffffffffffffffffff168173ffffffffffffffffffffffffffffffffffffffff161480156109045750600260169054906101000a900460ff16155b806109745750600260009054906101000a900473ffffffffffffffffffffffffffffffffffffffff1673ffffffffffffffffffffffffffffffffffffffff168173ffffffffffffffffffffffffffffffffffffffff161480156109735750600260169054906101000a900460ff165b5b6109b3576040517f08c379a00000000000000000000000000000000000000000000000000000000081526004016109aa906114d9565b60405180910390fd5b60008083815260200190815260200160002060030160009054906101000a900460ff16610a15576040517f08c379a0000000000000000000000000000000000000000000000000000000008152600401610a0c90611545565b60405180910390fd5b60008084815260200190815260200160002060030160009054906101000a900460ff16610a77576040517f08c379a0000000000000000000000000000000000000000000000000000000008152600401610a6e90611545565b60405180910390fd5b600080848152602001908152602001600020600101546000808481526020019081526020016000206002015411610d6157600080600084815260200190815260200160002060030160006101000a81548160ff0219169083151502179055508073ffffffffffffffffffffffffffffffffffffffff16600160009054906101000a900473ffffffffffffffffffffffffffffffffffffffff1673ffffffffffffffffffffffffffffffffffffffff1603610b445760056000815480929190610b3e906112f0565b91905055505b8073ffffffffffffffffffffffffffffffffffffffff16600260009054906101000a900473ffffffffffffffffffffffffffffffffffffffff1673ffffffffffffffffffffffffffffffffffffffff1603610bb25760066000815480929190610bac906112f0565b91905055505b6005805403610c8857600260009054906101000a900473ffffffffffffffffffffffffffffffffffffffff16600760006101000a81548173ffffffffffffffffffffffffffffffffffffffff021916908373ffffffffffffffffffffffffffffffffffffffff160217905550600760009054906101000a900473ffffffffffffffffffffffffffffffffffffffff1673ffffffffffffffffffffffffffffffffffffffff167fbbca850ef098f4a3ce49a0770ca2e6e176215b97d03b6ea812dfd3586c1a6dad60405160405180910390a2610d5c565b600560065403610d5b57600160009054906101000a900473ffffffffffffffffffffffffffffffffffffffff16600760006101000a81548173ffffffffffffffffffffffffffffffffffffffff021916908373ffffffffffffffffffffffffffffffffffffffff160217905550600760009054906101000a900473ffffffffffffffffffffffffffffffffffffffff1673ffffffffffffffffffffffffffffffffffffffff167fbbca850ef098f4a3ce49a0770ca2e6e176215b97d03b6ea812dfd3586c1a6dad60405160405180910390a25b5b610da3565b600080848152602001908152602001600020600101546000808481526020019081526020016000206002016000828254610d9b9190611565565b925050819055505b600260169054906101000a900460ff1615600260166101000a81548160ff021916908315150217905550505050565b600260159054906101000a900460ff1681565b6040518060c00160405280600081526020016000815260200160008152602001600015158152602001600015158152602001600073ffffffffffffffffffffffffffffffffffffffff1681525090565b600081519050919050565b600082825260208201905092915050565b6000819050602082019050919050565b6000819050919050565b610e7481610e61565b82525050565b60008115159050919050565b610e8f81610e7a565b82525050565b600073ffffffffffffffffffffffffffffffffffffffff82169050919050565b6000610ec082610e95565b9050919050565b610ed081610eb5565b82525050565b60c082016000820151610eec6000850182610e6b565b506020820151610eff6020850182610e6b565b506040820151610f126040850182610e6b565b506060820151610f256060850182610e86565b506080820151610f386080850182610e86565b5060a0820151610f4b60a0850182610ec7565b50505050565b6000610f5d8383610ed6565b60c08301905092915050565b6000602082019050919050565b6000610f8182610e35565b610f8b8185610e40565b9350610f9683610e51565b8060005b83811015610fc7578151610fae8882610f51565b9750610fb983610f69565b925050600181019050610f9a565b5085935050505092915050565b60006020820190508181036000830152610fee8184610f76565b905092915050565b610fff81610e7a565b82525050565b600060208201905061101a6000830184610ff6565b92915050565b600080fd5b61102e81610e61565b811461103957600080fd5b50565b60008135905061104b81611025565b92915050565b60006020828403121561106757611066611020565b5b60006110758482850161103c565b91505092915050565b61108781610e61565b82525050565b60006020820190506110a2600083018461107e565b92915050565b6110b181610eb5565b82525050565b60006020820190506110cc60008301846110a8565b92915050565b7f4e487b7100000000000000000000000000000000000000000000000000000000600052602160045260246000fd5b60038110611112576111116110d2565b5b50565b600081905061112382611101565b919050565b600061113382611115565b9050919050565b61114381611128565b82525050565b600060208201905061115e600083018461113a565b92915050565b600060a082019050611179600083018861107e565b611186602083018761107e565b611193604083018661107e565b6111a06060830185610ff6565b6111ad6080830184610ff6565b9695505050505050565b6111c081610eb5565b81146111cb57600080fd5b50565b6000813590506111dd816111b7565b92915050565b6000602082840312156111f9576111f8611020565b5b6000611207848285016111ce565b91505092915050565b60008060006060848603121561122957611228611020565b5b60006112378682870161103c565b93505060206112488682870161103c565b9250506040611259868287016111ce565b9150509250925092565b7f4e487b7100000000000000000000000000000000000000000000000000000000600052604160045260246000fd5b7f4e487b7100000000000000000000000000000000000000000000000000000000600052603260045260246000fd5b7f4e487b7100000000000000000000000000000000000000000000000000000000600052601160045260246000fd5b60006112fb82610e61565b91507fffffffffffffffffffffffffffffffffffffffffffffffffffffffffffffffff820361132d5761132c6112c1565b5b600182019050919050565b600082825260208201905092915050565b7f67616d65206f7665720000000000000000000000000000000000000000000000600082015250565b600061137f600983611338565b915061138a82611349565b602082019050919050565b600060208201905081810360008301526113ae81611372565b9050919050565b7f47616d6520616c72656164792073746172746564210000000000000000000000600082015250565b60006113eb601583611338565b91506113f6826113b5565b602082019050919050565b6000602082019050818103600083015261141a816113de565b9050919050565b7f47616d6520686173206e6f742073746172746564207965742100000000000000600082015250565b6000611457601983611338565b915061146282611421565b602082019050919050565b600060208201905081810360008301526114868161144a565b9050919050565b7f4e6f7420796f7572207475726e00000000000000000000000000000000000000600082015250565b60006114c3600d83611338565b91506114ce8261148d565b602082019050919050565b600060208201905081810360008301526114f2816114b6565b9050919050565b7f546869732063617264206973206e6f7420616c69766500000000000000000000600082015250565b600061152f601683611338565b915061153a826114f9565b602082019050919050565b6000602082019050818103600083015261155e81611522565b9050919050565b600061157082610e61565b915061157b83610e61565b9250828203905081811115611593576115926112c1565b5b9291505056fea26469706673582212209624af92f3b506a91b85295ae6fccce8aa4aeaf9f3c8e6441cf373fab0f70a8964736f6c63430008120033",
  "linkReferences": {},
  "deployedLinkReferences": {}
}