{
  "_format": "hh-sol-artifact-1",
  "contractName": "CardGame",
  "sourceName": "contracts/GameContract.sol",
  "abi": [
    {
      "inputs": [],
      "stateMutability": "nonpayable",
      "type": "constructor"
    },
    {
      "anonymous": false,
      "inputs": [
        {
          "indexed": true,
          "internalType": "address",
          "name": "attacker",
          "type": "address"
        },
        {
          "indexed": true,
          "internalType": "address",
          "name": "defender",
          "type": "address"
        },
        {
          "indexed": false,
          "internalType": "uint256",
          "name": "attackerCardId",
          "type": "uint256"
        },
        {
          "indexed": false,
          "internalType": "uint256",
          "name": "defenderCardId",
          "type": "uint256"
        },
        {
          "indexed": false,
          "internalType": "uint256",
          "name": "damage",
          "type": "uint256"
        }
      ],
      "name": "Attack",
      "type": "event"
    },
    {
      "anonymous": false,
      "inputs": [
        {
          "indexed": true,
          "internalType": "uint256",
          "name": "cardId",
          "type": "uint256"
        },
        {
          "indexed": true,
          "internalType": "address",
          "name": "player",
          "type": "address"
        }
      ],
      "name": "CardChosen",
      "type": "event"
    },
    {
      "anonymous": false,
      "inputs": [
        {
          "indexed": true,
          "internalType": "address",
          "name": "winner",
          "type": "address"
        }
      ],
      "name": "GameOvered",
      "type": "event"
    },
    {
      "anonymous": false,
      "inputs": [],
      "name": "GameStarted",
      "type": "event"
    },
    {
      "inputs": [
        {
          "internalType": "uint256",
          "name": "attackerId",
          "type": "uint256"
        },
        {
          "internalType": "uint256",
          "name": "defenderId",
          "type": "uint256"
        },
        {
          "internalType": "address",
          "name": "attacker",
          "type": "address"
        }
      ],
      "name": "attack",
      "outputs": [],
      "stateMutability": "nonpayable",
      "type": "function"
    },
    {
      "inputs": [
        {
          "internalType": "uint256",
          "name": "",
          "type": "uint256"
        }
      ],
      "name": "cards",
      "outputs": [
        {
          "internalType": "uint256",
          "name": "id",
          "type": "uint256"
        },
        {
          "internalType": "uint256",
          "name": "power",
          "type": "uint256"
        },
        {
          "internalType": "uint256",
          "name": "health",
          "type": "uint256"
        },
        {
          "internalType": "bool",
          "name": "isAlive",
          "type": "bool"
        },
        {
          "internalType": "bool",
          "name": "isTaken",
          "type": "bool"
        }
      ],
      "stateMutability": "view",
      "type": "function"
    },
    {
      "inputs": [
        {
          "internalType": "address",
          "name": "player",
          "type": "address"
        }
      ],
      "name": "enter",
      "outputs": [],
      "stateMutability": "nonpayable",
      "type": "function"
    },
    {
      "inputs": [],
      "name": "gameOver",
      "outputs": [
        {
          "internalType": "bool",
          "name": "",
          "type": "bool"
        }
      ],
      "stateMutability": "view",
      "type": "function"
    },
    {
      "inputs": [],
      "name": "gameStatus",
      "outputs": [
        {
          "internalType": "enum CardGame.GameStatus",
          "name": "",
          "type": "uint8"
        }
      ],
      "stateMutability": "view",
      "type": "function"
    },
    {
      "inputs": [],
      "name": "isGameOver",
      "outputs": [
        {
          "internalType": "bool",
          "name": "",
          "type": "bool"
        }
      ],
      "stateMutability": "view",
      "type": "function"
    },
    {
      "inputs": [],
      "name": "user1Address",
      "outputs": [
        {
          "internalType": "address",
          "name": "",
          "type": "address"
        }
      ],
      "stateMutability": "view",
      "type": "function"
    },
    {
      "inputs": [
        {
          "internalType": "uint256",
          "name": "",
          "type": "uint256"
        }
      ],
      "name": "user1Cards",
      "outputs": [
        {
          "internalType": "uint256",
          "name": "",
          "type": "uint256"
        }
      ],
      "stateMutability": "view",
      "type": "function"
    },
    {
      "inputs": [],
      "name": "user1IsEntered",
      "outputs": [
        {
          "internalType": "bool",
          "name": "",
          "type": "bool"
        }
      ],
      "stateMutability": "view",
      "type": "function"
    },
    {
      "inputs": [],
      "name": "user2Address",
      "outputs": [
        {
          "internalType": "address",
          "name": "",
          "type": "address"
        }
      ],
      "stateMutability": "view",
      "type": "function"
    },
    {
      "inputs": [
        {
          "internalType": "uint256",
          "name": "",
          "type": "uint256"
        }
      ],
      "name": "user2Cards",
      "outputs": [
        {
          "internalType": "uint256",
          "name": "",
          "type": "uint256"
        }
      ],
      "stateMutability": "view",
      "type": "function"
    },
    {
      "inputs": [],
      "name": "user2IsEntered",
      "outputs": [
        {
          "internalType": "bool",
          "name": "",
          "type": "bool"
        }
      ],
      "stateMutability": "view",
      "type": "function"
    },
    {
      "inputs": [],
      "name": "whoseTurn",
      "outputs": [
        {
          "internalType": "bool",
          "name": "",
          "type": "bool"
        }
      ],
      "stateMutability": "view",
      "type": "function"
    }
  ],
  "bytecode": "0x60806040526000600260186101000a81548160ff021916908360028111156200002d576200002c620001e5565b5b0217905550600060055560006006553480156200004957600080fd5b5060005b600a811015620001de576040518060a00160405280828152602001600160096007856200007b91906200024d565b4262000088919062000288565b62000094919062000302565b620000a091906200024d565b815260200160026008600485620000b891906200024d565b44620000c5919062000288565b620000d1919062000302565b620000dd91906200024d565b81526020016001151581526020016001151581525060008083815260200190815260200160002060008201518160000155602082015181600101556040820151816002015560608201518160030160006101000a81548160ff02191690831515021790555060808201518160030160016101000a81548160ff02191690831515021790555090505060058110156200019e576003819080600181540180825580915050600190039060005260206000200160009091909190915055620001c8565b60048190806001815401808255809150506001900390600052602060002001600090919091909150555b8080620001d5906200033a565b9150506200004d565b5062000387565b7f4e487b7100000000000000000000000000000000000000000000000000000000600052602160045260246000fd5b6000819050919050565b7f4e487b7100000000000000000000000000000000000000000000000000000000600052601160045260246000fd5b60006200025a8262000214565b9150620002678362000214565b92508282019050808211156200028257620002816200021e565b5b92915050565b6000620002958262000214565b9150620002a28362000214565b9250828202620002b28162000214565b91508282048414831517620002cc57620002cb6200021e565b5b5092915050565b7f4e487b7100000000000000000000000000000000000000000000000000000000600052601260045260246000fd5b60006200030f8262000214565b91506200031c8362000214565b9250826200032f576200032e620002d3565b5b828206905092915050565b6000620003478262000214565b91507fffffffffffffffffffffffffffffffffffffffffffffffffffffffffffffffff82036200037c576200037b6200021e565b5b600182019050919050565b6111b280620003976000396000f3fe608060405234801561001057600080fd5b50600436106100cf5760003560e01c80639394e7181161008c578063c0a487b811610066578063c0a487b81461021c578063d014c01f1461023a578063daaf3d2e14610256578063efb4d32f14610272576100cf565b80639394e718146101b0578063ab57b8ef146101e0578063bdb337d1146101fe576100cf565b80630e04a7d8146100d457806321d7f050146100f25780632f0d335614610122578063722fed7e146101405780638bc861541461015e5780638dc107681461017c575b600080fd5b6100dc610290565b6040516100e99190610c0a565b60405180910390f35b61010c60048036038101906101079190610c60565b6102a7565b6040516101199190610c9c565b60405180910390f35b61012a6102cb565b6040516101379190610cf8565b60405180910390f35b6101486102f1565b6040516101559190610d8a565b60405180910390f35b610166610304565b6040516101739190610cf8565b60405180910390f35b61019660048036038101906101919190610c60565b61032a565b6040516101a7959493929190610da5565b60405180910390f35b6101ca60048036038101906101c59190610c60565b61037a565b6040516101d79190610c9c565b60405180910390f35b6101e861039e565b6040516101f59190610c0a565b60405180910390f35b6102066103b1565b6040516102139190610c0a565b60405180910390f35b6102246103c4565b6040516102319190610c0a565b60405180910390f35b610254600480360381019061024f9190610e24565b6103d7565b005b610270600480360381019061026b9190610e51565b6105de565b005b61027a610bdc565b6040516102879190610c0a565b60405180910390f35b6000600260179054906101000a900460ff16905090565b600381815481106102b757600080fd5b906000526020600020016000915090505481565b600160009054906101000a900473ffffffffffffffffffffffffffffffffffffffff1681565b600260189054906101000a900460ff1681565b600260009054906101000a900473ffffffffffffffffffffffffffffffffffffffff1681565b60006020528060005260406000206000915090508060000154908060010154908060020154908060030160009054906101000a900460ff16908060030160019054906101000a900460ff16905085565b6004818154811061038a57600080fd5b906000526020600020016000915090505481565b600260169054906101000a900460ff1681565b600260179054906101000a900460ff1681565b600260149054906101000a900460ff1681565b600260179054906101000a900460ff1615610427576040517f08c379a000000000000000000000000000000000000000000000000000000000815260040161041e90610f01565b60405180910390fd5b6000600281111561043b5761043a610d13565b5b600260189054906101000a900460ff16600281111561045d5761045c610d13565b5b1461049d576040517f08c379a000000000000000000000000000000000000000000000000000000000815260040161049490610f6d565b60405180910390fd5b600260149054906101000a900460ff166105125780600160006101000a81548173ffffffffffffffffffffffffffffffffffffffff021916908373ffffffffffffffffffffffffffffffffffffffff1602179055506001600260146101000a81548160ff0219169083151502179055506105db565b600260159054906101000a900460ff166105da5780600260006101000a81548173ffffffffffffffffffffffffffffffffffffffff021916908373ffffffffffffffffffffffffffffffffffffffff1602179055506001600260156101000a81548160ff0219169083151502179055506001600260186101000a81548160ff021916908360028111156105a8576105a7610d13565b5b02179055507f762f260439bb4be3ef6e4dc2786e2e7bd187d3d80b79057d7a424fe98563e33560405160405180910390a15b5b50565b600060028111156105f2576105f1610d13565b5b600260189054906101000a900460ff16600281111561061457610613610d13565b5b03610654576040517f08c379a000000000000000000000000000000000000000000000000000000000815260040161064b90610fd9565b60405180910390fd5b600260179054906101000a900460ff16156106a4576040517f08c379a000000000000000000000000000000000000000000000000000000000815260040161069b90610f01565b60405180910390fd5b600160009054906101000a900473ffffffffffffffffffffffffffffffffffffffff1673ffffffffffffffffffffffffffffffffffffffff168173ffffffffffffffffffffffffffffffffffffffff1614801561070e5750600260169054906101000a900460ff16155b8061077e5750600260009054906101000a900473ffffffffffffffffffffffffffffffffffffffff1673ffffffffffffffffffffffffffffffffffffffff168173ffffffffffffffffffffffffffffffffffffffff1614801561077d5750600260169054906101000a900460ff165b5b6107bd576040517f08c379a00000000000000000000000000000000000000000000000000000000081526004016107b490611045565b60405180910390fd5b60008083815260200190815260200160002060030160009054906101000a900460ff1661081f576040517f08c379a0000000000000000000000000000000000000000000000000000000008152600401610816906110b1565b60405180910390fd5b60008084815260200190815260200160002060030160009054906101000a900460ff16610881576040517f08c379a0000000000000000000000000000000000000000000000000000000008152600401610878906110b1565b60405180910390fd5b600080848152602001908152602001600020600101546000808481526020019081526020016000206002015411610b6b57600080600084815260200190815260200160002060030160006101000a81548160ff0219169083151502179055508073ffffffffffffffffffffffffffffffffffffffff16600160009054906101000a900473ffffffffffffffffffffffffffffffffffffffff1673ffffffffffffffffffffffffffffffffffffffff160361094e576005600081548092919061094890611100565b91905055505b8073ffffffffffffffffffffffffffffffffffffffff16600260009054906101000a900473ffffffffffffffffffffffffffffffffffffffff1673ffffffffffffffffffffffffffffffffffffffff16036109bc57600660008154809291906109b690611100565b91905055505b6005805403610a9257600260009054906101000a900473ffffffffffffffffffffffffffffffffffffffff16600760006101000a81548173ffffffffffffffffffffffffffffffffffffffff021916908373ffffffffffffffffffffffffffffffffffffffff160217905550600760009054906101000a900473ffffffffffffffffffffffffffffffffffffffff1673ffffffffffffffffffffffffffffffffffffffff167fbbca850ef098f4a3ce49a0770ca2e6e176215b97d03b6ea812dfd3586c1a6dad60405160405180910390a2610b66565b600560065403610b6557600160009054906101000a900473ffffffffffffffffffffffffffffffffffffffff16600760006101000a81548173ffffffffffffffffffffffffffffffffffffffff021916908373ffffffffffffffffffffffffffffffffffffffff160217905550600760009054906101000a900473ffffffffffffffffffffffffffffffffffffffff1673ffffffffffffffffffffffffffffffffffffffff167fbbca850ef098f4a3ce49a0770ca2e6e176215b97d03b6ea812dfd3586c1a6dad60405160405180910390a25b5b610bad565b600080848152602001908152602001600020600101546000808481526020019081526020016000206002016000828254610ba59190611148565b925050819055505b600260169054906101000a900460ff1615600260166101000a81548160ff021916908315150217905550505050565b600260159054906101000a900460ff1681565b60008115159050919050565b610c0481610bef565b82525050565b6000602082019050610c1f6000830184610bfb565b92915050565b600080fd5b6000819050919050565b610c3d81610c2a565b8114610c4857600080fd5b50565b600081359050610c5a81610c34565b92915050565b600060208284031215610c7657610c75610c25565b5b6000610c8484828501610c4b565b91505092915050565b610c9681610c2a565b82525050565b6000602082019050610cb16000830184610c8d565b92915050565b600073ffffffffffffffffffffffffffffffffffffffff82169050919050565b6000610ce282610cb7565b9050919050565b610cf281610cd7565b82525050565b6000602082019050610d0d6000830184610ce9565b92915050565b7f4e487b7100000000000000000000000000000000000000000000000000000000600052602160045260246000fd5b60038110610d5357610d52610d13565b5b50565b6000819050610d6482610d42565b919050565b6000610d7482610d56565b9050919050565b610d8481610d69565b82525050565b6000602082019050610d9f6000830184610d7b565b92915050565b600060a082019050610dba6000830188610c8d565b610dc76020830187610c8d565b610dd46040830186610c8d565b610de16060830185610bfb565b610dee6080830184610bfb565b9695505050505050565b610e0181610cd7565b8114610e0c57600080fd5b50565b600081359050610e1e81610df8565b92915050565b600060208284031215610e3a57610e39610c25565b5b6000610e4884828501610e0f565b91505092915050565b600080600060608486031215610e6a57610e69610c25565b5b6000610e7886828701610c4b565b9350506020610e8986828701610c4b565b9250506040610e9a86828701610e0f565b9150509250925092565b600082825260208201905092915050565b7f67616d65206f7665720000000000000000000000000000000000000000000000600082015250565b6000610eeb600983610ea4565b9150610ef682610eb5565b602082019050919050565b60006020820190508181036000830152610f1a81610ede565b9050919050565b7f47616d6520616c72656164792073746172746564210000000000000000000000600082015250565b6000610f57601583610ea4565b9150610f6282610f21565b602082019050919050565b60006020820190508181036000830152610f8681610f4a565b9050919050565b7f47616d6520686173206e6f742073746172746564207965742100000000000000600082015250565b6000610fc3601983610ea4565b9150610fce82610f8d565b602082019050919050565b60006020820190508181036000830152610ff281610fb6565b9050919050565b7f4e6f7420796f7572207475726e00000000000000000000000000000000000000600082015250565b600061102f600d83610ea4565b915061103a82610ff9565b602082019050919050565b6000602082019050818103600083015261105e81611022565b9050919050565b7f546869732063617264206973206e6f7420616c69766500000000000000000000600082015250565b600061109b601683610ea4565b91506110a682611065565b602082019050919050565b600060208201905081810360008301526110ca8161108e565b9050919050565b7f4e487b7100000000000000000000000000000000000000000000000000000000600052601160045260246000fd5b600061110b82610c2a565b91507fffffffffffffffffffffffffffffffffffffffffffffffffffffffffffffffff820361113d5761113c6110d1565b5b600182019050919050565b600061115382610c2a565b915061115e83610c2a565b9250828203905081811115611176576111756110d1565b5b9291505056fea264697066735822122073202432df098f3d968c2342eb4a3178baf984e8c58ea047ee33ddb956ded7f264736f6c63430008120033",
  "linkReferences": {},
  "deployedLinkReferences": {}
}