{
  "_format": "hh-sol-artifact-1",
  "contractName": "CardGame",
  "sourceName": "contracts/GameContract.sol",
  "abi": [
    {
      "inputs": [],
      "stateMutability": "nonpayable",
      "type": "constructor"
    },
    {
      "anonymous": false,
      "inputs": [
        {
          "indexed": true,
          "internalType": "address",
          "name": "attacker",
          "type": "address"
        },
        {
          "indexed": true,
          "internalType": "address",
          "name": "defender",
          "type": "address"
        },
        {
          "indexed": false,
          "internalType": "uint256",
          "name": "attackerCardId",
          "type": "uint256"
        },
        {
          "indexed": false,
          "internalType": "uint256",
          "name": "defenderCardId",
          "type": "uint256"
        },
        {
          "indexed": false,
          "internalType": "uint256",
          "name": "damage",
          "type": "uint256"
        }
      ],
      "name": "Attack",
      "type": "event"
    },
    {
      "anonymous": false,
      "inputs": [
        {
          "indexed": true,
          "internalType": "uint256",
          "name": "cardId",
          "type": "uint256"
        },
        {
          "indexed": true,
          "internalType": "address",
          "name": "player",
          "type": "address"
        }
      ],
      "name": "CardChosen",
      "type": "event"
    },
    {
      "anonymous": false,
      "inputs": [
        {
          "indexed": true,
          "internalType": "address",
          "name": "winner",
          "type": "address"
        }
      ],
      "name": "GameOvered",
      "type": "event"
    },
    {
      "anonymous": false,
      "inputs": [],
      "name": "GameStarted",
      "type": "event"
    },
    {
      "inputs": [
        {
          "internalType": "uint256",
          "name": "attackerId",
          "type": "uint256"
        },
        {
          "internalType": "uint256",
          "name": "defenderId",
          "type": "uint256"
        }
      ],
      "name": "attack",
      "outputs": [],
      "stateMutability": "nonpayable",
      "type": "function"
    },
    {
      "inputs": [
        {
          "internalType": "uint256",
          "name": "",
          "type": "uint256"
        }
      ],
      "name": "cards",
      "outputs": [
        {
          "internalType": "uint256",
          "name": "id",
          "type": "uint256"
        },
        {
          "internalType": "uint256",
          "name": "power",
          "type": "uint256"
        },
        {
          "internalType": "uint256",
          "name": "health",
          "type": "uint256"
        },
        {
          "internalType": "bool",
          "name": "isAlive",
          "type": "bool"
        },
        {
          "internalType": "bool",
          "name": "isTaken",
          "type": "bool"
        }
      ],
      "stateMutability": "view",
      "type": "function"
    },
    {
      "inputs": [
        {
          "internalType": "address",
          "name": "player",
          "type": "address"
        }
      ],
      "name": "enter",
      "outputs": [],
      "stateMutability": "nonpayable",
      "type": "function"
    },
    {
      "inputs": [],
      "name": "gameOver",
      "outputs": [
        {
          "internalType": "bool",
          "name": "",
          "type": "bool"
        }
      ],
      "stateMutability": "view",
      "type": "function"
    },
    {
      "inputs": [],
      "name": "gameStatus",
      "outputs": [
        {
          "internalType": "enum CardGame.GameStatus",
          "name": "",
          "type": "uint8"
        }
      ],
      "stateMutability": "view",
      "type": "function"
    },
    {
      "inputs": [],
      "name": "isGameOver",
      "outputs": [
        {
          "internalType": "bool",
          "name": "",
          "type": "bool"
        }
      ],
      "stateMutability": "view",
      "type": "function"
    },
    {
      "inputs": [],
      "name": "user1Address",
      "outputs": [
        {
          "internalType": "address",
          "name": "",
          "type": "address"
        }
      ],
      "stateMutability": "view",
      "type": "function"
    },
    {
      "inputs": [
        {
          "internalType": "uint256",
          "name": "",
          "type": "uint256"
        }
      ],
      "name": "user1Cards",
      "outputs": [
        {
          "internalType": "uint256",
          "name": "",
          "type": "uint256"
        }
      ],
      "stateMutability": "view",
      "type": "function"
    },
    {
      "inputs": [],
      "name": "user1IsEntered",
      "outputs": [
        {
          "internalType": "bool",
          "name": "",
          "type": "bool"
        }
      ],
      "stateMutability": "view",
      "type": "function"
    },
    {
      "inputs": [],
      "name": "user2Address",
      "outputs": [
        {
          "internalType": "address",
          "name": "",
          "type": "address"
        }
      ],
      "stateMutability": "view",
      "type": "function"
    },
    {
      "inputs": [
        {
          "internalType": "uint256",
          "name": "",
          "type": "uint256"
        }
      ],
      "name": "user2Cards",
      "outputs": [
        {
          "internalType": "uint256",
          "name": "",
          "type": "uint256"
        }
      ],
      "stateMutability": "view",
      "type": "function"
    },
    {
      "inputs": [],
      "name": "user2IsEntered",
      "outputs": [
        {
          "internalType": "bool",
          "name": "",
          "type": "bool"
        }
      ],
      "stateMutability": "view",
      "type": "function"
    },
    {
      "inputs": [],
      "name": "whoseTurn",
      "outputs": [
        {
          "internalType": "bool",
          "name": "",
          "type": "bool"
        }
      ],
      "stateMutability": "view",
      "type": "function"
    }
  ],
  "bytecode": "0x60806040526000600260186101000a81548160ff021916908360028111156200002d576200002c620001e5565b5b0217905550600060055560006006553480156200004957600080fd5b5060005b600a811015620001de576040518060a00160405280828152602001600160096007856200007b91906200024d565b4262000088919062000288565b62000094919062000302565b620000a091906200024d565b815260200160016009600485620000b891906200024d565b42620000c5919062000288565b620000d1919062000302565b620000dd91906200024d565b81526020016001151581526020016001151581525060008083815260200190815260200160002060008201518160000155602082015181600101556040820151816002015560608201518160030160006101000a81548160ff02191690831515021790555060808201518160030160016101000a81548160ff02191690831515021790555090505060058110156200019e576003819080600181540180825580915050600190039060005260206000200160009091909190915055620001c8565b60048190806001815401808255809150506001900390600052602060002001600090919091909150555b8080620001d5906200033a565b9150506200004d565b5062000387565b7f4e487b7100000000000000000000000000000000000000000000000000000000600052602160045260246000fd5b6000819050919050565b7f4e487b7100000000000000000000000000000000000000000000000000000000600052601160045260246000fd5b60006200025a8262000214565b9150620002678362000214565b92508282019050808211156200028257620002816200021e565b5b92915050565b6000620002958262000214565b9150620002a28362000214565b9250828202620002b28162000214565b91508282048414831517620002cc57620002cb6200021e565b5b5092915050565b7f4e487b7100000000000000000000000000000000000000000000000000000000600052601260045260246000fd5b60006200030f8262000214565b91506200031c8362000214565b9250826200032f576200032e620002d3565b5b828206905092915050565b6000620003478262000214565b91507fffffffffffffffffffffffffffffffffffffffffffffffffffffffffffffffff82036200037c576200037b6200021e565b5b600182019050919050565b61113480620003976000396000f3fe608060405234801561001057600080fd5b50600436106100cf5760003560e01c80639394e7181161008c578063c0a487b811610066578063c0a487b81461021c578063d014c01f1461023a578063e1fa763814610256578063efb4d32f14610272576100cf565b80639394e718146101b0578063ab57b8ef146101e0578063bdb337d1146101fe576100cf565b80630e04a7d8146100d457806321d7f050146100f25780632f0d335614610122578063722fed7e146101405780638bc861541461015e5780638dc107681461017c575b600080fd5b6100dc610290565b6040516100e99190610b9f565b60405180910390f35b61010c60048036038101906101079190610bf5565b6102a7565b6040516101199190610c31565b60405180910390f35b61012a6102cb565b6040516101379190610c8d565b60405180910390f35b6101486102f1565b6040516101559190610d1f565b60405180910390f35b610166610304565b6040516101739190610c8d565b60405180910390f35b61019660048036038101906101919190610bf5565b61032a565b6040516101a7959493929190610d3a565b60405180910390f35b6101ca60048036038101906101c59190610bf5565b61037a565b6040516101d79190610c31565b60405180910390f35b6101e861039e565b6040516101f59190610b9f565b60405180910390f35b6102066103b1565b6040516102139190610b9f565b60405180910390f35b6102246103c4565b6040516102319190610b9f565b60405180910390f35b610254600480360381019061024f9190610db9565b6103d7565b005b610270600480360381019061026b9190610de6565b6105de565b005b61027a610b71565b6040516102879190610b9f565b60405180910390f35b6000600260179054906101000a900460ff16905090565b600381815481106102b757600080fd5b906000526020600020016000915090505481565b600160009054906101000a900473ffffffffffffffffffffffffffffffffffffffff1681565b600260189054906101000a900460ff1681565b600260009054906101000a900473ffffffffffffffffffffffffffffffffffffffff1681565b60006020528060005260406000206000915090508060000154908060010154908060020154908060030160009054906101000a900460ff16908060030160019054906101000a900460ff16905085565b6004818154811061038a57600080fd5b906000526020600020016000915090505481565b600260169054906101000a900460ff1681565b600260179054906101000a900460ff1681565b600260149054906101000a900460ff1681565b600260179054906101000a900460ff1615610427576040517f08c379a000000000000000000000000000000000000000000000000000000000815260040161041e90610e83565b60405180910390fd5b6000600281111561043b5761043a610ca8565b5b600260189054906101000a900460ff16600281111561045d5761045c610ca8565b5b1461049d576040517f08c379a000000000000000000000000000000000000000000000000000000000815260040161049490610eef565b60405180910390fd5b600260149054906101000a900460ff166105125780600160006101000a81548173ffffffffffffffffffffffffffffffffffffffff021916908373ffffffffffffffffffffffffffffffffffffffff1602179055506001600260146101000a81548160ff0219169083151502179055506105db565b600260159054906101000a900460ff166105da5780600260006101000a81548173ffffffffffffffffffffffffffffffffffffffff021916908373ffffffffffffffffffffffffffffffffffffffff1602179055506001600260156101000a81548160ff0219169083151502179055506001600260186101000a81548160ff021916908360028111156105a8576105a7610ca8565b5b02179055507f762f260439bb4be3ef6e4dc2786e2e7bd187d3d80b79057d7a424fe98563e33560405160405180910390a15b5b50565b600060028111156105f2576105f1610ca8565b5b600260189054906101000a900460ff16600281111561061457610613610ca8565b5b03610654576040517f08c379a000000000000000000000000000000000000000000000000000000000815260040161064b90610f5b565b60405180910390fd5b600260179054906101000a900460ff16156106a4576040517f08c379a000000000000000000000000000000000000000000000000000000000815260040161069b90610e83565b60405180910390fd5b600160009054906101000a900473ffffffffffffffffffffffffffffffffffffffff1673ffffffffffffffffffffffffffffffffffffffff163373ffffffffffffffffffffffffffffffffffffffff1614801561070e5750600260169054906101000a900460ff16155b8061077e5750600260009054906101000a900473ffffffffffffffffffffffffffffffffffffffff1673ffffffffffffffffffffffffffffffffffffffff163373ffffffffffffffffffffffffffffffffffffffff1614801561077d5750600260169054906101000a900460ff165b5b6107bd576040517f08c379a00000000000000000000000000000000000000000000000000000000081526004016107b490610fc7565b60405180910390fd5b60008082815260200190815260200160002060030160009054906101000a900460ff1661081f576040517f08c379a000000000000000000000000000000000000000000000000000000000815260040161081690611033565b60405180910390fd5b60008083815260200190815260200160002060030160009054906101000a900460ff16610881576040517f08c379a000000000000000000000000000000000000000000000000000000000815260040161087890611033565b60405180910390fd5b600080838152602001908152602001600020600101546000808381526020019081526020016000206002015411610a9c57600080600083815260200190815260200160002060030160006101000a81548160ff0219169083151502179055503373ffffffffffffffffffffffffffffffffffffffff16600160009054906101000a900473ffffffffffffffffffffffffffffffffffffffff1673ffffffffffffffffffffffffffffffffffffffff160361094e576005600081548092919061094890611082565b91905055505b3373ffffffffffffffffffffffffffffffffffffffff16600260009054906101000a900473ffffffffffffffffffffffffffffffffffffffff1673ffffffffffffffffffffffffffffffffffffffff16036109bc57600660008154809291906109b690611082565b91905055505b6005805403610a2957600260009054906101000a900473ffffffffffffffffffffffffffffffffffffffff16600760006101000a81548173ffffffffffffffffffffffffffffffffffffffff021916908373ffffffffffffffffffffffffffffffffffffffff1602179055505b600560065403610a9757600160009054906101000a900473ffffffffffffffffffffffffffffffffffffffff16600760006101000a81548173ffffffffffffffffffffffffffffffffffffffff021916908373ffffffffffffffffffffffffffffffffffffffff1602179055505b610ade565b600080838152602001908152602001600020600101546000808381526020019081526020016000206002016000828254610ad691906110ca565b925050819055505b600260169054906101000a900460ff1615600260166101000a81548160ff021916908315150217905550600760009054906101000a900473ffffffffffffffffffffffffffffffffffffffff1673ffffffffffffffffffffffffffffffffffffffff167fbbca850ef098f4a3ce49a0770ca2e6e176215b97d03b6ea812dfd3586c1a6dad60405160405180910390a25050565b600260159054906101000a900460ff1681565b60008115159050919050565b610b9981610b84565b82525050565b6000602082019050610bb46000830184610b90565b92915050565b600080fd5b6000819050919050565b610bd281610bbf565b8114610bdd57600080fd5b50565b600081359050610bef81610bc9565b92915050565b600060208284031215610c0b57610c0a610bba565b5b6000610c1984828501610be0565b91505092915050565b610c2b81610bbf565b82525050565b6000602082019050610c466000830184610c22565b92915050565b600073ffffffffffffffffffffffffffffffffffffffff82169050919050565b6000610c7782610c4c565b9050919050565b610c8781610c6c565b82525050565b6000602082019050610ca26000830184610c7e565b92915050565b7f4e487b7100000000000000000000000000000000000000000000000000000000600052602160045260246000fd5b60038110610ce857610ce7610ca8565b5b50565b6000819050610cf982610cd7565b919050565b6000610d0982610ceb565b9050919050565b610d1981610cfe565b82525050565b6000602082019050610d346000830184610d10565b92915050565b600060a082019050610d4f6000830188610c22565b610d5c6020830187610c22565b610d696040830186610c22565b610d766060830185610b90565b610d836080830184610b90565b9695505050505050565b610d9681610c6c565b8114610da157600080fd5b50565b600081359050610db381610d8d565b92915050565b600060208284031215610dcf57610dce610bba565b5b6000610ddd84828501610da4565b91505092915050565b60008060408385031215610dfd57610dfc610bba565b5b6000610e0b85828601610be0565b9250506020610e1c85828601610be0565b9150509250929050565b600082825260208201905092915050565b7f67616d65206f7665720000000000000000000000000000000000000000000000600082015250565b6000610e6d600983610e26565b9150610e7882610e37565b602082019050919050565b60006020820190508181036000830152610e9c81610e60565b9050919050565b7f47616d6520616c72656164792073746172746564210000000000000000000000600082015250565b6000610ed9601583610e26565b9150610ee482610ea3565b602082019050919050565b60006020820190508181036000830152610f0881610ecc565b9050919050565b7f47616d6520686173206e6f742073746172746564207965742100000000000000600082015250565b6000610f45601983610e26565b9150610f5082610f0f565b602082019050919050565b60006020820190508181036000830152610f7481610f38565b9050919050565b7f4e6f7420796f7572207475726e00000000000000000000000000000000000000600082015250565b6000610fb1600d83610e26565b9150610fbc82610f7b565b602082019050919050565b60006020820190508181036000830152610fe081610fa4565b9050919050565b7f546869732063617264206973206e6f7420616c69766500000000000000000000600082015250565b600061101d601683610e26565b915061102882610fe7565b602082019050919050565b6000602082019050818103600083015261104c81611010565b9050919050565b7f4e487b7100000000000000000000000000000000000000000000000000000000600052601160045260246000fd5b600061108d82610bbf565b91507fffffffffffffffffffffffffffffffffffffffffffffffffffffffffffffffff82036110bf576110be611053565b5b600182019050919050565b60006110d582610bbf565b91506110e083610bbf565b92508282039050818111156110f8576110f7611053565b5b9291505056fea26469706673582212203c84221d61d480167c4122ac46968c8576afae24aca6f91f99987715f8a0b2ef64736f6c63430008120033",
  "linkReferences": {},
  "deployedLinkReferences": {}
}