{"contracts/GameContract.sol":{"CardGame":{"abi":[{"inputs":[],"stateMutability":"nonpayable","type":"constructor"},{"anonymous":false,"inputs":[{"indexed":true,"internalType":"address","name":"attacker","type":"address"},{"indexed":true,"internalType":"address","name":"defender","type":"address"},{"indexed":false,"internalType":"uint256","name":"attackerCardId","type":"uint256"},{"indexed":false,"internalType":"uint256","name":"defenderCardId","type":"uint256"},{"indexed":false,"internalType":"uint256","name":"damage","type":"uint256"}],"name":"Attack","type":"event"},{"anonymous":false,"inputs":[{"indexed":true,"internalType":"uint256","name":"cardId","type":"uint256"},{"indexed":true,"internalType":"address","name":"player","type":"address"}],"name":"CardChosen","type":"event"},{"anonymous":false,"inputs":[{"indexed":true,"internalType":"address","name":"winner","type":"address"}],"name":"GameOvered","type":"event"},{"anonymous":false,"inputs":[],"name":"GameStarted","type":"event"},{"inputs":[{"internalType":"uint256","name":"attackerId","type":"uint256"},{"internalType":"uint256","name":"defenderId","type":"uint256"},{"internalType":"address","name":"attacker","type":"address"}],"name":"attack","outputs":[],"stateMutability":"nonpayable","type":"function"},{"inputs":[{"internalType":"uint256","name":"","type":"uint256"}],"name":"cards","outputs":[{"internalType":"uint256","name":"id","type":"uint256"},{"internalType":"uint256","name":"power","type":"uint256"},{"internalType":"uint256","name":"health","type":"uint256"},{"internalType":"bool","name":"isAlive","type":"bool"},{"internalType":"bool","name":"isTaken","type":"bool"}],"stateMutability":"view","type":"function"},{"inputs":[{"internalType":"address","name":"player","type":"address"}],"name":"enter","outputs":[],"stateMutability":"nonpayable","type":"function"},{"inputs":[],"name":"gameOver","outputs":[{"internalType":"bool","name":"","type":"bool"}],"stateMutability":"view","type":"function"},{"inputs":[],"name":"gameStatus","outputs":[{"internalType":"enum CardGame.GameStatus","name":"","type":"uint8"}],"stateMutability":"view","type":"function"},{"inputs":[],"name":"isGameOver","outputs":[{"internalType":"bool","name":"","type":"bool"}],"stateMutability":"view","type":"function"},{"inputs":[],"name":"user1Address","outputs":[{"internalType":"address","name":"","type":"address"}],"stateMutability":"view","type":"function"},{"inputs":[{"internalType":"uint256","name":"","type":"uint256"}],"name":"user1Cards","outputs":[{"internalType":"uint256","name":"","type":"uint256"}],"stateMutability":"view","type":"function"},{"inputs":[],"name":"user1IsEntered","outputs":[{"internalType":"bool","name":"","type":"bool"}],"stateMutability":"view","type":"function"},{"inputs":[],"name":"user2Address","outputs":[{"internalType":"address","name":"","type":"address"}],"stateMutability":"view","type":"function"},{"inputs":[{"internalType":"uint256","name":"","type":"uint256"}],"name":"user2Cards","outputs":[{"internalType":"uint256","name":"","type":"uint256"}],"stateMutability":"view","type":"function"},{"inputs":[],"name":"user2IsEntered","outputs":[{"internalType":"bool","name":"","type":"bool"}],"stateMutability":"view","type":"function"},{"inputs":[],"name":"whoseTurn","outputs":[{"internalType":"bool","name":"","type":"bool"}],"stateMutability":"view","type":"function"}],"devdoc":{"kind":"dev","methods":{},"version":1},"evm":{"bytecode":{"linkReferences":{},"object":"60806040526000600260186101000a81548160ff021916908360028111156200002d576200002c620001e5565b5b0217905550600060055560006006553480156200004957600080fd5b5060005b600a811015620001de576040518060a00160405280828152602001600160096007856200007b91906200024d565b4262000088919062000288565b62000094919062000302565b620000a091906200024d565b815260200160026008600485620000b891906200024d565b44620000c5919062000288565b620000d1919062000302565b620000dd91906200024d565b81526020016001151581526020016001151581525060008083815260200190815260200160002060008201518160000155602082015181600101556040820151816002015560608201518160030160006101000a81548160ff02191690831515021790555060808201518160030160016101000a81548160ff02191690831515021790555090505060058110156200019e576003819080600181540180825580915050600190039060005260206000200160009091909190915055620001c8565b60048190806001815401808255809150506001900390600052602060002001600090919091909150555b8080620001d5906200033a565b9150506200004d565b5062000387565b7f4e487b7100000000000000000000000000000000000000000000000000000000600052602160045260246000fd5b6000819050919050565b7f4e487b7100000000000000000000000000000000000000000000000000000000600052601160045260246000fd5b60006200025a8262000214565b9150620002678362000214565b92508282019050808211156200028257620002816200021e565b5b92915050565b6000620002958262000214565b9150620002a28362000214565b9250828202620002b28162000214565b91508282048414831517620002cc57620002cb6200021e565b5b5092915050565b7f4e487b7100000000000000000000000000000000000000000000000000000000600052601260045260246000fd5b60006200030f8262000214565b91506200031c8362000214565b9250826200032f576200032e620002d3565b5b828206905092915050565b6000620003478262000214565b91507fffffffffffffffffffffffffffffffffffffffffffffffffffffffffffffffff82036200037c576200037b6200021e565b5b600182019050919050565b6111b280620003976000396000f3fe608060405234801561001057600080fd5b50600436106100cf5760003560e01c80639394e7181161008c578063c0a487b811610066578063c0a487b81461021c578063d014c01f1461023a578063daaf3d2e14610256578063efb4d32f14610272576100cf565b80639394e718146101b0578063ab57b8ef146101e0578063bdb337d1146101fe576100cf565b80630e04a7d8146100d457806321d7f050146100f25780632f0d335614610122578063722fed7e146101405780638bc861541461015e5780638dc107681461017c575b600080fd5b6100dc610290565b6040516100e99190610c0a565b60405180910390f35b61010c60048036038101906101079190610c60565b6102a7565b6040516101199190610c9c565b60405180910390f35b61012a6102cb565b6040516101379190610cf8565b60405180910390f35b6101486102f1565b6040516101559190610d8a565b60405180910390f35b610166610304565b6040516101739190610cf8565b60405180910390f35b61019660048036038101906101919190610c60565b61032a565b6040516101a7959493929190610da5565b60405180910390f35b6101ca60048036038101906101c59190610c60565b61037a565b6040516101d79190610c9c565b60405180910390f35b6101e861039e565b6040516101f59190610c0a565b60405180910390f35b6102066103b1565b6040516102139190610c0a565b60405180910390f35b6102246103c4565b6040516102319190610c0a565b60405180910390f35b610254600480360381019061024f9190610e24565b6103d7565b005b610270600480360381019061026b9190610e51565b6105de565b005b61027a610bdc565b6040516102879190610c0a565b60405180910390f35b6000600260179054906101000a900460ff16905090565b600381815481106102b757600080fd5b906000526020600020016000915090505481565b600160009054906101000a900473ffffffffffffffffffffffffffffffffffffffff1681565b600260189054906101000a900460ff1681565b600260009054906101000a900473ffffffffffffffffffffffffffffffffffffffff1681565b60006020528060005260406000206000915090508060000154908060010154908060020154908060030160009054906101000a900460ff16908060030160019054906101000a900460ff16905085565b6004818154811061038a57600080fd5b906000526020600020016000915090505481565b600260169054906101000a900460ff1681565b600260179054906101000a900460ff1681565b600260149054906101000a900460ff1681565b600260179054906101000a900460ff1615610427576040517f08c379a000000000000000000000000000000000000000000000000000000000815260040161041e90610f01565b60405180910390fd5b6000600281111561043b5761043a610d13565b5b600260189054906101000a900460ff16600281111561045d5761045c610d13565b5b1461049d576040517f08c379a000000000000000000000000000000000000000000000000000000000815260040161049490610f6d565b60405180910390fd5b600260149054906101000a900460ff166105125780600160006101000a81548173ffffffffffffffffffffffffffffffffffffffff021916908373ffffffffffffffffffffffffffffffffffffffff1602179055506001600260146101000a81548160ff0219169083151502179055506105db565b600260159054906101000a900460ff166105da5780600260006101000a81548173ffffffffffffffffffffffffffffffffffffffff021916908373ffffffffffffffffffffffffffffffffffffffff1602179055506001600260156101000a81548160ff0219169083151502179055506001600260186101000a81548160ff021916908360028111156105a8576105a7610d13565b5b02179055507f762f260439bb4be3ef6e4dc2786e2e7bd187d3d80b79057d7a424fe98563e33560405160405180910390a15b5b50565b600060028111156105f2576105f1610d13565b5b600260189054906101000a900460ff16600281111561061457610613610d13565b5b03610654576040517f08c379a000000000000000000000000000000000000000000000000000000000815260040161064b90610fd9565b60405180910390fd5b600260179054906101000a900460ff16156106a4576040517f08c379a000000000000000000000000000000000000000000000000000000000815260040161069b90610f01565b60405180910390fd5b600160009054906101000a900473ffffffffffffffffffffffffffffffffffffffff1673ffffffffffffffffffffffffffffffffffffffff168173ffffffffffffffffffffffffffffffffffffffff1614801561070e5750600260169054906101000a900460ff16155b8061077e5750600260009054906101000a900473ffffffffffffffffffffffffffffffffffffffff1673ffffffffffffffffffffffffffffffffffffffff168173ffffffffffffffffffffffffffffffffffffffff1614801561077d5750600260169054906101000a900460ff165b5b6107bd576040517f08c379a00000000000000000000000000000000000000000000000000000000081526004016107b490611045565b60405180910390fd5b60008083815260200190815260200160002060030160009054906101000a900460ff1661081f576040517f08c379a0000000000000000000000000000000000000000000000000000000008152600401610816906110b1565b60405180910390fd5b60008084815260200190815260200160002060030160009054906101000a900460ff16610881576040517f08c379a0000000000000000000000000000000000000000000000000000000008152600401610878906110b1565b60405180910390fd5b600080848152602001908152602001600020600101546000808481526020019081526020016000206002015411610b6b57600080600084815260200190815260200160002060030160006101000a81548160ff0219169083151502179055508073ffffffffffffffffffffffffffffffffffffffff16600160009054906101000a900473ffffffffffffffffffffffffffffffffffffffff1673ffffffffffffffffffffffffffffffffffffffff160361094e576005600081548092919061094890611100565b91905055505b8073ffffffffffffffffffffffffffffffffffffffff16600260009054906101000a900473ffffffffffffffffffffffffffffffffffffffff1673ffffffffffffffffffffffffffffffffffffffff16036109bc57600660008154809291906109b690611100565b91905055505b6005805403610a9257600260009054906101000a900473ffffffffffffffffffffffffffffffffffffffff16600760006101000a81548173ffffffffffffffffffffffffffffffffffffffff021916908373ffffffffffffffffffffffffffffffffffffffff160217905550600760009054906101000a900473ffffffffffffffffffffffffffffffffffffffff1673ffffffffffffffffffffffffffffffffffffffff167fbbca850ef098f4a3ce49a0770ca2e6e176215b97d03b6ea812dfd3586c1a6dad60405160405180910390a2610b66565b600560065403610b6557600160009054906101000a900473ffffffffffffffffffffffffffffffffffffffff16600760006101000a81548173ffffffffffffffffffffffffffffffffffffffff021916908373ffffffffffffffffffffffffffffffffffffffff160217905550600760009054906101000a900473ffffffffffffffffffffffffffffffffffffffff1673ffffffffffffffffffffffffffffffffffffffff167fbbca850ef098f4a3ce49a0770ca2e6e176215b97d03b6ea812dfd3586c1a6dad60405160405180910390a25b5b610bad565b600080848152602001908152602001600020600101546000808481526020019081526020016000206002016000828254610ba59190611148565b925050819055505b600260169054906101000a900460ff1615600260166101000a81548160ff021916908315150217905550505050565b600260159054906101000a900460ff1681565b60008115159050919050565b610c0481610bef565b82525050565b6000602082019050610c1f6000830184610bfb565b92915050565b600080fd5b6000819050919050565b610c3d81610c2a565b8114610c4857600080fd5b50565b600081359050610c5a81610c34565b92915050565b600060208284031215610c7657610c75610c25565b5b6000610c8484828501610c4b565b91505092915050565b610c9681610c2a565b82525050565b6000602082019050610cb16000830184610c8d565b92915050565b600073ffffffffffffffffffffffffffffffffffffffff82169050919050565b6000610ce282610cb7565b9050919050565b610cf281610cd7565b82525050565b6000602082019050610d0d6000830184610ce9565b92915050565b7f4e487b7100000000000000000000000000000000000000000000000000000000600052602160045260246000fd5b60038110610d5357610d52610d13565b5b50565b6000819050610d6482610d42565b919050565b6000610d7482610d56565b9050919050565b610d8481610d69565b82525050565b6000602082019050610d9f6000830184610d7b565b92915050565b600060a082019050610dba6000830188610c8d565b610dc76020830187610c8d565b610dd46040830186610c8d565b610de16060830185610bfb565b610dee6080830184610bfb565b9695505050505050565b610e0181610cd7565b8114610e0c57600080fd5b50565b600081359050610e1e81610df8565b92915050565b600060208284031215610e3a57610e39610c25565b5b6000610e4884828501610e0f565b91505092915050565b600080600060608486031215610e6a57610e69610c25565b5b6000610e7886828701610c4b565b9350506020610e8986828701610c4b565b9250506040610e9a86828701610e0f565b9150509250925092565b600082825260208201905092915050565b7f67616d65206f7665720000000000000000000000000000000000000000000000600082015250565b6000610eeb600983610ea4565b9150610ef682610eb5565b602082019050919050565b60006020820190508181036000830152610f1a81610ede565b9050919050565b7f47616d6520616c72656164792073746172746564210000000000000000000000600082015250565b6000610f57601583610ea4565b9150610f6282610f21565b602082019050919050565b60006020820190508181036000830152610f8681610f4a565b9050919050565b7f47616d6520686173206e6f742073746172746564207965742100000000000000600082015250565b6000610fc3601983610ea4565b9150610fce82610f8d565b602082019050919050565b60006020820190508181036000830152610ff281610fb6565b9050919050565b7f4e6f7420796f7572207475726e00000000000000000000000000000000000000600082015250565b600061102f600d83610ea4565b915061103a82610ff9565b602082019050919050565b6000602082019050818103600083015261105e81611022565b9050919050565b7f546869732063617264206973206e6f7420616c69766500000000000000000000600082015250565b600061109b601683610ea4565b91506110a682611065565b602082019050919050565b600060208201905081810360008301526110ca8161108e565b9050919050565b7f4e487b7100000000000000000000000000000000000000000000000000000000600052601160045260246000fd5b600061110b82610c2a565b91507fffffffffffffffffffffffffffffffffffffffffffffffffffffffffffffffff820361113d5761113c6110d1565b5b600182019050919050565b600061115382610c2a565b915061115e83610c2a565b9250828203905081811115611176576111756110d1565b5b9291505056fea264697066735822122073202432df098f3d968c2342eb4a3178baf984e8c58ea047ee33ddb956ded7f264736f6c63430008120033","opcodes":"PUSH1 0x80 PUSH1 0x40 MSTORE PUSH1 0x0 PUSH1 0x2 PUSH1 0x18 PUSH2 0x100 EXP DUP2 SLOAD DUP2 PUSH1 0xFF MUL NOT AND SWAP1 DUP4 PUSH1 0x2 DUP2 GT ISZERO PUSH3 0x2D JUMPI PUSH3 0x2C PUSH3 0x1E5 JUMP JUMPDEST JUMPDEST MUL OR SWAP1 SSTORE POP PUSH1 0x0 PUSH1 0x5 SSTORE PUSH1 0x0 PUSH1 0x6 SSTORE CALLVALUE DUP1 ISZERO PUSH3 0x49 JUMPI PUSH1 0x0 DUP1 REVERT JUMPDEST POP PUSH1 0x0 JUMPDEST PUSH1 0xA DUP2 LT ISZERO PUSH3 0x1DE JUMPI PUSH1 0x40 MLOAD DUP1 PUSH1 0xA0 ADD PUSH1 0x40 MSTORE DUP1 DUP3 DUP2 MSTORE PUSH1 0x20 ADD PUSH1 0x1 PUSH1 0x9 PUSH1 0x7 DUP6 PUSH3 0x7B SWAP2 SWAP1 PUSH3 0x24D JUMP JUMPDEST TIMESTAMP PUSH3 0x88 SWAP2 SWAP1 PUSH3 0x288 JUMP JUMPDEST PUSH3 0x94 SWAP2 SWAP1 PUSH3 0x302 JUMP JUMPDEST PUSH3 0xA0 SWAP2 SWAP1 PUSH3 0x24D JUMP JUMPDEST DUP2 MSTORE PUSH1 0x20 ADD PUSH1 0x2 PUSH1 0x8 PUSH1 0x4 DUP6 PUSH3 0xB8 SWAP2 SWAP1 PUSH3 0x24D JUMP JUMPDEST PREVRANDAO PUSH3 0xC5 SWAP2 SWAP1 PUSH3 0x288 JUMP JUMPDEST PUSH3 0xD1 SWAP2 SWAP1 PUSH3 0x302 JUMP JUMPDEST PUSH3 0xDD SWAP2 SWAP1 PUSH3 0x24D JUMP JUMPDEST DUP2 MSTORE PUSH1 0x20 ADD PUSH1 0x1 ISZERO ISZERO DUP2 MSTORE PUSH1 0x20 ADD PUSH1 0x1 ISZERO ISZERO DUP2 MSTORE POP PUSH1 0x0 DUP1 DUP4 DUP2 MSTORE PUSH1 0x20 ADD SWAP1 DUP2 MSTORE PUSH1 0x20 ADD PUSH1 0x0 KECCAK256 PUSH1 0x0 DUP3 ADD MLOAD DUP2 PUSH1 0x0 ADD SSTORE PUSH1 0x20 DUP3 ADD MLOAD DUP2 PUSH1 0x1 ADD SSTORE PUSH1 0x40 DUP3 ADD MLOAD DUP2 PUSH1 0x2 ADD SSTORE PUSH1 0x60 DUP3 ADD MLOAD DUP2 PUSH1 0x3 ADD PUSH1 0x0 PUSH2 0x100 EXP DUP2 SLOAD DUP2 PUSH1 0xFF MUL NOT AND SWAP1 DUP4 ISZERO ISZERO MUL OR SWAP1 SSTORE POP PUSH1 0x80 DUP3 ADD MLOAD DUP2 PUSH1 0x3 ADD PUSH1 0x1 PUSH2 0x100 EXP DUP2 SLOAD DUP2 PUSH1 0xFF MUL NOT AND SWAP1 DUP4 ISZERO ISZERO MUL OR SWAP1 SSTORE POP SWAP1 POP POP PUSH1 0x5 DUP2 LT ISZERO PUSH3 0x19E JUMPI PUSH1 0x3 DUP2 SWAP1 DUP1 PUSH1 0x1 DUP2 SLOAD ADD DUP1 DUP3 SSTORE DUP1 SWAP2 POP POP PUSH1 0x1 SWAP1 SUB SWAP1 PUSH1 0x0 MSTORE PUSH1 0x20 PUSH1 0x0 KECCAK256 ADD PUSH1 0x0 SWAP1 SWAP2 SWAP1 SWAP2 SWAP1 SWAP2 POP SSTORE PUSH3 0x1C8 JUMP JUMPDEST PUSH1 0x4 DUP2 SWAP1 DUP1 PUSH1 0x1 DUP2 SLOAD ADD DUP1 DUP3 SSTORE DUP1 SWAP2 POP POP PUSH1 0x1 SWAP1 SUB SWAP1 PUSH1 0x0 MSTORE PUSH1 0x20 PUSH1 0x0 KECCAK256 ADD PUSH1 0x0 SWAP1 SWAP2 SWAP1 SWAP2 SWAP1 SWAP2 POP SSTORE JUMPDEST DUP1 DUP1 PUSH3 0x1D5 SWAP1 PUSH3 0x33A JUMP JUMPDEST SWAP2 POP POP PUSH3 0x4D JUMP JUMPDEST POP PUSH3 0x387 JUMP JUMPDEST PUSH32 0x4E487B7100000000000000000000000000000000000000000000000000000000 PUSH1 0x0 MSTORE PUSH1 0x21 PUSH1 0x4 MSTORE PUSH1 0x24 PUSH1 0x0 REVERT JUMPDEST PUSH1 0x0 DUP2 SWAP1 POP SWAP2 SWAP1 POP JUMP JUMPDEST PUSH32 0x4E487B7100000000000000000000000000000000000000000000000000000000 PUSH1 0x0 MSTORE PUSH1 0x11 PUSH1 0x4 MSTORE PUSH1 0x24 PUSH1 0x0 REVERT JUMPDEST PUSH1 0x0 PUSH3 0x25A DUP3 PUSH3 0x214 JUMP JUMPDEST SWAP2 POP PUSH3 0x267 DUP4 PUSH3 0x214 JUMP JUMPDEST SWAP3 POP DUP3 DUP3 ADD SWAP1 POP DUP1 DUP3 GT ISZERO PUSH3 0x282 JUMPI PUSH3 0x281 PUSH3 0x21E JUMP JUMPDEST JUMPDEST SWAP3 SWAP2 POP POP JUMP JUMPDEST PUSH1 0x0 PUSH3 0x295 DUP3 PUSH3 0x214 JUMP JUMPDEST SWAP2 POP PUSH3 0x2A2 DUP4 PUSH3 0x214 JUMP JUMPDEST SWAP3 POP DUP3 DUP3 MUL PUSH3 0x2B2 DUP2 PUSH3 0x214 JUMP JUMPDEST SWAP2 POP DUP3 DUP3 DIV DUP5 EQ DUP4 ISZERO OR PUSH3 0x2CC JUMPI PUSH3 0x2CB PUSH3 0x21E JUMP JUMPDEST JUMPDEST POP SWAP3 SWAP2 POP POP JUMP JUMPDEST PUSH32 0x4E487B7100000000000000000000000000000000000000000000000000000000 PUSH1 0x0 MSTORE PUSH1 0x12 PUSH1 0x4 MSTORE PUSH1 0x24 PUSH1 0x0 REVERT JUMPDEST PUSH1 0x0 PUSH3 0x30F DUP3 PUSH3 0x214 JUMP JUMPDEST SWAP2 POP PUSH3 0x31C DUP4 PUSH3 0x214 JUMP JUMPDEST SWAP3 POP DUP3 PUSH3 0x32F JUMPI PUSH3 0x32E PUSH3 0x2D3 JUMP JUMPDEST JUMPDEST DUP3 DUP3 MOD SWAP1 POP SWAP3 SWAP2 POP POP JUMP JUMPDEST PUSH1 0x0 PUSH3 0x347 DUP3 PUSH3 0x214 JUMP JUMPDEST SWAP2 POP PUSH32 0xFFFFFFFFFFFFFFFFFFFFFFFFFFFFFFFFFFFFFFFFFFFFFFFFFFFFFFFFFFFFFFFF DUP3 SUB PUSH3 0x37C JUMPI PUSH3 0x37B PUSH3 0x21E JUMP JUMPDEST JUMPDEST PUSH1 0x1 DUP3 ADD SWAP1 POP SWAP2 SWAP1 POP JUMP JUMPDEST PUSH2 0x11B2 DUP1 PUSH3 0x397 PUSH1 0x0 CODECOPY PUSH1 0x0 RETURN INVALID PUSH1 0x80 PUSH1 0x40 MSTORE CALLVALUE DUP1 ISZERO PUSH2 0x10 JUMPI PUSH1 0x0 DUP1 REVERT JUMPDEST POP PUSH1 0x4 CALLDATASIZE LT PUSH2 0xCF JUMPI PUSH1 0x0 CALLDATALOAD PUSH1 0xE0 SHR DUP1 PUSH4 0x9394E718 GT PUSH2 0x8C JUMPI DUP1 PUSH4 0xC0A487B8 GT PUSH2 0x66 JUMPI DUP1 PUSH4 0xC0A487B8 EQ PUSH2 0x21C JUMPI DUP1 PUSH4 0xD014C01F EQ PUSH2 0x23A JUMPI DUP1 PUSH4 0xDAAF3D2E EQ PUSH2 0x256 JUMPI DUP1 PUSH4 0xEFB4D32F EQ PUSH2 0x272 JUMPI PUSH2 0xCF JUMP JUMPDEST DUP1 PUSH4 0x9394E718 EQ PUSH2 0x1B0 JUMPI DUP1 PUSH4 0xAB57B8EF EQ PUSH2 0x1E0 JUMPI DUP1 PUSH4 0xBDB337D1 EQ PUSH2 0x1FE JUMPI PUSH2 0xCF JUMP JUMPDEST DUP1 PUSH4 0xE04A7D8 EQ PUSH2 0xD4 JUMPI DUP1 PUSH4 0x21D7F050 EQ PUSH2 0xF2 JUMPI DUP1 PUSH4 0x2F0D3356 EQ PUSH2 0x122 JUMPI DUP1 PUSH4 0x722FED7E EQ PUSH2 0x140 JUMPI DUP1 PUSH4 0x8BC86154 EQ PUSH2 0x15E JUMPI DUP1 PUSH4 0x8DC10768 EQ PUSH2 0x17C JUMPI JUMPDEST PUSH1 0x0 DUP1 REVERT JUMPDEST PUSH2 0xDC PUSH2 0x290 JUMP JUMPDEST PUSH1 0x40 MLOAD PUSH2 0xE9 SWAP2 SWAP1 PUSH2 0xC0A JUMP JUMPDEST PUSH1 0x40 MLOAD DUP1 SWAP2 SUB SWAP1 RETURN JUMPDEST PUSH2 0x10C PUSH1 0x4 DUP1 CALLDATASIZE SUB DUP2 ADD SWAP1 PUSH2 0x107 SWAP2 SWAP1 PUSH2 0xC60 JUMP JUMPDEST PUSH2 0x2A7 JUMP JUMPDEST PUSH1 0x40 MLOAD PUSH2 0x119 SWAP2 SWAP1 PUSH2 0xC9C JUMP JUMPDEST PUSH1 0x40 MLOAD DUP1 SWAP2 SUB SWAP1 RETURN JUMPDEST PUSH2 0x12A PUSH2 0x2CB JUMP JUMPDEST PUSH1 0x40 MLOAD PUSH2 0x137 SWAP2 SWAP1 PUSH2 0xCF8 JUMP JUMPDEST PUSH1 0x40 MLOAD DUP1 SWAP2 SUB SWAP1 RETURN JUMPDEST PUSH2 0x148 PUSH2 0x2F1 JUMP JUMPDEST PUSH1 0x40 MLOAD PUSH2 0x155 SWAP2 SWAP1 PUSH2 0xD8A JUMP JUMPDEST PUSH1 0x40 MLOAD DUP1 SWAP2 SUB SWAP1 RETURN JUMPDEST PUSH2 0x166 PUSH2 0x304 JUMP JUMPDEST PUSH1 0x40 MLOAD PUSH2 0x173 SWAP2 SWAP1 PUSH2 0xCF8 JUMP JUMPDEST PUSH1 0x40 MLOAD DUP1 SWAP2 SUB SWAP1 RETURN JUMPDEST PUSH2 0x196 PUSH1 0x4 DUP1 CALLDATASIZE SUB DUP2 ADD SWAP1 PUSH2 0x191 SWAP2 SWAP1 PUSH2 0xC60 JUMP JUMPDEST PUSH2 0x32A JUMP JUMPDEST PUSH1 0x40 MLOAD PUSH2 0x1A7 SWAP6 SWAP5 SWAP4 SWAP3 SWAP2 SWAP1 PUSH2 0xDA5 JUMP JUMPDEST PUSH1 0x40 MLOAD DUP1 SWAP2 SUB SWAP1 RETURN JUMPDEST PUSH2 0x1CA PUSH1 0x4 DUP1 CALLDATASIZE SUB DUP2 ADD SWAP1 PUSH2 0x1C5 SWAP2 SWAP1 PUSH2 0xC60 JUMP JUMPDEST PUSH2 0x37A JUMP JUMPDEST PUSH1 0x40 MLOAD PUSH2 0x1D7 SWAP2 SWAP1 PUSH2 0xC9C JUMP JUMPDEST PUSH1 0x40 MLOAD DUP1 SWAP2 SUB SWAP1 RETURN JUMPDEST PUSH2 0x1E8 PUSH2 0x39E JUMP JUMPDEST PUSH1 0x40 MLOAD PUSH2 0x1F5 SWAP2 SWAP1 PUSH2 0xC0A JUMP JUMPDEST PUSH1 0x40 MLOAD DUP1 SWAP2 SUB SWAP1 RETURN JUMPDEST PUSH2 0x206 PUSH2 0x3B1 JUMP JUMPDEST PUSH1 0x40 MLOAD PUSH2 0x213 SWAP2 SWAP1 PUSH2 0xC0A JUMP JUMPDEST PUSH1 0x40 MLOAD DUP1 SWAP2 SUB SWAP1 RETURN JUMPDEST PUSH2 0x224 PUSH2 0x3C4 JUMP JUMPDEST PUSH1 0x40 MLOAD PUSH2 0x231 SWAP2 SWAP1 PUSH2 0xC0A JUMP JUMPDEST PUSH1 0x40 MLOAD DUP1 SWAP2 SUB SWAP1 RETURN JUMPDEST PUSH2 0x254 PUSH1 0x4 DUP1 CALLDATASIZE SUB DUP2 ADD SWAP1 PUSH2 0x24F SWAP2 SWAP1 PUSH2 0xE24 JUMP JUMPDEST PUSH2 0x3D7 JUMP JUMPDEST STOP JUMPDEST PUSH2 0x270 PUSH1 0x4 DUP1 CALLDATASIZE SUB DUP2 ADD SWAP1 PUSH2 0x26B SWAP2 SWAP1 PUSH2 0xE51 JUMP JUMPDEST PUSH2 0x5DE JUMP JUMPDEST STOP JUMPDEST PUSH2 0x27A PUSH2 0xBDC JUMP JUMPDEST PUSH1 0x40 MLOAD PUSH2 0x287 SWAP2 SWAP1 PUSH2 0xC0A JUMP JUMPDEST PUSH1 0x40 MLOAD DUP1 SWAP2 SUB SWAP1 RETURN JUMPDEST PUSH1 0x0 PUSH1 0x2 PUSH1 0x17 SWAP1 SLOAD SWAP1 PUSH2 0x100 EXP SWAP1 DIV PUSH1 0xFF AND SWAP1 POP SWAP1 JUMP JUMPDEST PUSH1 0x3 DUP2 DUP2 SLOAD DUP2 LT PUSH2 0x2B7 JUMPI PUSH1 0x0 DUP1 REVERT JUMPDEST SWAP1 PUSH1 0x0 MSTORE PUSH1 0x20 PUSH1 0x0 KECCAK256 ADD PUSH1 0x0 SWAP2 POP SWAP1 POP SLOAD DUP2 JUMP JUMPDEST PUSH1 0x1 PUSH1 0x0 SWAP1 SLOAD SWAP1 PUSH2 0x100 EXP SWAP1 DIV PUSH20 0xFFFFFFFFFFFFFFFFFFFFFFFFFFFFFFFFFFFFFFFF AND DUP2 JUMP JUMPDEST PUSH1 0x2 PUSH1 0x18 SWAP1 SLOAD SWAP1 PUSH2 0x100 EXP SWAP1 DIV PUSH1 0xFF AND DUP2 JUMP JUMPDEST PUSH1 0x2 PUSH1 0x0 SWAP1 SLOAD SWAP1 PUSH2 0x100 EXP SWAP1 DIV PUSH20 0xFFFFFFFFFFFFFFFFFFFFFFFFFFFFFFFFFFFFFFFF AND DUP2 JUMP JUMPDEST PUSH1 0x0 PUSH1 0x20 MSTORE DUP1 PUSH1 0x0 MSTORE PUSH1 0x40 PUSH1 0x0 KECCAK256 PUSH1 0x0 SWAP2 POP SWAP1 POP DUP1 PUSH1 0x0 ADD SLOAD SWAP1 DUP1 PUSH1 0x1 ADD SLOAD SWAP1 DUP1 PUSH1 0x2 ADD SLOAD SWAP1 DUP1 PUSH1 0x3 ADD PUSH1 0x0 SWAP1 SLOAD SWAP1 PUSH2 0x100 EXP SWAP1 DIV PUSH1 0xFF AND SWAP1 DUP1 PUSH1 0x3 ADD PUSH1 0x1 SWAP1 SLOAD SWAP1 PUSH2 0x100 EXP SWAP1 DIV PUSH1 0xFF AND SWAP1 POP DUP6 JUMP JUMPDEST PUSH1 0x4 DUP2 DUP2 SLOAD DUP2 LT PUSH2 0x38A JUMPI PUSH1 0x0 DUP1 REVERT JUMPDEST SWAP1 PUSH1 0x0 MSTORE PUSH1 0x20 PUSH1 0x0 KECCAK256 ADD PUSH1 0x0 SWAP2 POP SWAP1 POP SLOAD DUP2 JUMP JUMPDEST PUSH1 0x2 PUSH1 0x16 SWAP1 SLOAD SWAP1 PUSH2 0x100 EXP SWAP1 DIV PUSH1 0xFF AND DUP2 JUMP JUMPDEST PUSH1 0x2 PUSH1 0x17 SWAP1 SLOAD SWAP1 PUSH2 0x100 EXP SWAP1 DIV PUSH1 0xFF AND DUP2 JUMP JUMPDEST PUSH1 0x2 PUSH1 0x14 SWAP1 SLOAD SWAP1 PUSH2 0x100 EXP SWAP1 DIV PUSH1 0xFF AND DUP2 JUMP JUMPDEST PUSH1 0x2 PUSH1 0x17 SWAP1 SLOAD SWAP1 PUSH2 0x100 EXP SWAP1 DIV PUSH1 0xFF AND ISZERO PUSH2 0x427 JUMPI PUSH1 0x40 MLOAD PUSH32 0x8C379A000000000000000000000000000000000000000000000000000000000 DUP2 MSTORE PUSH1 0x4 ADD PUSH2 0x41E SWAP1 PUSH2 0xF01 JUMP JUMPDEST PUSH1 0x40 MLOAD DUP1 SWAP2 SUB SWAP1 REVERT JUMPDEST PUSH1 0x0 PUSH1 0x2 DUP2 GT ISZERO PUSH2 0x43B JUMPI PUSH2 0x43A PUSH2 0xD13 JUMP JUMPDEST JUMPDEST PUSH1 0x2 PUSH1 0x18 SWAP1 SLOAD SWAP1 PUSH2 0x100 EXP SWAP1 DIV PUSH1 0xFF AND PUSH1 0x2 DUP2 GT ISZERO PUSH2 0x45D JUMPI PUSH2 0x45C PUSH2 0xD13 JUMP JUMPDEST JUMPDEST EQ PUSH2 0x49D JUMPI PUSH1 0x40 MLOAD PUSH32 0x8C379A000000000000000000000000000000000000000000000000000000000 DUP2 MSTORE PUSH1 0x4 ADD PUSH2 0x494 SWAP1 PUSH2 0xF6D JUMP JUMPDEST PUSH1 0x40 MLOAD DUP1 SWAP2 SUB SWAP1 REVERT JUMPDEST PUSH1 0x2 PUSH1 0x14 SWAP1 SLOAD SWAP1 PUSH2 0x100 EXP SWAP1 DIV PUSH1 0xFF AND PUSH2 0x512 JUMPI DUP1 PUSH1 0x1 PUSH1 0x0 PUSH2 0x100 EXP DUP2 SLOAD DUP2 PUSH20 0xFFFFFFFFFFFFFFFFFFFFFFFFFFFFFFFFFFFFFFFF MUL NOT AND SWAP1 DUP4 PUSH20 0xFFFFFFFFFFFFFFFFFFFFFFFFFFFFFFFFFFFFFFFF AND MUL OR SWAP1 SSTORE POP PUSH1 0x1 PUSH1 0x2 PUSH1 0x14 PUSH2 0x100 EXP DUP2 SLOAD DUP2 PUSH1 0xFF MUL NOT AND SWAP1 DUP4 ISZERO ISZERO MUL OR SWAP1 SSTORE POP PUSH2 0x5DB JUMP JUMPDEST PUSH1 0x2 PUSH1 0x15 SWAP1 SLOAD SWAP1 PUSH2 0x100 EXP SWAP1 DIV PUSH1 0xFF AND PUSH2 0x5DA JUMPI DUP1 PUSH1 0x2 PUSH1 0x0 PUSH2 0x100 EXP DUP2 SLOAD DUP2 PUSH20 0xFFFFFFFFFFFFFFFFFFFFFFFFFFFFFFFFFFFFFFFF MUL NOT AND SWAP1 DUP4 PUSH20 0xFFFFFFFFFFFFFFFFFFFFFFFFFFFFFFFFFFFFFFFF AND MUL OR SWAP1 SSTORE POP PUSH1 0x1 PUSH1 0x2 PUSH1 0x15 PUSH2 0x100 EXP DUP2 SLOAD DUP2 PUSH1 0xFF MUL NOT AND SWAP1 DUP4 ISZERO ISZERO MUL OR SWAP1 SSTORE POP PUSH1 0x1 PUSH1 0x2 PUSH1 0x18 PUSH2 0x100 EXP DUP2 SLOAD DUP2 PUSH1 0xFF MUL NOT AND SWAP1 DUP4 PUSH1 0x2 DUP2 GT ISZERO PUSH2 0x5A8 JUMPI PUSH2 0x5A7 PUSH2 0xD13 JUMP JUMPDEST JUMPDEST MUL OR SWAP1 SSTORE POP PUSH32 0x762F260439BB4BE3EF6E4DC2786E2E7BD187D3D80B79057D7A424FE98563E335 PUSH1 0x40 MLOAD PUSH1 0x40 MLOAD DUP1 SWAP2 SUB SWAP1 LOG1 JUMPDEST JUMPDEST POP JUMP JUMPDEST PUSH1 0x0 PUSH1 0x2 DUP2 GT ISZERO PUSH2 0x5F2 JUMPI PUSH2 0x5F1 PUSH2 0xD13 JUMP JUMPDEST JUMPDEST PUSH1 0x2 PUSH1 0x18 SWAP1 SLOAD SWAP1 PUSH2 0x100 EXP SWAP1 DIV PUSH1 0xFF AND PUSH1 0x2 DUP2 GT ISZERO PUSH2 0x614 JUMPI PUSH2 0x613 PUSH2 0xD13 JUMP JUMPDEST JUMPDEST SUB PUSH2 0x654 JUMPI PUSH1 0x40 MLOAD PUSH32 0x8C379A000000000000000000000000000000000000000000000000000000000 DUP2 MSTORE PUSH1 0x4 ADD PUSH2 0x64B SWAP1 PUSH2 0xFD9 JUMP JUMPDEST PUSH1 0x40 MLOAD DUP1 SWAP2 SUB SWAP1 REVERT JUMPDEST PUSH1 0x2 PUSH1 0x17 SWAP1 SLOAD SWAP1 PUSH2 0x100 EXP SWAP1 DIV PUSH1 0xFF AND ISZERO PUSH2 0x6A4 JUMPI PUSH1 0x40 MLOAD PUSH32 0x8C379A000000000000000000000000000000000000000000000000000000000 DUP2 MSTORE PUSH1 0x4 ADD PUSH2 0x69B SWAP1 PUSH2 0xF01 JUMP JUMPDEST PUSH1 0x40 MLOAD DUP1 SWAP2 SUB SWAP1 REVERT JUMPDEST PUSH1 0x1 PUSH1 0x0 SWAP1 SLOAD SWAP1 PUSH2 0x100 EXP SWAP1 DIV PUSH20 0xFFFFFFFFFFFFFFFFFFFFFFFFFFFFFFFFFFFFFFFF AND PUSH20 0xFFFFFFFFFFFFFFFFFFFFFFFFFFFFFFFFFFFFFFFF AND DUP2 PUSH20 0xFFFFFFFFFFFFFFFFFFFFFFFFFFFFFFFFFFFFFFFF AND EQ DUP1 ISZERO PUSH2 0x70E JUMPI POP PUSH1 0x2 PUSH1 0x16 SWAP1 SLOAD SWAP1 PUSH2 0x100 EXP SWAP1 DIV PUSH1 0xFF AND ISZERO JUMPDEST DUP1 PUSH2 0x77E JUMPI POP PUSH1 0x2 PUSH1 0x0 SWAP1 SLOAD SWAP1 PUSH2 0x100 EXP SWAP1 DIV PUSH20 0xFFFFFFFFFFFFFFFFFFFFFFFFFFFFFFFFFFFFFFFF AND PUSH20 0xFFFFFFFFFFFFFFFFFFFFFFFFFFFFFFFFFFFFFFFF AND DUP2 PUSH20 0xFFFFFFFFFFFFFFFFFFFFFFFFFFFFFFFFFFFFFFFF AND EQ DUP1 ISZERO PUSH2 0x77D JUMPI POP PUSH1 0x2 PUSH1 0x16 SWAP1 SLOAD SWAP1 PUSH2 0x100 EXP SWAP1 DIV PUSH1 0xFF AND JUMPDEST JUMPDEST PUSH2 0x7BD JUMPI PUSH1 0x40 MLOAD PUSH32 0x8C379A000000000000000000000000000000000000000000000000000000000 DUP2 MSTORE PUSH1 0x4 ADD PUSH2 0x7B4 SWAP1 PUSH2 0x1045 JUMP JUMPDEST PUSH1 0x40 MLOAD DUP1 SWAP2 SUB SWAP1 REVERT JUMPDEST PUSH1 0x0 DUP1 DUP4 DUP2 MSTORE PUSH1 0x20 ADD SWAP1 DUP2 MSTORE PUSH1 0x20 ADD PUSH1 0x0 KECCAK256 PUSH1 0x3 ADD PUSH1 0x0 SWAP1 SLOAD SWAP1 PUSH2 0x100 EXP SWAP1 DIV PUSH1 0xFF AND PUSH2 0x81F JUMPI PUSH1 0x40 MLOAD PUSH32 0x8C379A000000000000000000000000000000000000000000000000000000000 DUP2 MSTORE PUSH1 0x4 ADD PUSH2 0x816 SWAP1 PUSH2 0x10B1 JUMP JUMPDEST PUSH1 0x40 MLOAD DUP1 SWAP2 SUB SWAP1 REVERT JUMPDEST PUSH1 0x0 DUP1 DUP5 DUP2 MSTORE PUSH1 0x20 ADD SWAP1 DUP2 MSTORE PUSH1 0x20 ADD PUSH1 0x0 KECCAK256 PUSH1 0x3 ADD PUSH1 0x0 SWAP1 SLOAD SWAP1 PUSH2 0x100 EXP SWAP1 DIV PUSH1 0xFF AND PUSH2 0x881 JUMPI PUSH1 0x40 MLOAD PUSH32 0x8C379A000000000000000000000000000000000000000000000000000000000 DUP2 MSTORE PUSH1 0x4 ADD PUSH2 0x878 SWAP1 PUSH2 0x10B1 JUMP JUMPDEST PUSH1 0x40 MLOAD DUP1 SWAP2 SUB SWAP1 REVERT JUMPDEST PUSH1 0x0 DUP1 DUP5 DUP2 MSTORE PUSH1 0x20 ADD SWAP1 DUP2 MSTORE PUSH1 0x20 ADD PUSH1 0x0 KECCAK256 PUSH1 0x1 ADD SLOAD PUSH1 0x0 DUP1 DUP5 DUP2 MSTORE PUSH1 0x20 ADD SWAP1 DUP2 MSTORE PUSH1 0x20 ADD PUSH1 0x0 KECCAK256 PUSH1 0x2 ADD SLOAD GT PUSH2 0xB6B JUMPI PUSH1 0x0 DUP1 PUSH1 0x0 DUP5 DUP2 MSTORE PUSH1 0x20 ADD SWAP1 DUP2 MSTORE PUSH1 0x20 ADD PUSH1 0x0 KECCAK256 PUSH1 0x3 ADD PUSH1 0x0 PUSH2 0x100 EXP DUP2 SLOAD DUP2 PUSH1 0xFF MUL NOT AND SWAP1 DUP4 ISZERO ISZERO MUL OR SWAP1 SSTORE POP DUP1 PUSH20 0xFFFFFFFFFFFFFFFFFFFFFFFFFFFFFFFFFFFFFFFF AND PUSH1 0x1 PUSH1 0x0 SWAP1 SLOAD SWAP1 PUSH2 0x100 EXP SWAP1 DIV PUSH20 0xFFFFFFFFFFFFFFFFFFFFFFFFFFFFFFFFFFFFFFFF AND PUSH20 0xFFFFFFFFFFFFFFFFFFFFFFFFFFFFFFFFFFFFFFFF AND SUB PUSH2 0x94E JUMPI PUSH1 0x5 PUSH1 0x0 DUP2 SLOAD DUP1 SWAP3 SWAP2 SWAP1 PUSH2 0x948 SWAP1 PUSH2 0x1100 JUMP JUMPDEST SWAP2 SWAP1 POP SSTORE POP JUMPDEST DUP1 PUSH20 0xFFFFFFFFFFFFFFFFFFFFFFFFFFFFFFFFFFFFFFFF AND PUSH1 0x2 PUSH1 0x0 SWAP1 SLOAD SWAP1 PUSH2 0x100 EXP SWAP1 DIV PUSH20 0xFFFFFFFFFFFFFFFFFFFFFFFFFFFFFFFFFFFFFFFF AND PUSH20 0xFFFFFFFFFFFFFFFFFFFFFFFFFFFFFFFFFFFFFFFF AND SUB PUSH2 0x9BC JUMPI PUSH1 0x6 PUSH1 0x0 DUP2 SLOAD DUP1 SWAP3 SWAP2 SWAP1 PUSH2 0x9B6 SWAP1 PUSH2 0x1100 JUMP JUMPDEST SWAP2 SWAP1 POP SSTORE POP JUMPDEST PUSH1 0x5 DUP1 SLOAD SUB PUSH2 0xA92 JUMPI PUSH1 0x2 PUSH1 0x0 SWAP1 SLOAD SWAP1 PUSH2 0x100 EXP SWAP1 DIV PUSH20 0xFFFFFFFFFFFFFFFFFFFFFFFFFFFFFFFFFFFFFFFF AND PUSH1 0x7 PUSH1 0x0 PUSH2 0x100 EXP DUP2 SLOAD DUP2 PUSH20 0xFFFFFFFFFFFFFFFFFFFFFFFFFFFFFFFFFFFFFFFF MUL NOT AND SWAP1 DUP4 PUSH20 0xFFFFFFFFFFFFFFFFFFFFFFFFFFFFFFFFFFFFFFFF AND MUL OR SWAP1 SSTORE POP PUSH1 0x7 PUSH1 0x0 SWAP1 SLOAD SWAP1 PUSH2 0x100 EXP SWAP1 DIV PUSH20 0xFFFFFFFFFFFFFFFFFFFFFFFFFFFFFFFFFFFFFFFF AND PUSH20 0xFFFFFFFFFFFFFFFFFFFFFFFFFFFFFFFFFFFFFFFF AND PUSH32 0xBBCA850EF098F4A3CE49A0770CA2E6E176215B97D03B6EA812DFD3586C1A6DAD PUSH1 0x40 MLOAD PUSH1 0x40 MLOAD DUP1 SWAP2 SUB SWAP1 LOG2 PUSH2 0xB66 JUMP JUMPDEST PUSH1 0x5 PUSH1 0x6 SLOAD SUB PUSH2 0xB65 JUMPI PUSH1 0x1 PUSH1 0x0 SWAP1 SLOAD SWAP1 PUSH2 0x100 EXP SWAP1 DIV PUSH20 0xFFFFFFFFFFFFFFFFFFFFFFFFFFFFFFFFFFFFFFFF AND PUSH1 0x7 PUSH1 0x0 PUSH2 0x100 EXP DUP2 SLOAD DUP2 PUSH20 0xFFFFFFFFFFFFFFFFFFFFFFFFFFFFFFFFFFFFFFFF MUL NOT AND SWAP1 DUP4 PUSH20 0xFFFFFFFFFFFFFFFFFFFFFFFFFFFFFFFFFFFFFFFF AND MUL OR SWAP1 SSTORE POP PUSH1 0x7 PUSH1 0x0 SWAP1 SLOAD SWAP1 PUSH2 0x100 EXP SWAP1 DIV PUSH20 0xFFFFFFFFFFFFFFFFFFFFFFFFFFFFFFFFFFFFFFFF AND PUSH20 0xFFFFFFFFFFFFFFFFFFFFFFFFFFFFFFFFFFFFFFFF AND PUSH32 0xBBCA850EF098F4A3CE49A0770CA2E6E176215B97D03B6EA812DFD3586C1A6DAD PUSH1 0x40 MLOAD PUSH1 0x40 MLOAD DUP1 SWAP2 SUB SWAP1 LOG2 JUMPDEST JUMPDEST PUSH2 0xBAD JUMP JUMPDEST PUSH1 0x0 DUP1 DUP5 DUP2 MSTORE PUSH1 0x20 ADD SWAP1 DUP2 MSTORE PUSH1 0x20 ADD PUSH1 0x0 KECCAK256 PUSH1 0x1 ADD SLOAD PUSH1 0x0 DUP1 DUP5 DUP2 MSTORE PUSH1 0x20 ADD SWAP1 DUP2 MSTORE PUSH1 0x20 ADD PUSH1 0x0 KECCAK256 PUSH1 0x2 ADD PUSH1 0x0 DUP3 DUP3 SLOAD PUSH2 0xBA5 SWAP2 SWAP1 PUSH2 0x1148 JUMP JUMPDEST SWAP3 POP POP DUP2 SWAP1 SSTORE POP JUMPDEST PUSH1 0x2 PUSH1 0x16 SWAP1 SLOAD SWAP1 PUSH2 0x100 EXP SWAP1 DIV PUSH1 0xFF AND ISZERO PUSH1 0x2 PUSH1 0x16 PUSH2 0x100 EXP DUP2 SLOAD DUP2 PUSH1 0xFF MUL NOT AND SWAP1 DUP4 ISZERO ISZERO MUL OR SWAP1 SSTORE POP POP POP POP JUMP JUMPDEST PUSH1 0x2 PUSH1 0x15 SWAP1 SLOAD SWAP1 PUSH2 0x100 EXP SWAP1 DIV PUSH1 0xFF AND DUP2 JUMP JUMPDEST PUSH1 0x0 DUP2 ISZERO ISZERO SWAP1 POP SWAP2 SWAP1 POP JUMP JUMPDEST PUSH2 0xC04 DUP2 PUSH2 0xBEF JUMP JUMPDEST DUP3 MSTORE POP POP JUMP JUMPDEST PUSH1 0x0 PUSH1 0x20 DUP3 ADD SWAP1 POP PUSH2 0xC1F PUSH1 0x0 DUP4 ADD DUP5 PUSH2 0xBFB JUMP JUMPDEST SWAP3 SWAP2 POP POP JUMP JUMPDEST PUSH1 0x0 DUP1 REVERT JUMPDEST PUSH1 0x0 DUP2 SWAP1 POP SWAP2 SWAP1 POP JUMP JUMPDEST PUSH2 0xC3D DUP2 PUSH2 0xC2A JUMP JUMPDEST DUP2 EQ PUSH2 0xC48 JUMPI PUSH1 0x0 DUP1 REVERT JUMPDEST POP JUMP JUMPDEST PUSH1 0x0 DUP2 CALLDATALOAD SWAP1 POP PUSH2 0xC5A DUP2 PUSH2 0xC34 JUMP JUMPDEST SWAP3 SWAP2 POP POP JUMP JUMPDEST PUSH1 0x0 PUSH1 0x20 DUP3 DUP5 SUB SLT ISZERO PUSH2 0xC76 JUMPI PUSH2 0xC75 PUSH2 0xC25 JUMP JUMPDEST JUMPDEST PUSH1 0x0 PUSH2 0xC84 DUP5 DUP3 DUP6 ADD PUSH2 0xC4B JUMP JUMPDEST SWAP2 POP POP SWAP3 SWAP2 POP POP JUMP JUMPDEST PUSH2 0xC96 DUP2 PUSH2 0xC2A JUMP JUMPDEST DUP3 MSTORE POP POP JUMP JUMPDEST PUSH1 0x0 PUSH1 0x20 DUP3 ADD SWAP1 POP PUSH2 0xCB1 PUSH1 0x0 DUP4 ADD DUP5 PUSH2 0xC8D JUMP JUMPDEST SWAP3 SWAP2 POP POP JUMP JUMPDEST PUSH1 0x0 PUSH20 0xFFFFFFFFFFFFFFFFFFFFFFFFFFFFFFFFFFFFFFFF DUP3 AND SWAP1 POP SWAP2 SWAP1 POP JUMP JUMPDEST PUSH1 0x0 PUSH2 0xCE2 DUP3 PUSH2 0xCB7 JUMP JUMPDEST SWAP1 POP SWAP2 SWAP1 POP JUMP JUMPDEST PUSH2 0xCF2 DUP2 PUSH2 0xCD7 JUMP JUMPDEST DUP3 MSTORE POP POP JUMP JUMPDEST PUSH1 0x0 PUSH1 0x20 DUP3 ADD SWAP1 POP PUSH2 0xD0D PUSH1 0x0 DUP4 ADD DUP5 PUSH2 0xCE9 JUMP JUMPDEST SWAP3 SWAP2 POP POP JUMP JUMPDEST PUSH32 0x4E487B7100000000000000000000000000000000000000000000000000000000 PUSH1 0x0 MSTORE PUSH1 0x21 PUSH1 0x4 MSTORE PUSH1 0x24 PUSH1 0x0 REVERT JUMPDEST PUSH1 0x3 DUP2 LT PUSH2 0xD53 JUMPI PUSH2 0xD52 PUSH2 0xD13 JUMP JUMPDEST JUMPDEST POP JUMP JUMPDEST PUSH1 0x0 DUP2 SWAP1 POP PUSH2 0xD64 DUP3 PUSH2 0xD42 JUMP JUMPDEST SWAP2 SWAP1 POP JUMP JUMPDEST PUSH1 0x0 PUSH2 0xD74 DUP3 PUSH2 0xD56 JUMP JUMPDEST SWAP1 POP SWAP2 SWAP1 POP JUMP JUMPDEST PUSH2 0xD84 DUP2 PUSH2 0xD69 JUMP JUMPDEST DUP3 MSTORE POP POP JUMP JUMPDEST PUSH1 0x0 PUSH1 0x20 DUP3 ADD SWAP1 POP PUSH2 0xD9F PUSH1 0x0 DUP4 ADD DUP5 PUSH2 0xD7B JUMP JUMPDEST SWAP3 SWAP2 POP POP JUMP JUMPDEST PUSH1 0x0 PUSH1 0xA0 DUP3 ADD SWAP1 POP PUSH2 0xDBA PUSH1 0x0 DUP4 ADD DUP9 PUSH2 0xC8D JUMP JUMPDEST PUSH2 0xDC7 PUSH1 0x20 DUP4 ADD DUP8 PUSH2 0xC8D JUMP JUMPDEST PUSH2 0xDD4 PUSH1 0x40 DUP4 ADD DUP7 PUSH2 0xC8D JUMP JUMPDEST PUSH2 0xDE1 PUSH1 0x60 DUP4 ADD DUP6 PUSH2 0xBFB JUMP JUMPDEST PUSH2 0xDEE PUSH1 0x80 DUP4 ADD DUP5 PUSH2 0xBFB JUMP JUMPDEST SWAP7 SWAP6 POP POP POP POP POP POP JUMP JUMPDEST PUSH2 0xE01 DUP2 PUSH2 0xCD7 JUMP JUMPDEST DUP2 EQ PUSH2 0xE0C JUMPI PUSH1 0x0 DUP1 REVERT JUMPDEST POP JUMP JUMPDEST PUSH1 0x0 DUP2 CALLDATALOAD SWAP1 POP PUSH2 0xE1E DUP2 PUSH2 0xDF8 JUMP JUMPDEST SWAP3 SWAP2 POP POP JUMP JUMPDEST PUSH1 0x0 PUSH1 0x20 DUP3 DUP5 SUB SLT ISZERO PUSH2 0xE3A JUMPI PUSH2 0xE39 PUSH2 0xC25 JUMP JUMPDEST JUMPDEST PUSH1 0x0 PUSH2 0xE48 DUP5 DUP3 DUP6 ADD PUSH2 0xE0F JUMP JUMPDEST SWAP2 POP POP SWAP3 SWAP2 POP POP JUMP JUMPDEST PUSH1 0x0 DUP1 PUSH1 0x0 PUSH1 0x60 DUP5 DUP7 SUB SLT ISZERO PUSH2 0xE6A JUMPI PUSH2 0xE69 PUSH2 0xC25 JUMP JUMPDEST JUMPDEST PUSH1 0x0 PUSH2 0xE78 DUP7 DUP3 DUP8 ADD PUSH2 0xC4B JUMP JUMPDEST SWAP4 POP POP PUSH1 0x20 PUSH2 0xE89 DUP7 DUP3 DUP8 ADD PUSH2 0xC4B JUMP JUMPDEST SWAP3 POP POP PUSH1 0x40 PUSH2 0xE9A DUP7 DUP3 DUP8 ADD PUSH2 0xE0F JUMP JUMPDEST SWAP2 POP POP SWAP3 POP SWAP3 POP SWAP3 JUMP JUMPDEST PUSH1 0x0 DUP3 DUP3 MSTORE PUSH1 0x20 DUP3 ADD SWAP1 POP SWAP3 SWAP2 POP POP JUMP JUMPDEST PUSH32 0x67616D65206F7665720000000000000000000000000000000000000000000000 PUSH1 0x0 DUP3 ADD MSTORE POP JUMP JUMPDEST PUSH1 0x0 PUSH2 0xEEB PUSH1 0x9 DUP4 PUSH2 0xEA4 JUMP JUMPDEST SWAP2 POP PUSH2 0xEF6 DUP3 PUSH2 0xEB5 JUMP JUMPDEST PUSH1 0x20 DUP3 ADD SWAP1 POP SWAP2 SWAP1 POP JUMP JUMPDEST PUSH1 0x0 PUSH1 0x20 DUP3 ADD SWAP1 POP DUP2 DUP2 SUB PUSH1 0x0 DUP4 ADD MSTORE PUSH2 0xF1A DUP2 PUSH2 0xEDE JUMP JUMPDEST SWAP1 POP SWAP2 SWAP1 POP JUMP JUMPDEST PUSH32 0x47616D6520616C72656164792073746172746564210000000000000000000000 PUSH1 0x0 DUP3 ADD MSTORE POP JUMP JUMPDEST PUSH1 0x0 PUSH2 0xF57 PUSH1 0x15 DUP4 PUSH2 0xEA4 JUMP JUMPDEST SWAP2 POP PUSH2 0xF62 DUP3 PUSH2 0xF21 JUMP JUMPDEST PUSH1 0x20 DUP3 ADD SWAP1 POP SWAP2 SWAP1 POP JUMP JUMPDEST PUSH1 0x0 PUSH1 0x20 DUP3 ADD SWAP1 POP DUP2 DUP2 SUB PUSH1 0x0 DUP4 ADD MSTORE PUSH2 0xF86 DUP2 PUSH2 0xF4A JUMP JUMPDEST SWAP1 POP SWAP2 SWAP1 POP JUMP JUMPDEST PUSH32 0x47616D6520686173206E6F742073746172746564207965742100000000000000 PUSH1 0x0 DUP3 ADD MSTORE POP JUMP JUMPDEST PUSH1 0x0 PUSH2 0xFC3 PUSH1 0x19 DUP4 PUSH2 0xEA4 JUMP JUMPDEST SWAP2 POP PUSH2 0xFCE DUP3 PUSH2 0xF8D JUMP JUMPDEST PUSH1 0x20 DUP3 ADD SWAP1 POP SWAP2 SWAP1 POP JUMP JUMPDEST PUSH1 0x0 PUSH1 0x20 DUP3 ADD SWAP1 POP DUP2 DUP2 SUB PUSH1 0x0 DUP4 ADD MSTORE PUSH2 0xFF2 DUP2 PUSH2 0xFB6 JUMP JUMPDEST SWAP1 POP SWAP2 SWAP1 POP JUMP JUMPDEST PUSH32 0x4E6F7420796F7572207475726E00000000000000000000000000000000000000 PUSH1 0x0 DUP3 ADD MSTORE POP JUMP JUMPDEST PUSH1 0x0 PUSH2 0x102F PUSH1 0xD DUP4 PUSH2 0xEA4 JUMP JUMPDEST SWAP2 POP PUSH2 0x103A DUP3 PUSH2 0xFF9 JUMP JUMPDEST PUSH1 0x20 DUP3 ADD SWAP1 POP SWAP2 SWAP1 POP JUMP JUMPDEST PUSH1 0x0 PUSH1 0x20 DUP3 ADD SWAP1 POP DUP2 DUP2 SUB PUSH1 0x0 DUP4 ADD MSTORE PUSH2 0x105E DUP2 PUSH2 0x1022 JUMP JUMPDEST SWAP1 POP SWAP2 SWAP1 POP JUMP JUMPDEST PUSH32 0x546869732063617264206973206E6F7420616C69766500000000000000000000 PUSH1 0x0 DUP3 ADD MSTORE POP JUMP JUMPDEST PUSH1 0x0 PUSH2 0x109B PUSH1 0x16 DUP4 PUSH2 0xEA4 JUMP JUMPDEST SWAP2 POP PUSH2 0x10A6 DUP3 PUSH2 0x1065 JUMP JUMPDEST PUSH1 0x20 DUP3 ADD SWAP1 POP SWAP2 SWAP1 POP JUMP JUMPDEST PUSH1 0x0 PUSH1 0x20 DUP3 ADD SWAP1 POP DUP2 DUP2 SUB PUSH1 0x0 DUP4 ADD MSTORE PUSH2 0x10CA DUP2 PUSH2 0x108E JUMP JUMPDEST SWAP1 POP SWAP2 SWAP1 POP JUMP JUMPDEST PUSH32 0x4E487B7100000000000000000000000000000000000000000000000000000000 PUSH1 0x0 MSTORE PUSH1 0x11 PUSH1 0x4 MSTORE PUSH1 0x24 PUSH1 0x0 REVERT JUMPDEST PUSH1 0x0 PUSH2 0x110B DUP3 PUSH2 0xC2A JUMP JUMPDEST SWAP2 POP PUSH32 0xFFFFFFFFFFFFFFFFFFFFFFFFFFFFFFFFFFFFFFFFFFFFFFFFFFFFFFFFFFFFFFFF DUP3 SUB PUSH2 0x113D JUMPI PUSH2 0x113C PUSH2 0x10D1 JUMP JUMPDEST JUMPDEST PUSH1 0x1 DUP3 ADD SWAP1 POP SWAP2 SWAP1 POP JUMP JUMPDEST PUSH1 0x0 PUSH2 0x1153 DUP3 PUSH2 0xC2A JUMP JUMPDEST SWAP2 POP PUSH2 0x115E DUP4 PUSH2 0xC2A JUMP JUMPDEST SWAP3 POP DUP3 DUP3 SUB SWAP1 POP DUP2 DUP2 GT ISZERO PUSH2 0x1176 JUMPI PUSH2 0x1175 PUSH2 0x10D1 JUMP JUMPDEST JUMPDEST SWAP3 SWAP2 POP POP JUMP INVALID LOG2 PUSH5 0x6970667358 0x22 SLT KECCAK256 PUSH20 0x202432DF098F3D968C2342EB4A3178BAF984E8C5 DUP15 LOG0 SELFBALANCE 0xEE CALLER 0xDD 0xB9 JUMP 0xDE 0xD7 CALLCODE PUSH5 0x736F6C6343 STOP ADDMOD SLT STOP CALLER "},"gasEstimates":{"creation":{"codeDepositCost":"906000","executionCost":"infinite","totalCost":"infinite"},"external":{"attack(uint256,uint256,address)":"infinite","cards(uint256)":"infinite","enter(address)":"83071","gameOver()":"2588","gameStatus()":"2677","isGameOver()":"2530","user1Address()":"2559","user1Cards(uint256)":"infinite","user1IsEntered()":"2543","user2Address()":"2603","user2Cards(uint256)":"infinite","user2IsEntered()":"2609","whoseTurn()":"2566"}},"methodIdentifiers":{"attack(uint256,uint256,address)":"daaf3d2e","cards(uint256)":"8dc10768","enter(address)":"d014c01f","gameOver()":"bdb337d1","gameStatus()":"722fed7e","isGameOver()":"0e04a7d8","user1Address()":"2f0d3356","user1Cards(uint256)":"21d7f050","user1IsEntered()":"c0a487b8","user2Address()":"8bc86154","user2Cards(uint256)":"9394e718","user2IsEntered()":"efb4d32f","whoseTurn()":"ab57b8ef"}},"storageLayout":{"storage":[{"astId":21,"contract":"contracts/GameContract.sol:CardGame","label":"cards","offset":0,"slot":"0","type":"t_mapping(t_uint256,t_struct(Card)12_storage)"},{"astId":95,"contract":"contracts/GameContract.sol:CardGame","label":"user1Address","offset":0,"slot":"1","type":"t_address"},{"astId":97,"contract":"contracts/GameContract.sol:CardGame","label":"user2Address","offset":0,"slot":"2","type":"t_address"},{"astId":99,"contract":"contracts/GameContract.sol:CardGame","label":"user1IsEntered","offset":20,"slot":"2","type":"t_bool"},{"astId":101,"contract":"contracts/GameContract.sol:CardGame","label":"user2IsEntered","offset":21,"slot":"2","type":"t_bool"},{"astId":103,"contract":"contracts/GameContract.sol:CardGame","label":"whoseTurn","offset":22,"slot":"2","type":"t_bool"},{"astId":105,"contract":"contracts/GameContract.sol:CardGame","label":"gameOver","offset":23,"slot":"2","type":"t_bool"},{"astId":110,"contract":"contracts/GameContract.sol:CardGame","label":"gameStatus","offset":24,"slot":"2","type":"t_enum(GameStatus)16"},{"astId":113,"contract":"contracts/GameContract.sol:CardGame","label":"user1Cards","offset":0,"slot":"3","type":"t_array(t_uint256)dyn_storage"},{"astId":116,"contract":"contracts/GameContract.sol:CardGame","label":"user2Cards","offset":0,"slot":"4","type":"t_array(t_uint256)dyn_storage"},{"astId":119,"contract":"contracts/GameContract.sol:CardGame","label":"user1DeadCardCount","offset":0,"slot":"5","type":"t_uint256"},{"astId":122,"contract":"contracts/GameContract.sol:CardGame","label":"user2DeadCardCount","offset":0,"slot":"6","type":"t_uint256"},{"astId":124,"contract":"contracts/GameContract.sol:CardGame","label":"winner","offset":0,"slot":"7","type":"t_address"}],"types":{"t_address":{"encoding":"inplace","label":"address","numberOfBytes":"20"},"t_array(t_uint256)dyn_storage":{"base":"t_uint256","encoding":"dynamic_array","label":"uint256[]","numberOfBytes":"32"},"t_bool":{"encoding":"inplace","label":"bool","numberOfBytes":"1"},"t_enum(GameStatus)16":{"encoding":"inplace","label":"enum CardGame.GameStatus","numberOfBytes":"1"},"t_mapping(t_uint256,t_struct(Card)12_storage)":{"encoding":"mapping","key":"t_uint256","label":"mapping(uint256 => struct CardGame.Card)","numberOfBytes":"32","value":"t_struct(Card)12_storage"},"t_struct(Card)12_storage":{"encoding":"inplace","label":"struct CardGame.Card","members":[{"astId":3,"contract":"contracts/GameContract.sol:CardGame","label":"id","offset":0,"slot":"0","type":"t_uint256"},{"astId":5,"contract":"contracts/GameContract.sol:CardGame","label":"power","offset":0,"slot":"1","type":"t_uint256"},{"astId":7,"contract":"contracts/GameContract.sol:CardGame","label":"health","offset":0,"slot":"2","type":"t_uint256"},{"astId":9,"contract":"contracts/GameContract.sol:CardGame","label":"isAlive","offset":0,"slot":"3","type":"t_bool"},{"astId":11,"contract":"contracts/GameContract.sol:CardGame","label":"isTaken","offset":1,"slot":"3","type":"t_bool"}],"numberOfBytes":"128"},"t_uint256":{"encoding":"inplace","label":"uint256","numberOfBytes":"32"}}},"userdoc":{"kind":"user","methods":{},"version":1}}}}