{"contracts/GameContract.sol":{"CardGame":{"abi":[{"inputs":[],"stateMutability":"nonpayable","type":"constructor"},{"anonymous":false,"inputs":[{"indexed":true,"internalType":"address","name":"attacker","type":"address"},{"indexed":true,"internalType":"address","name":"defender","type":"address"},{"indexed":false,"internalType":"uint256","name":"attackerCardId","type":"uint256"},{"indexed":false,"internalType":"uint256","name":"defenderCardId","type":"uint256"},{"indexed":false,"internalType":"uint256","name":"damage","type":"uint256"}],"name":"Attack","type":"event"},{"anonymous":false,"inputs":[{"indexed":true,"internalType":"uint256","name":"cardId","type":"uint256"},{"indexed":true,"internalType":"address","name":"player","type":"address"}],"name":"CardChosen","type":"event"},{"anonymous":false,"inputs":[{"indexed":true,"internalType":"address","name":"winner","type":"address"}],"name":"GameOvered","type":"event"},{"anonymous":false,"inputs":[],"name":"GameStarted","type":"event"},{"inputs":[{"internalType":"uint256","name":"attackerId","type":"uint256"},{"internalType":"uint256","name":"defenderId","type":"uint256"},{"internalType":"address","name":"attacker","type":"address"}],"name":"attack","outputs":[],"stateMutability":"nonpayable","type":"function"},{"inputs":[{"internalType":"uint256","name":"","type":"uint256"}],"name":"cards","outputs":[{"internalType":"uint256","name":"id","type":"uint256"},{"internalType":"uint256","name":"power","type":"uint256"},{"internalType":"uint256","name":"health","type":"uint256"},{"internalType":"bool","name":"isAlive","type":"bool"},{"internalType":"bool","name":"isTaken","type":"bool"}],"stateMutability":"view","type":"function"},{"inputs":[{"internalType":"address","name":"player","type":"address"}],"name":"enter","outputs":[],"stateMutability":"nonpayable","type":"function"},{"inputs":[],"name":"gameOver","outputs":[{"internalType":"bool","name":"","type":"bool"}],"stateMutability":"view","type":"function"},{"inputs":[],"name":"gameStatus","outputs":[{"internalType":"enum CardGame.GameStatus","name":"","type":"uint8"}],"stateMutability":"view","type":"function"},{"inputs":[],"name":"getAllCardList","outputs":[{"components":[{"internalType":"uint256","name":"id","type":"uint256"},{"internalType":"uint256","name":"power","type":"uint256"},{"internalType":"uint256","name":"health","type":"uint256"},{"internalType":"bool","name":"isAlive","type":"bool"},{"internalType":"bool","name":"isTaken","type":"bool"},{"internalType":"address","name":"player","type":"address"}],"internalType":"struct CardGame.CardExtended[]","name":"","type":"tuple[]"}],"stateMutability":"view","type":"function"},{"inputs":[],"name":"isGameOver","outputs":[{"internalType":"bool","name":"","type":"bool"}],"stateMutability":"view","type":"function"},{"inputs":[],"name":"user1Address","outputs":[{"internalType":"address","name":"","type":"address"}],"stateMutability":"view","type":"function"},{"inputs":[{"internalType":"uint256","name":"","type":"uint256"}],"name":"user1Cards","outputs":[{"internalType":"uint256","name":"","type":"uint256"}],"stateMutability":"view","type":"function"},{"inputs":[],"name":"user1IsEntered","outputs":[{"internalType":"bool","name":"","type":"bool"}],"stateMutability":"view","type":"function"},{"inputs":[],"name":"user2Address","outputs":[{"internalType":"address","name":"","type":"address"}],"stateMutability":"view","type":"function"},{"inputs":[{"internalType":"uint256","name":"","type":"uint256"}],"name":"user2Cards","outputs":[{"internalType":"uint256","name":"","type":"uint256"}],"stateMutability":"view","type":"function"},{"inputs":[],"name":"user2IsEntered","outputs":[{"internalType":"bool","name":"","type":"bool"}],"stateMutability":"view","type":"function"},{"inputs":[],"name":"whoseTurn","outputs":[{"internalType":"bool","name":"","type":"bool"}],"stateMutability":"view","type":"function"}],"devdoc":{"kind":"dev","methods":{},"version":1},"evm":{"bytecode":{"linkReferences":{},"object":"60806040526000600260186101000a81548160ff021916908360028111156200002d576200002c620001e5565b5b0217905550600060055560006006553480156200004957600080fd5b5060005b600a811015620001de576040518060a00160405280828152602001600160096007856200007b91906200024d565b4262000088919062000288565b62000094919062000302565b620000a091906200024d565b815260200160026008600485620000b891906200024d565b44620000c5919062000288565b620000d1919062000302565b620000dd91906200024d565b81526020016001151581526020016001151581525060008083815260200190815260200160002060008201518160000155602082015181600101556040820151816002015560608201518160030160006101000a81548160ff02191690831515021790555060808201518160030160016101000a81548160ff02191690831515021790555090505060058110156200019e576003819080600181540180825580915050600190039060005260206000200160009091909190915055620001c8565b60048190806001815401808255809150506001900390600052602060002001600090919091909150555b8080620001d5906200033a565b9150506200004d565b5062000387565b7f4e487b7100000000000000000000000000000000000000000000000000000000600052602160045260246000fd5b6000819050919050565b7f4e487b7100000000000000000000000000000000000000000000000000000000600052601160045260246000fd5b60006200025a8262000214565b9150620002678362000214565b92508282019050808211156200028257620002816200021e565b5b92915050565b6000620002958262000214565b9150620002a28362000214565b9250828202620002b28162000214565b91508282048414831517620002cc57620002cb6200021e565b5b5092915050565b7f4e487b7100000000000000000000000000000000000000000000000000000000600052601260045260246000fd5b60006200030f8262000214565b91506200031c8362000214565b9250826200032f576200032e620002d3565b5b828206905092915050565b6000620003478262000214565b91507fffffffffffffffffffffffffffffffffffffffffffffffffffffffffffffffff82036200037c576200037b6200021e565b5b600182019050919050565b6115cf80620003976000396000f3fe608060405234801561001057600080fd5b50600436106100ea5760003560e01c80639394e7181161008c578063c0a487b811610066578063c0a487b814610255578063d014c01f14610273578063daaf3d2e1461028f578063efb4d32f146102ab576100ea565b80639394e718146101e9578063ab57b8ef14610219578063bdb337d114610237576100ea565b80632f0d3356116100c85780632f0d33561461015b578063722fed7e146101795780638bc86154146101975780638dc10768146101b5576100ea565b806301943ace146100ef5780630e04a7d81461010d57806321d7f0501461012b575b600080fd5b6100f76102c9565b6040516101049190610fd4565b60405180910390f35b610115610486565b6040516101229190611005565b60405180910390f35b61014560048036038101906101409190611051565b61049d565b604051610152919061108d565b60405180910390f35b6101636104c1565b60405161017091906110b7565b60405180910390f35b6101816104e7565b60405161018e9190611149565b60405180910390f35b61019f6104fa565b6040516101ac91906110b7565b60405180910390f35b6101cf60048036038101906101ca9190611051565b610520565b6040516101e0959493929190611164565b60405180910390f35b61020360048036038101906101fe9190611051565b610570565b604051610210919061108d565b60405180910390f35b610221610594565b60405161022e9190611005565b60405180910390f35b61023f6105a7565b60405161024c9190611005565b60405180910390f35b61025d6105ba565b60405161026a9190611005565b60405180910390f35b61028d600480360381019061028891906111e3565b6105cd565b005b6102a960048036038101906102a49190611210565b6107d4565b005b6102b3610dd2565b6040516102c09190611005565b60405180910390f35b60606000600a67ffffffffffffffff8111156102e8576102e7611263565b5b60405190808252806020026020018201604052801561032157816020015b61030e610de5565b8152602001906001900390816103065790505b50905060005b600a81101561047e576040518060c0016040528060008084815260200190815260200160002060000154815260200160008084815260200190815260200160002060010154815260200160008084815260200190815260200160002060020154815260200160008084815260200190815260200160002060030160009054906101000a900460ff161515815260200160008084815260200190815260200160002060030160019054906101000a900460ff16151581526020016005831061041057600260009054906101000a900473ffffffffffffffffffffffffffffffffffffffff16610434565b600160009054906101000a900473ffffffffffffffffffffffffffffffffffffffff165b73ffffffffffffffffffffffffffffffffffffffff168152508282815181106104605761045f611292565b5b60200260200101819052508080610476906112f0565b915050610327565b508091505090565b6000600260179054906101000a900460ff16905090565b600381815481106104ad57600080fd5b906000526020600020016000915090505481565b600160009054906101000a900473ffffffffffffffffffffffffffffffffffffffff1681565b600260189054906101000a900460ff1681565b600260009054906101000a900473ffffffffffffffffffffffffffffffffffffffff1681565b60006020528060005260406000206000915090508060000154908060010154908060020154908060030160009054906101000a900460ff16908060030160019054906101000a900460ff16905085565b6004818154811061058057600080fd5b906000526020600020016000915090505481565b600260169054906101000a900460ff1681565b600260179054906101000a900460ff1681565b600260149054906101000a900460ff1681565b600260179054906101000a900460ff161561061d576040517f08c379a000000000000000000000000000000000000000000000000000000000815260040161061490611395565b60405180910390fd5b60006002811115610631576106306110d2565b5b600260189054906101000a900460ff166002811115610653576106526110d2565b5b14610693576040517f08c379a000000000000000000000000000000000000000000000000000000000815260040161068a90611401565b60405180910390fd5b600260149054906101000a900460ff166107085780600160006101000a81548173ffffffffffffffffffffffffffffffffffffffff021916908373ffffffffffffffffffffffffffffffffffffffff1602179055506001600260146101000a81548160ff0219169083151502179055506107d1565b600260159054906101000a900460ff166107d05780600260006101000a81548173ffffffffffffffffffffffffffffffffffffffff021916908373ffffffffffffffffffffffffffffffffffffffff1602179055506001600260156101000a81548160ff0219169083151502179055506001600260186101000a81548160ff0219169083600281111561079e5761079d6110d2565b5b02179055507f762f260439bb4be3ef6e4dc2786e2e7bd187d3d80b79057d7a424fe98563e33560405160405180910390a15b5b50565b600060028111156107e8576107e76110d2565b5b600260189054906101000a900460ff16600281111561080a576108096110d2565b5b0361084a576040517f08c379a00000000000000000000000000000000000000000000000000000000081526004016108419061146d565b60405180910390fd5b600260179054906101000a900460ff161561089a576040517f08c379a000000000000000000000000000000000000000000000000000000000815260040161089190611395565b60405180910390fd5b600160009054906101000a900473ffffffffffffffffffffffffffffffffffffffff1673ffffffffffffffffffffffffffffffffffffffff168173ffffffffffffffffffffffffffffffffffffffff161480156109045750600260169054906101000a900460ff16155b806109745750600260009054906101000a900473ffffffffffffffffffffffffffffffffffffffff1673ffffffffffffffffffffffffffffffffffffffff168173ffffffffffffffffffffffffffffffffffffffff161480156109735750600260169054906101000a900460ff165b5b6109b3576040517f08c379a00000000000000000000000000000000000000000000000000000000081526004016109aa906114d9565b60405180910390fd5b60008083815260200190815260200160002060030160009054906101000a900460ff16610a15576040517f08c379a0000000000000000000000000000000000000000000000000000000008152600401610a0c90611545565b60405180910390fd5b60008084815260200190815260200160002060030160009054906101000a900460ff16610a77576040517f08c379a0000000000000000000000000000000000000000000000000000000008152600401610a6e90611545565b60405180910390fd5b600080848152602001908152602001600020600101546000808481526020019081526020016000206002015411610d6157600080600084815260200190815260200160002060030160006101000a81548160ff0219169083151502179055508073ffffffffffffffffffffffffffffffffffffffff16600160009054906101000a900473ffffffffffffffffffffffffffffffffffffffff1673ffffffffffffffffffffffffffffffffffffffff1603610b445760056000815480929190610b3e906112f0565b91905055505b8073ffffffffffffffffffffffffffffffffffffffff16600260009054906101000a900473ffffffffffffffffffffffffffffffffffffffff1673ffffffffffffffffffffffffffffffffffffffff1603610bb25760066000815480929190610bac906112f0565b91905055505b6005805403610c8857600260009054906101000a900473ffffffffffffffffffffffffffffffffffffffff16600760006101000a81548173ffffffffffffffffffffffffffffffffffffffff021916908373ffffffffffffffffffffffffffffffffffffffff160217905550600760009054906101000a900473ffffffffffffffffffffffffffffffffffffffff1673ffffffffffffffffffffffffffffffffffffffff167fbbca850ef098f4a3ce49a0770ca2e6e176215b97d03b6ea812dfd3586c1a6dad60405160405180910390a2610d5c565b600560065403610d5b57600160009054906101000a900473ffffffffffffffffffffffffffffffffffffffff16600760006101000a81548173ffffffffffffffffffffffffffffffffffffffff021916908373ffffffffffffffffffffffffffffffffffffffff160217905550600760009054906101000a900473ffffffffffffffffffffffffffffffffffffffff1673ffffffffffffffffffffffffffffffffffffffff167fbbca850ef098f4a3ce49a0770ca2e6e176215b97d03b6ea812dfd3586c1a6dad60405160405180910390a25b5b610da3565b600080848152602001908152602001600020600101546000808481526020019081526020016000206002016000828254610d9b9190611565565b925050819055505b600260169054906101000a900460ff1615600260166101000a81548160ff021916908315150217905550505050565b600260159054906101000a900460ff1681565b6040518060c00160405280600081526020016000815260200160008152602001600015158152602001600015158152602001600073ffffffffffffffffffffffffffffffffffffffff1681525090565b600081519050919050565b600082825260208201905092915050565b6000819050602082019050919050565b6000819050919050565b610e7481610e61565b82525050565b60008115159050919050565b610e8f81610e7a565b82525050565b600073ffffffffffffffffffffffffffffffffffffffff82169050919050565b6000610ec082610e95565b9050919050565b610ed081610eb5565b82525050565b60c082016000820151610eec6000850182610e6b565b506020820151610eff6020850182610e6b565b506040820151610f126040850182610e6b565b506060820151610f256060850182610e86565b506080820151610f386080850182610e86565b5060a0820151610f4b60a0850182610ec7565b50505050565b6000610f5d8383610ed6565b60c08301905092915050565b6000602082019050919050565b6000610f8182610e35565b610f8b8185610e40565b9350610f9683610e51565b8060005b83811015610fc7578151610fae8882610f51565b9750610fb983610f69565b925050600181019050610f9a565b5085935050505092915050565b60006020820190508181036000830152610fee8184610f76565b905092915050565b610fff81610e7a565b82525050565b600060208201905061101a6000830184610ff6565b92915050565b600080fd5b61102e81610e61565b811461103957600080fd5b50565b60008135905061104b81611025565b92915050565b60006020828403121561106757611066611020565b5b60006110758482850161103c565b91505092915050565b61108781610e61565b82525050565b60006020820190506110a2600083018461107e565b92915050565b6110b181610eb5565b82525050565b60006020820190506110cc60008301846110a8565b92915050565b7f4e487b7100000000000000000000000000000000000000000000000000000000600052602160045260246000fd5b60038110611112576111116110d2565b5b50565b600081905061112382611101565b919050565b600061113382611115565b9050919050565b61114381611128565b82525050565b600060208201905061115e600083018461113a565b92915050565b600060a082019050611179600083018861107e565b611186602083018761107e565b611193604083018661107e565b6111a06060830185610ff6565b6111ad6080830184610ff6565b9695505050505050565b6111c081610eb5565b81146111cb57600080fd5b50565b6000813590506111dd816111b7565b92915050565b6000602082840312156111f9576111f8611020565b5b6000611207848285016111ce565b91505092915050565b60008060006060848603121561122957611228611020565b5b60006112378682870161103c565b93505060206112488682870161103c565b9250506040611259868287016111ce565b9150509250925092565b7f4e487b7100000000000000000000000000000000000000000000000000000000600052604160045260246000fd5b7f4e487b7100000000000000000000000000000000000000000000000000000000600052603260045260246000fd5b7f4e487b7100000000000000000000000000000000000000000000000000000000600052601160045260246000fd5b60006112fb82610e61565b91507fffffffffffffffffffffffffffffffffffffffffffffffffffffffffffffffff820361132d5761132c6112c1565b5b600182019050919050565b600082825260208201905092915050565b7f67616d65206f7665720000000000000000000000000000000000000000000000600082015250565b600061137f600983611338565b915061138a82611349565b602082019050919050565b600060208201905081810360008301526113ae81611372565b9050919050565b7f47616d6520616c72656164792073746172746564210000000000000000000000600082015250565b60006113eb601583611338565b91506113f6826113b5565b602082019050919050565b6000602082019050818103600083015261141a816113de565b9050919050565b7f47616d6520686173206e6f742073746172746564207965742100000000000000600082015250565b6000611457601983611338565b915061146282611421565b602082019050919050565b600060208201905081810360008301526114868161144a565b9050919050565b7f4e6f7420796f7572207475726e00000000000000000000000000000000000000600082015250565b60006114c3600d83611338565b91506114ce8261148d565b602082019050919050565b600060208201905081810360008301526114f2816114b6565b9050919050565b7f546869732063617264206973206e6f7420616c69766500000000000000000000600082015250565b600061152f601683611338565b915061153a826114f9565b602082019050919050565b6000602082019050818103600083015261155e81611522565b9050919050565b600061157082610e61565b915061157b83610e61565b9250828203905081811115611593576115926112c1565b5b9291505056fea26469706673582212209624af92f3b506a91b85295ae6fccce8aa4aeaf9f3c8e6441cf373fab0f70a8964736f6c63430008120033","opcodes":"PUSH1 0x80 PUSH1 0x40 MSTORE PUSH1 0x0 PUSH1 0x2 PUSH1 0x18 PUSH2 0x100 EXP DUP2 SLOAD DUP2 PUSH1 0xFF MUL NOT AND SWAP1 DUP4 PUSH1 0x2 DUP2 GT ISZERO PUSH3 0x2D JUMPI PUSH3 0x2C PUSH3 0x1E5 JUMP JUMPDEST JUMPDEST MUL OR SWAP1 SSTORE POP PUSH1 0x0 PUSH1 0x5 SSTORE PUSH1 0x0 PUSH1 0x6 SSTORE CALLVALUE DUP1 ISZERO PUSH3 0x49 JUMPI PUSH1 0x0 DUP1 REVERT JUMPDEST POP PUSH1 0x0 JUMPDEST PUSH1 0xA DUP2 LT ISZERO PUSH3 0x1DE JUMPI PUSH1 0x40 MLOAD DUP1 PUSH1 0xA0 ADD PUSH1 0x40 MSTORE DUP1 DUP3 DUP2 MSTORE PUSH1 0x20 ADD PUSH1 0x1 PUSH1 0x9 PUSH1 0x7 DUP6 PUSH3 0x7B SWAP2 SWAP1 PUSH3 0x24D JUMP JUMPDEST TIMESTAMP PUSH3 0x88 SWAP2 SWAP1 PUSH3 0x288 JUMP JUMPDEST PUSH3 0x94 SWAP2 SWAP1 PUSH3 0x302 JUMP JUMPDEST PUSH3 0xA0 SWAP2 SWAP1 PUSH3 0x24D JUMP JUMPDEST DUP2 MSTORE PUSH1 0x20 ADD PUSH1 0x2 PUSH1 0x8 PUSH1 0x4 DUP6 PUSH3 0xB8 SWAP2 SWAP1 PUSH3 0x24D JUMP JUMPDEST PREVRANDAO PUSH3 0xC5 SWAP2 SWAP1 PUSH3 0x288 JUMP JUMPDEST PUSH3 0xD1 SWAP2 SWAP1 PUSH3 0x302 JUMP JUMPDEST PUSH3 0xDD SWAP2 SWAP1 PUSH3 0x24D JUMP JUMPDEST DUP2 MSTORE PUSH1 0x20 ADD PUSH1 0x1 ISZERO ISZERO DUP2 MSTORE PUSH1 0x20 ADD PUSH1 0x1 ISZERO ISZERO DUP2 MSTORE POP PUSH1 0x0 DUP1 DUP4 DUP2 MSTORE PUSH1 0x20 ADD SWAP1 DUP2 MSTORE PUSH1 0x20 ADD PUSH1 0x0 KECCAK256 PUSH1 0x0 DUP3 ADD MLOAD DUP2 PUSH1 0x0 ADD SSTORE PUSH1 0x20 DUP3 ADD MLOAD DUP2 PUSH1 0x1 ADD SSTORE PUSH1 0x40 DUP3 ADD MLOAD DUP2 PUSH1 0x2 ADD SSTORE PUSH1 0x60 DUP3 ADD MLOAD DUP2 PUSH1 0x3 ADD PUSH1 0x0 PUSH2 0x100 EXP DUP2 SLOAD DUP2 PUSH1 0xFF MUL NOT AND SWAP1 DUP4 ISZERO ISZERO MUL OR SWAP1 SSTORE POP PUSH1 0x80 DUP3 ADD MLOAD DUP2 PUSH1 0x3 ADD PUSH1 0x1 PUSH2 0x100 EXP DUP2 SLOAD DUP2 PUSH1 0xFF MUL NOT AND SWAP1 DUP4 ISZERO ISZERO MUL OR SWAP1 SSTORE POP SWAP1 POP POP PUSH1 0x5 DUP2 LT ISZERO PUSH3 0x19E JUMPI PUSH1 0x3 DUP2 SWAP1 DUP1 PUSH1 0x1 DUP2 SLOAD ADD DUP1 DUP3 SSTORE DUP1 SWAP2 POP POP PUSH1 0x1 SWAP1 SUB SWAP1 PUSH1 0x0 MSTORE PUSH1 0x20 PUSH1 0x0 KECCAK256 ADD PUSH1 0x0 SWAP1 SWAP2 SWAP1 SWAP2 SWAP1 SWAP2 POP SSTORE PUSH3 0x1C8 JUMP JUMPDEST PUSH1 0x4 DUP2 SWAP1 DUP1 PUSH1 0x1 DUP2 SLOAD ADD DUP1 DUP3 SSTORE DUP1 SWAP2 POP POP PUSH1 0x1 SWAP1 SUB SWAP1 PUSH1 0x0 MSTORE PUSH1 0x20 PUSH1 0x0 KECCAK256 ADD PUSH1 0x0 SWAP1 SWAP2 SWAP1 SWAP2 SWAP1 SWAP2 POP SSTORE JUMPDEST DUP1 DUP1 PUSH3 0x1D5 SWAP1 PUSH3 0x33A JUMP JUMPDEST SWAP2 POP POP PUSH3 0x4D JUMP JUMPDEST POP PUSH3 0x387 JUMP JUMPDEST PUSH32 0x4E487B7100000000000000000000000000000000000000000000000000000000 PUSH1 0x0 MSTORE PUSH1 0x21 PUSH1 0x4 MSTORE PUSH1 0x24 PUSH1 0x0 REVERT JUMPDEST PUSH1 0x0 DUP2 SWAP1 POP SWAP2 SWAP1 POP JUMP JUMPDEST PUSH32 0x4E487B7100000000000000000000000000000000000000000000000000000000 PUSH1 0x0 MSTORE PUSH1 0x11 PUSH1 0x4 MSTORE PUSH1 0x24 PUSH1 0x0 REVERT JUMPDEST PUSH1 0x0 PUSH3 0x25A DUP3 PUSH3 0x214 JUMP JUMPDEST SWAP2 POP PUSH3 0x267 DUP4 PUSH3 0x214 JUMP JUMPDEST SWAP3 POP DUP3 DUP3 ADD SWAP1 POP DUP1 DUP3 GT ISZERO PUSH3 0x282 JUMPI PUSH3 0x281 PUSH3 0x21E JUMP JUMPDEST JUMPDEST SWAP3 SWAP2 POP POP JUMP JUMPDEST PUSH1 0x0 PUSH3 0x295 DUP3 PUSH3 0x214 JUMP JUMPDEST SWAP2 POP PUSH3 0x2A2 DUP4 PUSH3 0x214 JUMP JUMPDEST SWAP3 POP DUP3 DUP3 MUL PUSH3 0x2B2 DUP2 PUSH3 0x214 JUMP JUMPDEST SWAP2 POP DUP3 DUP3 DIV DUP5 EQ DUP4 ISZERO OR PUSH3 0x2CC JUMPI PUSH3 0x2CB PUSH3 0x21E JUMP JUMPDEST JUMPDEST POP SWAP3 SWAP2 POP POP JUMP JUMPDEST PUSH32 0x4E487B7100000000000000000000000000000000000000000000000000000000 PUSH1 0x0 MSTORE PUSH1 0x12 PUSH1 0x4 MSTORE PUSH1 0x24 PUSH1 0x0 REVERT JUMPDEST PUSH1 0x0 PUSH3 0x30F DUP3 PUSH3 0x214 JUMP JUMPDEST SWAP2 POP PUSH3 0x31C DUP4 PUSH3 0x214 JUMP JUMPDEST SWAP3 POP DUP3 PUSH3 0x32F JUMPI PUSH3 0x32E PUSH3 0x2D3 JUMP JUMPDEST JUMPDEST DUP3 DUP3 MOD SWAP1 POP SWAP3 SWAP2 POP POP JUMP JUMPDEST PUSH1 0x0 PUSH3 0x347 DUP3 PUSH3 0x214 JUMP JUMPDEST SWAP2 POP PUSH32 0xFFFFFFFFFFFFFFFFFFFFFFFFFFFFFFFFFFFFFFFFFFFFFFFFFFFFFFFFFFFFFFFF DUP3 SUB PUSH3 0x37C JUMPI PUSH3 0x37B PUSH3 0x21E JUMP JUMPDEST JUMPDEST PUSH1 0x1 DUP3 ADD SWAP1 POP SWAP2 SWAP1 POP JUMP JUMPDEST PUSH2 0x15CF DUP1 PUSH3 0x397 PUSH1 0x0 CODECOPY PUSH1 0x0 RETURN INVALID PUSH1 0x80 PUSH1 0x40 MSTORE CALLVALUE DUP1 ISZERO PUSH2 0x10 JUMPI PUSH1 0x0 DUP1 REVERT JUMPDEST POP PUSH1 0x4 CALLDATASIZE LT PUSH2 0xEA JUMPI PUSH1 0x0 CALLDATALOAD PUSH1 0xE0 SHR DUP1 PUSH4 0x9394E718 GT PUSH2 0x8C JUMPI DUP1 PUSH4 0xC0A487B8 GT PUSH2 0x66 JUMPI DUP1 PUSH4 0xC0A487B8 EQ PUSH2 0x255 JUMPI DUP1 PUSH4 0xD014C01F EQ PUSH2 0x273 JUMPI DUP1 PUSH4 0xDAAF3D2E EQ PUSH2 0x28F JUMPI DUP1 PUSH4 0xEFB4D32F EQ PUSH2 0x2AB JUMPI PUSH2 0xEA JUMP JUMPDEST DUP1 PUSH4 0x9394E718 EQ PUSH2 0x1E9 JUMPI DUP1 PUSH4 0xAB57B8EF EQ PUSH2 0x219 JUMPI DUP1 PUSH4 0xBDB337D1 EQ PUSH2 0x237 JUMPI PUSH2 0xEA JUMP JUMPDEST DUP1 PUSH4 0x2F0D3356 GT PUSH2 0xC8 JUMPI DUP1 PUSH4 0x2F0D3356 EQ PUSH2 0x15B JUMPI DUP1 PUSH4 0x722FED7E EQ PUSH2 0x179 JUMPI DUP1 PUSH4 0x8BC86154 EQ PUSH2 0x197 JUMPI DUP1 PUSH4 0x8DC10768 EQ PUSH2 0x1B5 JUMPI PUSH2 0xEA JUMP JUMPDEST DUP1 PUSH4 0x1943ACE EQ PUSH2 0xEF JUMPI DUP1 PUSH4 0xE04A7D8 EQ PUSH2 0x10D JUMPI DUP1 PUSH4 0x21D7F050 EQ PUSH2 0x12B JUMPI JUMPDEST PUSH1 0x0 DUP1 REVERT JUMPDEST PUSH2 0xF7 PUSH2 0x2C9 JUMP JUMPDEST PUSH1 0x40 MLOAD PUSH2 0x104 SWAP2 SWAP1 PUSH2 0xFD4 JUMP JUMPDEST PUSH1 0x40 MLOAD DUP1 SWAP2 SUB SWAP1 RETURN JUMPDEST PUSH2 0x115 PUSH2 0x486 JUMP JUMPDEST PUSH1 0x40 MLOAD PUSH2 0x122 SWAP2 SWAP1 PUSH2 0x1005 JUMP JUMPDEST PUSH1 0x40 MLOAD DUP1 SWAP2 SUB SWAP1 RETURN JUMPDEST PUSH2 0x145 PUSH1 0x4 DUP1 CALLDATASIZE SUB DUP2 ADD SWAP1 PUSH2 0x140 SWAP2 SWAP1 PUSH2 0x1051 JUMP JUMPDEST PUSH2 0x49D JUMP JUMPDEST PUSH1 0x40 MLOAD PUSH2 0x152 SWAP2 SWAP1 PUSH2 0x108D JUMP JUMPDEST PUSH1 0x40 MLOAD DUP1 SWAP2 SUB SWAP1 RETURN JUMPDEST PUSH2 0x163 PUSH2 0x4C1 JUMP JUMPDEST PUSH1 0x40 MLOAD PUSH2 0x170 SWAP2 SWAP1 PUSH2 0x10B7 JUMP JUMPDEST PUSH1 0x40 MLOAD DUP1 SWAP2 SUB SWAP1 RETURN JUMPDEST PUSH2 0x181 PUSH2 0x4E7 JUMP JUMPDEST PUSH1 0x40 MLOAD PUSH2 0x18E SWAP2 SWAP1 PUSH2 0x1149 JUMP JUMPDEST PUSH1 0x40 MLOAD DUP1 SWAP2 SUB SWAP1 RETURN JUMPDEST PUSH2 0x19F PUSH2 0x4FA JUMP JUMPDEST PUSH1 0x40 MLOAD PUSH2 0x1AC SWAP2 SWAP1 PUSH2 0x10B7 JUMP JUMPDEST PUSH1 0x40 MLOAD DUP1 SWAP2 SUB SWAP1 RETURN JUMPDEST PUSH2 0x1CF PUSH1 0x4 DUP1 CALLDATASIZE SUB DUP2 ADD SWAP1 PUSH2 0x1CA SWAP2 SWAP1 PUSH2 0x1051 JUMP JUMPDEST PUSH2 0x520 JUMP JUMPDEST PUSH1 0x40 MLOAD PUSH2 0x1E0 SWAP6 SWAP5 SWAP4 SWAP3 SWAP2 SWAP1 PUSH2 0x1164 JUMP JUMPDEST PUSH1 0x40 MLOAD DUP1 SWAP2 SUB SWAP1 RETURN JUMPDEST PUSH2 0x203 PUSH1 0x4 DUP1 CALLDATASIZE SUB DUP2 ADD SWAP1 PUSH2 0x1FE SWAP2 SWAP1 PUSH2 0x1051 JUMP JUMPDEST PUSH2 0x570 JUMP JUMPDEST PUSH1 0x40 MLOAD PUSH2 0x210 SWAP2 SWAP1 PUSH2 0x108D JUMP JUMPDEST PUSH1 0x40 MLOAD DUP1 SWAP2 SUB SWAP1 RETURN JUMPDEST PUSH2 0x221 PUSH2 0x594 JUMP JUMPDEST PUSH1 0x40 MLOAD PUSH2 0x22E SWAP2 SWAP1 PUSH2 0x1005 JUMP JUMPDEST PUSH1 0x40 MLOAD DUP1 SWAP2 SUB SWAP1 RETURN JUMPDEST PUSH2 0x23F PUSH2 0x5A7 JUMP JUMPDEST PUSH1 0x40 MLOAD PUSH2 0x24C SWAP2 SWAP1 PUSH2 0x1005 JUMP JUMPDEST PUSH1 0x40 MLOAD DUP1 SWAP2 SUB SWAP1 RETURN JUMPDEST PUSH2 0x25D PUSH2 0x5BA JUMP JUMPDEST PUSH1 0x40 MLOAD PUSH2 0x26A SWAP2 SWAP1 PUSH2 0x1005 JUMP JUMPDEST PUSH1 0x40 MLOAD DUP1 SWAP2 SUB SWAP1 RETURN JUMPDEST PUSH2 0x28D PUSH1 0x4 DUP1 CALLDATASIZE SUB DUP2 ADD SWAP1 PUSH2 0x288 SWAP2 SWAP1 PUSH2 0x11E3 JUMP JUMPDEST PUSH2 0x5CD JUMP JUMPDEST STOP JUMPDEST PUSH2 0x2A9 PUSH1 0x4 DUP1 CALLDATASIZE SUB DUP2 ADD SWAP1 PUSH2 0x2A4 SWAP2 SWAP1 PUSH2 0x1210 JUMP JUMPDEST PUSH2 0x7D4 JUMP JUMPDEST STOP JUMPDEST PUSH2 0x2B3 PUSH2 0xDD2 JUMP JUMPDEST PUSH1 0x40 MLOAD PUSH2 0x2C0 SWAP2 SWAP1 PUSH2 0x1005 JUMP JUMPDEST PUSH1 0x40 MLOAD DUP1 SWAP2 SUB SWAP1 RETURN JUMPDEST PUSH1 0x60 PUSH1 0x0 PUSH1 0xA PUSH8 0xFFFFFFFFFFFFFFFF DUP2 GT ISZERO PUSH2 0x2E8 JUMPI PUSH2 0x2E7 PUSH2 0x1263 JUMP JUMPDEST JUMPDEST PUSH1 0x40 MLOAD SWAP1 DUP1 DUP3 MSTORE DUP1 PUSH1 0x20 MUL PUSH1 0x20 ADD DUP3 ADD PUSH1 0x40 MSTORE DUP1 ISZERO PUSH2 0x321 JUMPI DUP2 PUSH1 0x20 ADD JUMPDEST PUSH2 0x30E PUSH2 0xDE5 JUMP JUMPDEST DUP2 MSTORE PUSH1 0x20 ADD SWAP1 PUSH1 0x1 SWAP1 SUB SWAP1 DUP2 PUSH2 0x306 JUMPI SWAP1 POP JUMPDEST POP SWAP1 POP PUSH1 0x0 JUMPDEST PUSH1 0xA DUP2 LT ISZERO PUSH2 0x47E JUMPI PUSH1 0x40 MLOAD DUP1 PUSH1 0xC0 ADD PUSH1 0x40 MSTORE DUP1 PUSH1 0x0 DUP1 DUP5 DUP2 MSTORE PUSH1 0x20 ADD SWAP1 DUP2 MSTORE PUSH1 0x20 ADD PUSH1 0x0 KECCAK256 PUSH1 0x0 ADD SLOAD DUP2 MSTORE PUSH1 0x20 ADD PUSH1 0x0 DUP1 DUP5 DUP2 MSTORE PUSH1 0x20 ADD SWAP1 DUP2 MSTORE PUSH1 0x20 ADD PUSH1 0x0 KECCAK256 PUSH1 0x1 ADD SLOAD DUP2 MSTORE PUSH1 0x20 ADD PUSH1 0x0 DUP1 DUP5 DUP2 MSTORE PUSH1 0x20 ADD SWAP1 DUP2 MSTORE PUSH1 0x20 ADD PUSH1 0x0 KECCAK256 PUSH1 0x2 ADD SLOAD DUP2 MSTORE PUSH1 0x20 ADD PUSH1 0x0 DUP1 DUP5 DUP2 MSTORE PUSH1 0x20 ADD SWAP1 DUP2 MSTORE PUSH1 0x20 ADD PUSH1 0x0 KECCAK256 PUSH1 0x3 ADD PUSH1 0x0 SWAP1 SLOAD SWAP1 PUSH2 0x100 EXP SWAP1 DIV PUSH1 0xFF AND ISZERO ISZERO DUP2 MSTORE PUSH1 0x20 ADD PUSH1 0x0 DUP1 DUP5 DUP2 MSTORE PUSH1 0x20 ADD SWAP1 DUP2 MSTORE PUSH1 0x20 ADD PUSH1 0x0 KECCAK256 PUSH1 0x3 ADD PUSH1 0x1 SWAP1 SLOAD SWAP1 PUSH2 0x100 EXP SWAP1 DIV PUSH1 0xFF AND ISZERO ISZERO DUP2 MSTORE PUSH1 0x20 ADD PUSH1 0x5 DUP4 LT PUSH2 0x410 JUMPI PUSH1 0x2 PUSH1 0x0 SWAP1 SLOAD SWAP1 PUSH2 0x100 EXP SWAP1 DIV PUSH20 0xFFFFFFFFFFFFFFFFFFFFFFFFFFFFFFFFFFFFFFFF AND PUSH2 0x434 JUMP JUMPDEST PUSH1 0x1 PUSH1 0x0 SWAP1 SLOAD SWAP1 PUSH2 0x100 EXP SWAP1 DIV PUSH20 0xFFFFFFFFFFFFFFFFFFFFFFFFFFFFFFFFFFFFFFFF AND JUMPDEST PUSH20 0xFFFFFFFFFFFFFFFFFFFFFFFFFFFFFFFFFFFFFFFF AND DUP2 MSTORE POP DUP3 DUP3 DUP2 MLOAD DUP2 LT PUSH2 0x460 JUMPI PUSH2 0x45F PUSH2 0x1292 JUMP JUMPDEST JUMPDEST PUSH1 0x20 MUL PUSH1 0x20 ADD ADD DUP2 SWAP1 MSTORE POP DUP1 DUP1 PUSH2 0x476 SWAP1 PUSH2 0x12F0 JUMP JUMPDEST SWAP2 POP POP PUSH2 0x327 JUMP JUMPDEST POP DUP1 SWAP2 POP POP SWAP1 JUMP JUMPDEST PUSH1 0x0 PUSH1 0x2 PUSH1 0x17 SWAP1 SLOAD SWAP1 PUSH2 0x100 EXP SWAP1 DIV PUSH1 0xFF AND SWAP1 POP SWAP1 JUMP JUMPDEST PUSH1 0x3 DUP2 DUP2 SLOAD DUP2 LT PUSH2 0x4AD JUMPI PUSH1 0x0 DUP1 REVERT JUMPDEST SWAP1 PUSH1 0x0 MSTORE PUSH1 0x20 PUSH1 0x0 KECCAK256 ADD PUSH1 0x0 SWAP2 POP SWAP1 POP SLOAD DUP2 JUMP JUMPDEST PUSH1 0x1 PUSH1 0x0 SWAP1 SLOAD SWAP1 PUSH2 0x100 EXP SWAP1 DIV PUSH20 0xFFFFFFFFFFFFFFFFFFFFFFFFFFFFFFFFFFFFFFFF AND DUP2 JUMP JUMPDEST PUSH1 0x2 PUSH1 0x18 SWAP1 SLOAD SWAP1 PUSH2 0x100 EXP SWAP1 DIV PUSH1 0xFF AND DUP2 JUMP JUMPDEST PUSH1 0x2 PUSH1 0x0 SWAP1 SLOAD SWAP1 PUSH2 0x100 EXP SWAP1 DIV PUSH20 0xFFFFFFFFFFFFFFFFFFFFFFFFFFFFFFFFFFFFFFFF AND DUP2 JUMP JUMPDEST PUSH1 0x0 PUSH1 0x20 MSTORE DUP1 PUSH1 0x0 MSTORE PUSH1 0x40 PUSH1 0x0 KECCAK256 PUSH1 0x0 SWAP2 POP SWAP1 POP DUP1 PUSH1 0x0 ADD SLOAD SWAP1 DUP1 PUSH1 0x1 ADD SLOAD SWAP1 DUP1 PUSH1 0x2 ADD SLOAD SWAP1 DUP1 PUSH1 0x3 ADD PUSH1 0x0 SWAP1 SLOAD SWAP1 PUSH2 0x100 EXP SWAP1 DIV PUSH1 0xFF AND SWAP1 DUP1 PUSH1 0x3 ADD PUSH1 0x1 SWAP1 SLOAD SWAP1 PUSH2 0x100 EXP SWAP1 DIV PUSH1 0xFF AND SWAP1 POP DUP6 JUMP JUMPDEST PUSH1 0x4 DUP2 DUP2 SLOAD DUP2 LT PUSH2 0x580 JUMPI PUSH1 0x0 DUP1 REVERT JUMPDEST SWAP1 PUSH1 0x0 MSTORE PUSH1 0x20 PUSH1 0x0 KECCAK256 ADD PUSH1 0x0 SWAP2 POP SWAP1 POP SLOAD DUP2 JUMP JUMPDEST PUSH1 0x2 PUSH1 0x16 SWAP1 SLOAD SWAP1 PUSH2 0x100 EXP SWAP1 DIV PUSH1 0xFF AND DUP2 JUMP JUMPDEST PUSH1 0x2 PUSH1 0x17 SWAP1 SLOAD SWAP1 PUSH2 0x100 EXP SWAP1 DIV PUSH1 0xFF AND DUP2 JUMP JUMPDEST PUSH1 0x2 PUSH1 0x14 SWAP1 SLOAD SWAP1 PUSH2 0x100 EXP SWAP1 DIV PUSH1 0xFF AND DUP2 JUMP JUMPDEST PUSH1 0x2 PUSH1 0x17 SWAP1 SLOAD SWAP1 PUSH2 0x100 EXP SWAP1 DIV PUSH1 0xFF AND ISZERO PUSH2 0x61D JUMPI PUSH1 0x40 MLOAD PUSH32 0x8C379A000000000000000000000000000000000000000000000000000000000 DUP2 MSTORE PUSH1 0x4 ADD PUSH2 0x614 SWAP1 PUSH2 0x1395 JUMP JUMPDEST PUSH1 0x40 MLOAD DUP1 SWAP2 SUB SWAP1 REVERT JUMPDEST PUSH1 0x0 PUSH1 0x2 DUP2 GT ISZERO PUSH2 0x631 JUMPI PUSH2 0x630 PUSH2 0x10D2 JUMP JUMPDEST JUMPDEST PUSH1 0x2 PUSH1 0x18 SWAP1 SLOAD SWAP1 PUSH2 0x100 EXP SWAP1 DIV PUSH1 0xFF AND PUSH1 0x2 DUP2 GT ISZERO PUSH2 0x653 JUMPI PUSH2 0x652 PUSH2 0x10D2 JUMP JUMPDEST JUMPDEST EQ PUSH2 0x693 JUMPI PUSH1 0x40 MLOAD PUSH32 0x8C379A000000000000000000000000000000000000000000000000000000000 DUP2 MSTORE PUSH1 0x4 ADD PUSH2 0x68A SWAP1 PUSH2 0x1401 JUMP JUMPDEST PUSH1 0x40 MLOAD DUP1 SWAP2 SUB SWAP1 REVERT JUMPDEST PUSH1 0x2 PUSH1 0x14 SWAP1 SLOAD SWAP1 PUSH2 0x100 EXP SWAP1 DIV PUSH1 0xFF AND PUSH2 0x708 JUMPI DUP1 PUSH1 0x1 PUSH1 0x0 PUSH2 0x100 EXP DUP2 SLOAD DUP2 PUSH20 0xFFFFFFFFFFFFFFFFFFFFFFFFFFFFFFFFFFFFFFFF MUL NOT AND SWAP1 DUP4 PUSH20 0xFFFFFFFFFFFFFFFFFFFFFFFFFFFFFFFFFFFFFFFF AND MUL OR SWAP1 SSTORE POP PUSH1 0x1 PUSH1 0x2 PUSH1 0x14 PUSH2 0x100 EXP DUP2 SLOAD DUP2 PUSH1 0xFF MUL NOT AND SWAP1 DUP4 ISZERO ISZERO MUL OR SWAP1 SSTORE POP PUSH2 0x7D1 JUMP JUMPDEST PUSH1 0x2 PUSH1 0x15 SWAP1 SLOAD SWAP1 PUSH2 0x100 EXP SWAP1 DIV PUSH1 0xFF AND PUSH2 0x7D0 JUMPI DUP1 PUSH1 0x2 PUSH1 0x0 PUSH2 0x100 EXP DUP2 SLOAD DUP2 PUSH20 0xFFFFFFFFFFFFFFFFFFFFFFFFFFFFFFFFFFFFFFFF MUL NOT AND SWAP1 DUP4 PUSH20 0xFFFFFFFFFFFFFFFFFFFFFFFFFFFFFFFFFFFFFFFF AND MUL OR SWAP1 SSTORE POP PUSH1 0x1 PUSH1 0x2 PUSH1 0x15 PUSH2 0x100 EXP DUP2 SLOAD DUP2 PUSH1 0xFF MUL NOT AND SWAP1 DUP4 ISZERO ISZERO MUL OR SWAP1 SSTORE POP PUSH1 0x1 PUSH1 0x2 PUSH1 0x18 PUSH2 0x100 EXP DUP2 SLOAD DUP2 PUSH1 0xFF MUL NOT AND SWAP1 DUP4 PUSH1 0x2 DUP2 GT ISZERO PUSH2 0x79E JUMPI PUSH2 0x79D PUSH2 0x10D2 JUMP JUMPDEST JUMPDEST MUL OR SWAP1 SSTORE POP PUSH32 0x762F260439BB4BE3EF6E4DC2786E2E7BD187D3D80B79057D7A424FE98563E335 PUSH1 0x40 MLOAD PUSH1 0x40 MLOAD DUP1 SWAP2 SUB SWAP1 LOG1 JUMPDEST JUMPDEST POP JUMP JUMPDEST PUSH1 0x0 PUSH1 0x2 DUP2 GT ISZERO PUSH2 0x7E8 JUMPI PUSH2 0x7E7 PUSH2 0x10D2 JUMP JUMPDEST JUMPDEST PUSH1 0x2 PUSH1 0x18 SWAP1 SLOAD SWAP1 PUSH2 0x100 EXP SWAP1 DIV PUSH1 0xFF AND PUSH1 0x2 DUP2 GT ISZERO PUSH2 0x80A JUMPI PUSH2 0x809 PUSH2 0x10D2 JUMP JUMPDEST JUMPDEST SUB PUSH2 0x84A JUMPI PUSH1 0x40 MLOAD PUSH32 0x8C379A000000000000000000000000000000000000000000000000000000000 DUP2 MSTORE PUSH1 0x4 ADD PUSH2 0x841 SWAP1 PUSH2 0x146D JUMP JUMPDEST PUSH1 0x40 MLOAD DUP1 SWAP2 SUB SWAP1 REVERT JUMPDEST PUSH1 0x2 PUSH1 0x17 SWAP1 SLOAD SWAP1 PUSH2 0x100 EXP SWAP1 DIV PUSH1 0xFF AND ISZERO PUSH2 0x89A JUMPI PUSH1 0x40 MLOAD PUSH32 0x8C379A000000000000000000000000000000000000000000000000000000000 DUP2 MSTORE PUSH1 0x4 ADD PUSH2 0x891 SWAP1 PUSH2 0x1395 JUMP JUMPDEST PUSH1 0x40 MLOAD DUP1 SWAP2 SUB SWAP1 REVERT JUMPDEST PUSH1 0x1 PUSH1 0x0 SWAP1 SLOAD SWAP1 PUSH2 0x100 EXP SWAP1 DIV PUSH20 0xFFFFFFFFFFFFFFFFFFFFFFFFFFFFFFFFFFFFFFFF AND PUSH20 0xFFFFFFFFFFFFFFFFFFFFFFFFFFFFFFFFFFFFFFFF AND DUP2 PUSH20 0xFFFFFFFFFFFFFFFFFFFFFFFFFFFFFFFFFFFFFFFF AND EQ DUP1 ISZERO PUSH2 0x904 JUMPI POP PUSH1 0x2 PUSH1 0x16 SWAP1 SLOAD SWAP1 PUSH2 0x100 EXP SWAP1 DIV PUSH1 0xFF AND ISZERO JUMPDEST DUP1 PUSH2 0x974 JUMPI POP PUSH1 0x2 PUSH1 0x0 SWAP1 SLOAD SWAP1 PUSH2 0x100 EXP SWAP1 DIV PUSH20 0xFFFFFFFFFFFFFFFFFFFFFFFFFFFFFFFFFFFFFFFF AND PUSH20 0xFFFFFFFFFFFFFFFFFFFFFFFFFFFFFFFFFFFFFFFF AND DUP2 PUSH20 0xFFFFFFFFFFFFFFFFFFFFFFFFFFFFFFFFFFFFFFFF AND EQ DUP1 ISZERO PUSH2 0x973 JUMPI POP PUSH1 0x2 PUSH1 0x16 SWAP1 SLOAD SWAP1 PUSH2 0x100 EXP SWAP1 DIV PUSH1 0xFF AND JUMPDEST JUMPDEST PUSH2 0x9B3 JUMPI PUSH1 0x40 MLOAD PUSH32 0x8C379A000000000000000000000000000000000000000000000000000000000 DUP2 MSTORE PUSH1 0x4 ADD PUSH2 0x9AA SWAP1 PUSH2 0x14D9 JUMP JUMPDEST PUSH1 0x40 MLOAD DUP1 SWAP2 SUB SWAP1 REVERT JUMPDEST PUSH1 0x0 DUP1 DUP4 DUP2 MSTORE PUSH1 0x20 ADD SWAP1 DUP2 MSTORE PUSH1 0x20 ADD PUSH1 0x0 KECCAK256 PUSH1 0x3 ADD PUSH1 0x0 SWAP1 SLOAD SWAP1 PUSH2 0x100 EXP SWAP1 DIV PUSH1 0xFF AND PUSH2 0xA15 JUMPI PUSH1 0x40 MLOAD PUSH32 0x8C379A000000000000000000000000000000000000000000000000000000000 DUP2 MSTORE PUSH1 0x4 ADD PUSH2 0xA0C SWAP1 PUSH2 0x1545 JUMP JUMPDEST PUSH1 0x40 MLOAD DUP1 SWAP2 SUB SWAP1 REVERT JUMPDEST PUSH1 0x0 DUP1 DUP5 DUP2 MSTORE PUSH1 0x20 ADD SWAP1 DUP2 MSTORE PUSH1 0x20 ADD PUSH1 0x0 KECCAK256 PUSH1 0x3 ADD PUSH1 0x0 SWAP1 SLOAD SWAP1 PUSH2 0x100 EXP SWAP1 DIV PUSH1 0xFF AND PUSH2 0xA77 JUMPI PUSH1 0x40 MLOAD PUSH32 0x8C379A000000000000000000000000000000000000000000000000000000000 DUP2 MSTORE PUSH1 0x4 ADD PUSH2 0xA6E SWAP1 PUSH2 0x1545 JUMP JUMPDEST PUSH1 0x40 MLOAD DUP1 SWAP2 SUB SWAP1 REVERT JUMPDEST PUSH1 0x0 DUP1 DUP5 DUP2 MSTORE PUSH1 0x20 ADD SWAP1 DUP2 MSTORE PUSH1 0x20 ADD PUSH1 0x0 KECCAK256 PUSH1 0x1 ADD SLOAD PUSH1 0x0 DUP1 DUP5 DUP2 MSTORE PUSH1 0x20 ADD SWAP1 DUP2 MSTORE PUSH1 0x20 ADD PUSH1 0x0 KECCAK256 PUSH1 0x2 ADD SLOAD GT PUSH2 0xD61 JUMPI PUSH1 0x0 DUP1 PUSH1 0x0 DUP5 DUP2 MSTORE PUSH1 0x20 ADD SWAP1 DUP2 MSTORE PUSH1 0x20 ADD PUSH1 0x0 KECCAK256 PUSH1 0x3 ADD PUSH1 0x0 PUSH2 0x100 EXP DUP2 SLOAD DUP2 PUSH1 0xFF MUL NOT AND SWAP1 DUP4 ISZERO ISZERO MUL OR SWAP1 SSTORE POP DUP1 PUSH20 0xFFFFFFFFFFFFFFFFFFFFFFFFFFFFFFFFFFFFFFFF AND PUSH1 0x1 PUSH1 0x0 SWAP1 SLOAD SWAP1 PUSH2 0x100 EXP SWAP1 DIV PUSH20 0xFFFFFFFFFFFFFFFFFFFFFFFFFFFFFFFFFFFFFFFF AND PUSH20 0xFFFFFFFFFFFFFFFFFFFFFFFFFFFFFFFFFFFFFFFF AND SUB PUSH2 0xB44 JUMPI PUSH1 0x5 PUSH1 0x0 DUP2 SLOAD DUP1 SWAP3 SWAP2 SWAP1 PUSH2 0xB3E SWAP1 PUSH2 0x12F0 JUMP JUMPDEST SWAP2 SWAP1 POP SSTORE POP JUMPDEST DUP1 PUSH20 0xFFFFFFFFFFFFFFFFFFFFFFFFFFFFFFFFFFFFFFFF AND PUSH1 0x2 PUSH1 0x0 SWAP1 SLOAD SWAP1 PUSH2 0x100 EXP SWAP1 DIV PUSH20 0xFFFFFFFFFFFFFFFFFFFFFFFFFFFFFFFFFFFFFFFF AND PUSH20 0xFFFFFFFFFFFFFFFFFFFFFFFFFFFFFFFFFFFFFFFF AND SUB PUSH2 0xBB2 JUMPI PUSH1 0x6 PUSH1 0x0 DUP2 SLOAD DUP1 SWAP3 SWAP2 SWAP1 PUSH2 0xBAC SWAP1 PUSH2 0x12F0 JUMP JUMPDEST SWAP2 SWAP1 POP SSTORE POP JUMPDEST PUSH1 0x5 DUP1 SLOAD SUB PUSH2 0xC88 JUMPI PUSH1 0x2 PUSH1 0x0 SWAP1 SLOAD SWAP1 PUSH2 0x100 EXP SWAP1 DIV PUSH20 0xFFFFFFFFFFFFFFFFFFFFFFFFFFFFFFFFFFFFFFFF AND PUSH1 0x7 PUSH1 0x0 PUSH2 0x100 EXP DUP2 SLOAD DUP2 PUSH20 0xFFFFFFFFFFFFFFFFFFFFFFFFFFFFFFFFFFFFFFFF MUL NOT AND SWAP1 DUP4 PUSH20 0xFFFFFFFFFFFFFFFFFFFFFFFFFFFFFFFFFFFFFFFF AND MUL OR SWAP1 SSTORE POP PUSH1 0x7 PUSH1 0x0 SWAP1 SLOAD SWAP1 PUSH2 0x100 EXP SWAP1 DIV PUSH20 0xFFFFFFFFFFFFFFFFFFFFFFFFFFFFFFFFFFFFFFFF AND PUSH20 0xFFFFFFFFFFFFFFFFFFFFFFFFFFFFFFFFFFFFFFFF AND PUSH32 0xBBCA850EF098F4A3CE49A0770CA2E6E176215B97D03B6EA812DFD3586C1A6DAD PUSH1 0x40 MLOAD PUSH1 0x40 MLOAD DUP1 SWAP2 SUB SWAP1 LOG2 PUSH2 0xD5C JUMP JUMPDEST PUSH1 0x5 PUSH1 0x6 SLOAD SUB PUSH2 0xD5B JUMPI PUSH1 0x1 PUSH1 0x0 SWAP1 SLOAD SWAP1 PUSH2 0x100 EXP SWAP1 DIV PUSH20 0xFFFFFFFFFFFFFFFFFFFFFFFFFFFFFFFFFFFFFFFF AND PUSH1 0x7 PUSH1 0x0 PUSH2 0x100 EXP DUP2 SLOAD DUP2 PUSH20 0xFFFFFFFFFFFFFFFFFFFFFFFFFFFFFFFFFFFFFFFF MUL NOT AND SWAP1 DUP4 PUSH20 0xFFFFFFFFFFFFFFFFFFFFFFFFFFFFFFFFFFFFFFFF AND MUL OR SWAP1 SSTORE POP PUSH1 0x7 PUSH1 0x0 SWAP1 SLOAD SWAP1 PUSH2 0x100 EXP SWAP1 DIV PUSH20 0xFFFFFFFFFFFFFFFFFFFFFFFFFFFFFFFFFFFFFFFF AND PUSH20 0xFFFFFFFFFFFFFFFFFFFFFFFFFFFFFFFFFFFFFFFF AND PUSH32 0xBBCA850EF098F4A3CE49A0770CA2E6E176215B97D03B6EA812DFD3586C1A6DAD PUSH1 0x40 MLOAD PUSH1 0x40 MLOAD DUP1 SWAP2 SUB SWAP1 LOG2 JUMPDEST JUMPDEST PUSH2 0xDA3 JUMP JUMPDEST PUSH1 0x0 DUP1 DUP5 DUP2 MSTORE PUSH1 0x20 ADD SWAP1 DUP2 MSTORE PUSH1 0x20 ADD PUSH1 0x0 KECCAK256 PUSH1 0x1 ADD SLOAD PUSH1 0x0 DUP1 DUP5 DUP2 MSTORE PUSH1 0x20 ADD SWAP1 DUP2 MSTORE PUSH1 0x20 ADD PUSH1 0x0 KECCAK256 PUSH1 0x2 ADD PUSH1 0x0 DUP3 DUP3 SLOAD PUSH2 0xD9B SWAP2 SWAP1 PUSH2 0x1565 JUMP JUMPDEST SWAP3 POP POP DUP2 SWAP1 SSTORE POP JUMPDEST PUSH1 0x2 PUSH1 0x16 SWAP1 SLOAD SWAP1 PUSH2 0x100 EXP SWAP1 DIV PUSH1 0xFF AND ISZERO PUSH1 0x2 PUSH1 0x16 PUSH2 0x100 EXP DUP2 SLOAD DUP2 PUSH1 0xFF MUL NOT AND SWAP1 DUP4 ISZERO ISZERO MUL OR SWAP1 SSTORE POP POP POP POP JUMP JUMPDEST PUSH1 0x2 PUSH1 0x15 SWAP1 SLOAD SWAP1 PUSH2 0x100 EXP SWAP1 DIV PUSH1 0xFF AND DUP2 JUMP JUMPDEST PUSH1 0x40 MLOAD DUP1 PUSH1 0xC0 ADD PUSH1 0x40 MSTORE DUP1 PUSH1 0x0 DUP2 MSTORE PUSH1 0x20 ADD PUSH1 0x0 DUP2 MSTORE PUSH1 0x20 ADD PUSH1 0x0 DUP2 MSTORE PUSH1 0x20 ADD PUSH1 0x0 ISZERO ISZERO DUP2 MSTORE PUSH1 0x20 ADD PUSH1 0x0 ISZERO ISZERO DUP2 MSTORE PUSH1 0x20 ADD PUSH1 0x0 PUSH20 0xFFFFFFFFFFFFFFFFFFFFFFFFFFFFFFFFFFFFFFFF AND DUP2 MSTORE POP SWAP1 JUMP JUMPDEST PUSH1 0x0 DUP2 MLOAD SWAP1 POP SWAP2 SWAP1 POP JUMP JUMPDEST PUSH1 0x0 DUP3 DUP3 MSTORE PUSH1 0x20 DUP3 ADD SWAP1 POP SWAP3 SWAP2 POP POP JUMP JUMPDEST PUSH1 0x0 DUP2 SWAP1 POP PUSH1 0x20 DUP3 ADD SWAP1 POP SWAP2 SWAP1 POP JUMP JUMPDEST PUSH1 0x0 DUP2 SWAP1 POP SWAP2 SWAP1 POP JUMP JUMPDEST PUSH2 0xE74 DUP2 PUSH2 0xE61 JUMP JUMPDEST DUP3 MSTORE POP POP JUMP JUMPDEST PUSH1 0x0 DUP2 ISZERO ISZERO SWAP1 POP SWAP2 SWAP1 POP JUMP JUMPDEST PUSH2 0xE8F DUP2 PUSH2 0xE7A JUMP JUMPDEST DUP3 MSTORE POP POP JUMP JUMPDEST PUSH1 0x0 PUSH20 0xFFFFFFFFFFFFFFFFFFFFFFFFFFFFFFFFFFFFFFFF DUP3 AND SWAP1 POP SWAP2 SWAP1 POP JUMP JUMPDEST PUSH1 0x0 PUSH2 0xEC0 DUP3 PUSH2 0xE95 JUMP JUMPDEST SWAP1 POP SWAP2 SWAP1 POP JUMP JUMPDEST PUSH2 0xED0 DUP2 PUSH2 0xEB5 JUMP JUMPDEST DUP3 MSTORE POP POP JUMP JUMPDEST PUSH1 0xC0 DUP3 ADD PUSH1 0x0 DUP3 ADD MLOAD PUSH2 0xEEC PUSH1 0x0 DUP6 ADD DUP3 PUSH2 0xE6B JUMP JUMPDEST POP PUSH1 0x20 DUP3 ADD MLOAD PUSH2 0xEFF PUSH1 0x20 DUP6 ADD DUP3 PUSH2 0xE6B JUMP JUMPDEST POP PUSH1 0x40 DUP3 ADD MLOAD PUSH2 0xF12 PUSH1 0x40 DUP6 ADD DUP3 PUSH2 0xE6B JUMP JUMPDEST POP PUSH1 0x60 DUP3 ADD MLOAD PUSH2 0xF25 PUSH1 0x60 DUP6 ADD DUP3 PUSH2 0xE86 JUMP JUMPDEST POP PUSH1 0x80 DUP3 ADD MLOAD PUSH2 0xF38 PUSH1 0x80 DUP6 ADD DUP3 PUSH2 0xE86 JUMP JUMPDEST POP PUSH1 0xA0 DUP3 ADD MLOAD PUSH2 0xF4B PUSH1 0xA0 DUP6 ADD DUP3 PUSH2 0xEC7 JUMP JUMPDEST POP POP POP POP JUMP JUMPDEST PUSH1 0x0 PUSH2 0xF5D DUP4 DUP4 PUSH2 0xED6 JUMP JUMPDEST PUSH1 0xC0 DUP4 ADD SWAP1 POP SWAP3 SWAP2 POP POP JUMP JUMPDEST PUSH1 0x0 PUSH1 0x20 DUP3 ADD SWAP1 POP SWAP2 SWAP1 POP JUMP JUMPDEST PUSH1 0x0 PUSH2 0xF81 DUP3 PUSH2 0xE35 JUMP JUMPDEST PUSH2 0xF8B DUP2 DUP6 PUSH2 0xE40 JUMP JUMPDEST SWAP4 POP PUSH2 0xF96 DUP4 PUSH2 0xE51 JUMP JUMPDEST DUP1 PUSH1 0x0 JUMPDEST DUP4 DUP2 LT ISZERO PUSH2 0xFC7 JUMPI DUP2 MLOAD PUSH2 0xFAE DUP9 DUP3 PUSH2 0xF51 JUMP JUMPDEST SWAP8 POP PUSH2 0xFB9 DUP4 PUSH2 0xF69 JUMP JUMPDEST SWAP3 POP POP PUSH1 0x1 DUP2 ADD SWAP1 POP PUSH2 0xF9A JUMP JUMPDEST POP DUP6 SWAP4 POP POP POP POP SWAP3 SWAP2 POP POP JUMP JUMPDEST PUSH1 0x0 PUSH1 0x20 DUP3 ADD SWAP1 POP DUP2 DUP2 SUB PUSH1 0x0 DUP4 ADD MSTORE PUSH2 0xFEE DUP2 DUP5 PUSH2 0xF76 JUMP JUMPDEST SWAP1 POP SWAP3 SWAP2 POP POP JUMP JUMPDEST PUSH2 0xFFF DUP2 PUSH2 0xE7A JUMP JUMPDEST DUP3 MSTORE POP POP JUMP JUMPDEST PUSH1 0x0 PUSH1 0x20 DUP3 ADD SWAP1 POP PUSH2 0x101A PUSH1 0x0 DUP4 ADD DUP5 PUSH2 0xFF6 JUMP JUMPDEST SWAP3 SWAP2 POP POP JUMP JUMPDEST PUSH1 0x0 DUP1 REVERT JUMPDEST PUSH2 0x102E DUP2 PUSH2 0xE61 JUMP JUMPDEST DUP2 EQ PUSH2 0x1039 JUMPI PUSH1 0x0 DUP1 REVERT JUMPDEST POP JUMP JUMPDEST PUSH1 0x0 DUP2 CALLDATALOAD SWAP1 POP PUSH2 0x104B DUP2 PUSH2 0x1025 JUMP JUMPDEST SWAP3 SWAP2 POP POP JUMP JUMPDEST PUSH1 0x0 PUSH1 0x20 DUP3 DUP5 SUB SLT ISZERO PUSH2 0x1067 JUMPI PUSH2 0x1066 PUSH2 0x1020 JUMP JUMPDEST JUMPDEST PUSH1 0x0 PUSH2 0x1075 DUP5 DUP3 DUP6 ADD PUSH2 0x103C JUMP JUMPDEST SWAP2 POP POP SWAP3 SWAP2 POP POP JUMP JUMPDEST PUSH2 0x1087 DUP2 PUSH2 0xE61 JUMP JUMPDEST DUP3 MSTORE POP POP JUMP JUMPDEST PUSH1 0x0 PUSH1 0x20 DUP3 ADD SWAP1 POP PUSH2 0x10A2 PUSH1 0x0 DUP4 ADD DUP5 PUSH2 0x107E JUMP JUMPDEST SWAP3 SWAP2 POP POP JUMP JUMPDEST PUSH2 0x10B1 DUP2 PUSH2 0xEB5 JUMP JUMPDEST DUP3 MSTORE POP POP JUMP JUMPDEST PUSH1 0x0 PUSH1 0x20 DUP3 ADD SWAP1 POP PUSH2 0x10CC PUSH1 0x0 DUP4 ADD DUP5 PUSH2 0x10A8 JUMP JUMPDEST SWAP3 SWAP2 POP POP JUMP JUMPDEST PUSH32 0x4E487B7100000000000000000000000000000000000000000000000000000000 PUSH1 0x0 MSTORE PUSH1 0x21 PUSH1 0x4 MSTORE PUSH1 0x24 PUSH1 0x0 REVERT JUMPDEST PUSH1 0x3 DUP2 LT PUSH2 0x1112 JUMPI PUSH2 0x1111 PUSH2 0x10D2 JUMP JUMPDEST JUMPDEST POP JUMP JUMPDEST PUSH1 0x0 DUP2 SWAP1 POP PUSH2 0x1123 DUP3 PUSH2 0x1101 JUMP JUMPDEST SWAP2 SWAP1 POP JUMP JUMPDEST PUSH1 0x0 PUSH2 0x1133 DUP3 PUSH2 0x1115 JUMP JUMPDEST SWAP1 POP SWAP2 SWAP1 POP JUMP JUMPDEST PUSH2 0x1143 DUP2 PUSH2 0x1128 JUMP JUMPDEST DUP3 MSTORE POP POP JUMP JUMPDEST PUSH1 0x0 PUSH1 0x20 DUP3 ADD SWAP1 POP PUSH2 0x115E PUSH1 0x0 DUP4 ADD DUP5 PUSH2 0x113A JUMP JUMPDEST SWAP3 SWAP2 POP POP JUMP JUMPDEST PUSH1 0x0 PUSH1 0xA0 DUP3 ADD SWAP1 POP PUSH2 0x1179 PUSH1 0x0 DUP4 ADD DUP9 PUSH2 0x107E JUMP JUMPDEST PUSH2 0x1186 PUSH1 0x20 DUP4 ADD DUP8 PUSH2 0x107E JUMP JUMPDEST PUSH2 0x1193 PUSH1 0x40 DUP4 ADD DUP7 PUSH2 0x107E JUMP JUMPDEST PUSH2 0x11A0 PUSH1 0x60 DUP4 ADD DUP6 PUSH2 0xFF6 JUMP JUMPDEST PUSH2 0x11AD PUSH1 0x80 DUP4 ADD DUP5 PUSH2 0xFF6 JUMP JUMPDEST SWAP7 SWAP6 POP POP POP POP POP POP JUMP JUMPDEST PUSH2 0x11C0 DUP2 PUSH2 0xEB5 JUMP JUMPDEST DUP2 EQ PUSH2 0x11CB JUMPI PUSH1 0x0 DUP1 REVERT JUMPDEST POP JUMP JUMPDEST PUSH1 0x0 DUP2 CALLDATALOAD SWAP1 POP PUSH2 0x11DD DUP2 PUSH2 0x11B7 JUMP JUMPDEST SWAP3 SWAP2 POP POP JUMP JUMPDEST PUSH1 0x0 PUSH1 0x20 DUP3 DUP5 SUB SLT ISZERO PUSH2 0x11F9 JUMPI PUSH2 0x11F8 PUSH2 0x1020 JUMP JUMPDEST JUMPDEST PUSH1 0x0 PUSH2 0x1207 DUP5 DUP3 DUP6 ADD PUSH2 0x11CE JUMP JUMPDEST SWAP2 POP POP SWAP3 SWAP2 POP POP JUMP JUMPDEST PUSH1 0x0 DUP1 PUSH1 0x0 PUSH1 0x60 DUP5 DUP7 SUB SLT ISZERO PUSH2 0x1229 JUMPI PUSH2 0x1228 PUSH2 0x1020 JUMP JUMPDEST JUMPDEST PUSH1 0x0 PUSH2 0x1237 DUP7 DUP3 DUP8 ADD PUSH2 0x103C JUMP JUMPDEST SWAP4 POP POP PUSH1 0x20 PUSH2 0x1248 DUP7 DUP3 DUP8 ADD PUSH2 0x103C JUMP JUMPDEST SWAP3 POP POP PUSH1 0x40 PUSH2 0x1259 DUP7 DUP3 DUP8 ADD PUSH2 0x11CE JUMP JUMPDEST SWAP2 POP POP SWAP3 POP SWAP3 POP SWAP3 JUMP JUMPDEST PUSH32 0x4E487B7100000000000000000000000000000000000000000000000000000000 PUSH1 0x0 MSTORE PUSH1 0x41 PUSH1 0x4 MSTORE PUSH1 0x24 PUSH1 0x0 REVERT JUMPDEST PUSH32 0x4E487B7100000000000000000000000000000000000000000000000000000000 PUSH1 0x0 MSTORE PUSH1 0x32 PUSH1 0x4 MSTORE PUSH1 0x24 PUSH1 0x0 REVERT JUMPDEST PUSH32 0x4E487B7100000000000000000000000000000000000000000000000000000000 PUSH1 0x0 MSTORE PUSH1 0x11 PUSH1 0x4 MSTORE PUSH1 0x24 PUSH1 0x0 REVERT JUMPDEST PUSH1 0x0 PUSH2 0x12FB DUP3 PUSH2 0xE61 JUMP JUMPDEST SWAP2 POP PUSH32 0xFFFFFFFFFFFFFFFFFFFFFFFFFFFFFFFFFFFFFFFFFFFFFFFFFFFFFFFFFFFFFFFF DUP3 SUB PUSH2 0x132D JUMPI PUSH2 0x132C PUSH2 0x12C1 JUMP JUMPDEST JUMPDEST PUSH1 0x1 DUP3 ADD SWAP1 POP SWAP2 SWAP1 POP JUMP JUMPDEST PUSH1 0x0 DUP3 DUP3 MSTORE PUSH1 0x20 DUP3 ADD SWAP1 POP SWAP3 SWAP2 POP POP JUMP JUMPDEST PUSH32 0x67616D65206F7665720000000000000000000000000000000000000000000000 PUSH1 0x0 DUP3 ADD MSTORE POP JUMP JUMPDEST PUSH1 0x0 PUSH2 0x137F PUSH1 0x9 DUP4 PUSH2 0x1338 JUMP JUMPDEST SWAP2 POP PUSH2 0x138A DUP3 PUSH2 0x1349 JUMP JUMPDEST PUSH1 0x20 DUP3 ADD SWAP1 POP SWAP2 SWAP1 POP JUMP JUMPDEST PUSH1 0x0 PUSH1 0x20 DUP3 ADD SWAP1 POP DUP2 DUP2 SUB PUSH1 0x0 DUP4 ADD MSTORE PUSH2 0x13AE DUP2 PUSH2 0x1372 JUMP JUMPDEST SWAP1 POP SWAP2 SWAP1 POP JUMP JUMPDEST PUSH32 0x47616D6520616C72656164792073746172746564210000000000000000000000 PUSH1 0x0 DUP3 ADD MSTORE POP JUMP JUMPDEST PUSH1 0x0 PUSH2 0x13EB PUSH1 0x15 DUP4 PUSH2 0x1338 JUMP JUMPDEST SWAP2 POP PUSH2 0x13F6 DUP3 PUSH2 0x13B5 JUMP JUMPDEST PUSH1 0x20 DUP3 ADD SWAP1 POP SWAP2 SWAP1 POP JUMP JUMPDEST PUSH1 0x0 PUSH1 0x20 DUP3 ADD SWAP1 POP DUP2 DUP2 SUB PUSH1 0x0 DUP4 ADD MSTORE PUSH2 0x141A DUP2 PUSH2 0x13DE JUMP JUMPDEST SWAP1 POP SWAP2 SWAP1 POP JUMP JUMPDEST PUSH32 0x47616D6520686173206E6F742073746172746564207965742100000000000000 PUSH1 0x0 DUP3 ADD MSTORE POP JUMP JUMPDEST PUSH1 0x0 PUSH2 0x1457 PUSH1 0x19 DUP4 PUSH2 0x1338 JUMP JUMPDEST SWAP2 POP PUSH2 0x1462 DUP3 PUSH2 0x1421 JUMP JUMPDEST PUSH1 0x20 DUP3 ADD SWAP1 POP SWAP2 SWAP1 POP JUMP JUMPDEST PUSH1 0x0 PUSH1 0x20 DUP3 ADD SWAP1 POP DUP2 DUP2 SUB PUSH1 0x0 DUP4 ADD MSTORE PUSH2 0x1486 DUP2 PUSH2 0x144A JUMP JUMPDEST SWAP1 POP SWAP2 SWAP1 POP JUMP JUMPDEST PUSH32 0x4E6F7420796F7572207475726E00000000000000000000000000000000000000 PUSH1 0x0 DUP3 ADD MSTORE POP JUMP JUMPDEST PUSH1 0x0 PUSH2 0x14C3 PUSH1 0xD DUP4 PUSH2 0x1338 JUMP JUMPDEST SWAP2 POP PUSH2 0x14CE DUP3 PUSH2 0x148D JUMP JUMPDEST PUSH1 0x20 DUP3 ADD SWAP1 POP SWAP2 SWAP1 POP JUMP JUMPDEST PUSH1 0x0 PUSH1 0x20 DUP3 ADD SWAP1 POP DUP2 DUP2 SUB PUSH1 0x0 DUP4 ADD MSTORE PUSH2 0x14F2 DUP2 PUSH2 0x14B6 JUMP JUMPDEST SWAP1 POP SWAP2 SWAP1 POP JUMP JUMPDEST PUSH32 0x546869732063617264206973206E6F7420616C69766500000000000000000000 PUSH1 0x0 DUP3 ADD MSTORE POP JUMP JUMPDEST PUSH1 0x0 PUSH2 0x152F PUSH1 0x16 DUP4 PUSH2 0x1338 JUMP JUMPDEST SWAP2 POP PUSH2 0x153A DUP3 PUSH2 0x14F9 JUMP JUMPDEST PUSH1 0x20 DUP3 ADD SWAP1 POP SWAP2 SWAP1 POP JUMP JUMPDEST PUSH1 0x0 PUSH1 0x20 DUP3 ADD SWAP1 POP DUP2 DUP2 SUB PUSH1 0x0 DUP4 ADD MSTORE PUSH2 0x155E DUP2 PUSH2 0x1522 JUMP JUMPDEST SWAP1 POP SWAP2 SWAP1 POP JUMP JUMPDEST PUSH1 0x0 PUSH2 0x1570 DUP3 PUSH2 0xE61 JUMP JUMPDEST SWAP2 POP PUSH2 0x157B DUP4 PUSH2 0xE61 JUMP JUMPDEST SWAP3 POP DUP3 DUP3 SUB SWAP1 POP DUP2 DUP2 GT ISZERO PUSH2 0x1593 JUMPI PUSH2 0x1592 PUSH2 0x12C1 JUMP JUMPDEST JUMPDEST SWAP3 SWAP2 POP POP JUMP INVALID LOG2 PUSH5 0x6970667358 0x22 SLT KECCAK256 SWAP7 0x24 0xAF SWAP3 RETURN 0xB5 MOD 0xA9 SHL DUP6 0x29 GAS 0xE6 0xFC 0xCC 0xE8 0xAA 0x4A 0xEA 0xF9 RETURN 0xC8 0xE6 PREVRANDAO SHR RETURN PUSH20 0xFAB0F70A8964736F6C6343000812003300000000 "},"gasEstimates":{"creation":{"codeDepositCost":"1116600","executionCost":"infinite","totalCost":"infinite"},"external":{"attack(uint256,uint256,address)":"infinite","cards(uint256)":"infinite","enter(address)":"83071","gameOver()":"2588","gameStatus()":"2655","getAllCardList()":"infinite","isGameOver()":"2575","user1Address()":"2537","user1Cards(uint256)":"infinite","user1IsEntered()":"2543","user2Address()":"2581","user2Cards(uint256)":"infinite","user2IsEntered()":"2609","whoseTurn()":"2566"}},"methodIdentifiers":{"attack(uint256,uint256,address)":"daaf3d2e","cards(uint256)":"8dc10768","enter(address)":"d014c01f","gameOver()":"bdb337d1","gameStatus()":"722fed7e","getAllCardList()":"01943ace","isGameOver()":"0e04a7d8","user1Address()":"2f0d3356","user1Cards(uint256)":"21d7f050","user1IsEntered()":"c0a487b8","user2Address()":"8bc86154","user2Cards(uint256)":"9394e718","user2IsEntered()":"efb4d32f","whoseTurn()":"ab57b8ef"}},"storageLayout":{"storage":[{"astId":21,"contract":"contracts/GameContract.sol:CardGame","label":"cards","offset":0,"slot":"0","type":"t_mapping(t_uint256,t_struct(Card)12_storage)"},{"astId":95,"contract":"contracts/GameContract.sol:CardGame","label":"user1Address","offset":0,"slot":"1","type":"t_address"},{"astId":97,"contract":"contracts/GameContract.sol:CardGame","label":"user2Address","offset":0,"slot":"2","type":"t_address"},{"astId":99,"contract":"contracts/GameContract.sol:CardGame","label":"user1IsEntered","offset":20,"slot":"2","type":"t_bool"},{"astId":101,"contract":"contracts/GameContract.sol:CardGame","label":"user2IsEntered","offset":21,"slot":"2","type":"t_bool"},{"astId":103,"contract":"contracts/GameContract.sol:CardGame","label":"whoseTurn","offset":22,"slot":"2","type":"t_bool"},{"astId":105,"contract":"contracts/GameContract.sol:CardGame","label":"gameOver","offset":23,"slot":"2","type":"t_bool"},{"astId":110,"contract":"contracts/GameContract.sol:CardGame","label":"gameStatus","offset":24,"slot":"2","type":"t_enum(GameStatus)16"},{"astId":113,"contract":"contracts/GameContract.sol:CardGame","label":"user1Cards","offset":0,"slot":"3","type":"t_array(t_uint256)dyn_storage"},{"astId":116,"contract":"contracts/GameContract.sol:CardGame","label":"user2Cards","offset":0,"slot":"4","type":"t_array(t_uint256)dyn_storage"},{"astId":119,"contract":"contracts/GameContract.sol:CardGame","label":"user1DeadCardCount","offset":0,"slot":"5","type":"t_uint256"},{"astId":122,"contract":"contracts/GameContract.sol:CardGame","label":"user2DeadCardCount","offset":0,"slot":"6","type":"t_uint256"},{"astId":124,"contract":"contracts/GameContract.sol:CardGame","label":"winner","offset":0,"slot":"7","type":"t_address"}],"types":{"t_address":{"encoding":"inplace","label":"address","numberOfBytes":"20"},"t_array(t_uint256)dyn_storage":{"base":"t_uint256","encoding":"dynamic_array","label":"uint256[]","numberOfBytes":"32"},"t_bool":{"encoding":"inplace","label":"bool","numberOfBytes":"1"},"t_enum(GameStatus)16":{"encoding":"inplace","label":"enum CardGame.GameStatus","numberOfBytes":"1"},"t_mapping(t_uint256,t_struct(Card)12_storage)":{"encoding":"mapping","key":"t_uint256","label":"mapping(uint256 => struct CardGame.Card)","numberOfBytes":"32","value":"t_struct(Card)12_storage"},"t_struct(Card)12_storage":{"encoding":"inplace","label":"struct CardGame.Card","members":[{"astId":3,"contract":"contracts/GameContract.sol:CardGame","label":"id","offset":0,"slot":"0","type":"t_uint256"},{"astId":5,"contract":"contracts/GameContract.sol:CardGame","label":"power","offset":0,"slot":"1","type":"t_uint256"},{"astId":7,"contract":"contracts/GameContract.sol:CardGame","label":"health","offset":0,"slot":"2","type":"t_uint256"},{"astId":9,"contract":"contracts/GameContract.sol:CardGame","label":"isAlive","offset":0,"slot":"3","type":"t_bool"},{"astId":11,"contract":"contracts/GameContract.sol:CardGame","label":"isTaken","offset":1,"slot":"3","type":"t_bool"}],"numberOfBytes":"128"},"t_uint256":{"encoding":"inplace","label":"uint256","numberOfBytes":"32"}}},"userdoc":{"kind":"user","methods":{},"version":1}}}}