{"contracts/GameContract.sol":{"CardGame":{"abi":[{"inputs":[],"stateMutability":"nonpayable","type":"constructor"},{"anonymous":false,"inputs":[{"indexed":true,"internalType":"address","name":"attacker","type":"address"},{"indexed":true,"internalType":"address","name":"defender","type":"address"},{"indexed":false,"internalType":"uint256","name":"attackerCardId","type":"uint256"},{"indexed":false,"internalType":"uint256","name":"defenderCardId","type":"uint256"},{"indexed":false,"internalType":"uint256","name":"damage","type":"uint256"}],"name":"Attack","type":"event"},{"anonymous":false,"inputs":[{"indexed":true,"internalType":"uint256","name":"cardId","type":"uint256"},{"indexed":true,"internalType":"address","name":"player","type":"address"}],"name":"CardChosen","type":"event"},{"anonymous":false,"inputs":[{"indexed":true,"internalType":"address","name":"winner","type":"address"}],"name":"GameOvered","type":"event"},{"anonymous":false,"inputs":[],"name":"GameStarted","type":"event"},{"inputs":[{"internalType":"uint256","name":"attackerId","type":"uint256"},{"internalType":"uint256","name":"defenderId","type":"uint256"}],"name":"attack","outputs":[],"stateMutability":"nonpayable","type":"function"},{"inputs":[{"internalType":"uint256","name":"","type":"uint256"}],"name":"cards","outputs":[{"internalType":"uint256","name":"id","type":"uint256"},{"internalType":"uint256","name":"power","type":"uint256"},{"internalType":"uint256","name":"health","type":"uint256"},{"internalType":"bool","name":"isAlive","type":"bool"},{"internalType":"bool","name":"isTaken","type":"bool"}],"stateMutability":"view","type":"function"},{"inputs":[{"internalType":"address","name":"player","type":"address"}],"name":"enter","outputs":[],"stateMutability":"nonpayable","type":"function"},{"inputs":[],"name":"gameOver","outputs":[{"internalType":"bool","name":"","type":"bool"}],"stateMutability":"view","type":"function"},{"inputs":[],"name":"gameStatus","outputs":[{"internalType":"enum CardGame.GameStatus","name":"","type":"uint8"}],"stateMutability":"view","type":"function"},{"inputs":[{"internalType":"bool","name":"player","type":"bool"}],"name":"getLiveCardsInfo","outputs":[{"internalType":"uint256[5]","name":"","type":"uint256[5]"}],"stateMutability":"view","type":"function"},{"inputs":[],"name":"isGameOver","outputs":[{"internalType":"bool","name":"","type":"bool"}],"stateMutability":"view","type":"function"},{"inputs":[],"name":"user1Address","outputs":[{"internalType":"address","name":"","type":"address"}],"stateMutability":"view","type":"function"},{"inputs":[{"internalType":"uint256","name":"","type":"uint256"}],"name":"user1Cards","outputs":[{"internalType":"uint256","name":"","type":"uint256"}],"stateMutability":"view","type":"function"},{"inputs":[],"name":"user1IsEntered","outputs":[{"internalType":"bool","name":"","type":"bool"}],"stateMutability":"view","type":"function"},{"inputs":[],"name":"user2Address","outputs":[{"internalType":"address","name":"","type":"address"}],"stateMutability":"view","type":"function"},{"inputs":[{"internalType":"uint256","name":"","type":"uint256"}],"name":"user2Cards","outputs":[{"internalType":"uint256","name":"","type":"uint256"}],"stateMutability":"view","type":"function"},{"inputs":[],"name":"user2IsEntered","outputs":[{"internalType":"bool","name":"","type":"bool"}],"stateMutability":"view","type":"function"},{"inputs":[],"name":"whoseTurn","outputs":[{"internalType":"bool","name":"","type":"bool"}],"stateMutability":"view","type":"function"}],"devdoc":{"kind":"dev","methods":{},"version":1},"evm":{"bytecode":{"linkReferences":{},"object":"60806040526000600260186101000a81548160ff021916908360028111156200002d576200002c620001a0565b5b0217905550600060055560006006553480156200004957600080fd5b5060005b600a81101562000199576040518060a00160405280828152602001600a4262000077919062000208565b8152602001600a83426200008c91906200026f565b62000098919062000208565b81526020016001151581526020016000151581525060008083815260200190815260200160002060008201518160000155602082015181600101556040820151816002015560608201518160030160006101000a81548160ff02191690831515021790555060808201518160030160016101000a81548160ff02191690831515021790555090505060068110156200015957600381908060018154018082558091505060019003906000526020600020016000909190919091505562000183565b60048190806001815401808255809150506001900390600052602060002001600090919091909150555b80806200019090620002ba565b9150506200004d565b5062000307565b7f4e487b7100000000000000000000000000000000000000000000000000000000600052602160045260246000fd5b6000819050919050565b7f4e487b7100000000000000000000000000000000000000000000000000000000600052601260045260246000fd5b60006200021582620001cf565b91506200022283620001cf565b925082620002355762000234620001d9565b5b828206905092915050565b7f4e487b7100000000000000000000000000000000000000000000000000000000600052601160045260246000fd5b60006200027c82620001cf565b91506200028983620001cf565b92508282026200029981620001cf565b91508282048414831517620002b357620002b262000240565b5b5092915050565b6000620002c782620001cf565b91507fffffffffffffffffffffffffffffffffffffffffffffffffffffffffffffffff8203620002fc57620002fb62000240565b5b600182019050919050565b61144180620003176000396000f3fe608060405234801561001057600080fd5b50600436106100ea5760003560e01c8063ab57b8ef1161008c578063d014c01f11610066578063d014c01f14610255578063dbda362114610271578063e1fa7638146102a1578063efb4d32f146102bd576100ea565b8063ab57b8ef146101fb578063bdb337d114610219578063c0a487b814610237576100ea565b8063722fed7e116100c8578063722fed7e1461015b5780638bc86154146101795780638dc10768146101975780639394e718146101cb576100ea565b80630e04a7d8146100ef57806321d7f0501461010d5780632f0d33561461013d575b600080fd5b6100f76102db565b6040516101049190610d5e565b60405180910390f35b61012760048036038101906101229190610db4565b6102f2565b6040516101349190610df0565b60405180910390f35b610145610316565b6040516101529190610e4c565b60405180910390f35b61016361033c565b6040516101709190610ede565b60405180910390f35b61018161034f565b60405161018e9190610e4c565b60405180910390f35b6101b160048036038101906101ac9190610db4565b610375565b6040516101c2959493929190610ef9565b60405180910390f35b6101e560048036038101906101e09190610db4565b6103c5565b6040516101f29190610df0565b60405180910390f35b6102036103e9565b6040516102109190610d5e565b60405180910390f35b6102216103fc565b60405161022e9190610d5e565b60405180910390f35b61023f61040f565b60405161024c9190610d5e565b60405180910390f35b61026f600480360381019061026a9190610f78565b610422565b005b61028b60048036038101906102869190610fd1565b61062e565b60405161029891906110a9565b60405180910390f35b6102bb60048036038101906102b691906110c4565b6107a5565b005b6102c5610d0e565b6040516102d29190610d5e565b60405180910390f35b6000600260179054906101000a900460ff16905090565b6003818154811061030257600080fd5b906000526020600020016000915090505481565b600160009054906101000a900473ffffffffffffffffffffffffffffffffffffffff1681565b600260189054906101000a900460ff1681565b600260009054906101000a900473ffffffffffffffffffffffffffffffffffffffff1681565b60006020528060005260406000206000915090508060000154908060010154908060020154908060030160009054906101000a900460ff16908060030160019054906101000a900460ff16905085565b600481815481106103d557600080fd5b906000526020600020016000915090505481565b600260169054906101000a900460ff1681565b600260179054906101000a900460ff1681565b600260149054906101000a900460ff1681565b600260179054906101000a900460ff1615610472576040517f08c379a000000000000000000000000000000000000000000000000000000000815260040161046990611161565b60405180910390fd5b6000600281111561048657610485610e67565b5b600260189054906101000a900460ff1660028111156104a8576104a7610e67565b5b146104e8576040517f08c379a00000000000000000000000000000000000000000000000000000000081526004016104df906111cd565b60405180910390fd5b600260149054906101000a900460ff1661055d5780600160006101000a81548173ffffffffffffffffffffffffffffffffffffffff021916908373ffffffffffffffffffffffffffffffffffffffff1602179055506001600260146101000a81548160ff02191690831515021790555061062b565b600260159054906101000a900460ff166105d25780600260006101000a81548173ffffffffffffffffffffffffffffffffffffffff021916908373ffffffffffffffffffffffffffffffffffffffff1602179055506001600260156101000a81548160ff02191690831515021790555061062a565b6001600260186101000a81548160ff021916908360028111156105f8576105f7610e67565b5b02179055507f762f260439bb4be3ef6e4dc2786e2e7bd187d3d80b79057d7a424fe98563e33560405160405180910390a15b5b50565b610636610d21565b61063e610d21565b60011515831515036106f55760005b6004805490508110156106ef5760008060048381548110610671576106706111ed565b5b9060005260206000200154815260200190815260200160002060030160009054906101000a900460ff16156106dc57600481815481106106b4576106b36111ed565b5b90600052602060002001548282600581106106d2576106d16111ed565b5b6020020181815250505b80806106e79061124b565b91505061064d565b5061079c565b60005b60038054905081101561079a576000806003838154811061071c5761071b6111ed565b5b9060005260206000200154815260200190815260200160002060030160009054906101000a900460ff1615610787576003818154811061075f5761075e6111ed565b5b906000526020600020015482826005811061077d5761077c6111ed565b5b6020020181815250505b80806107929061124b565b9150506106f8565b505b80915050919050565b600060028111156107b9576107b8610e67565b5b600260189054906101000a900460ff1660028111156107db576107da610e67565b5b0361081b576040517f08c379a0000000000000000000000000000000000000000000000000000000008152600401610812906112df565b60405180910390fd5b600260179054906101000a900460ff161561086b576040517f08c379a000000000000000000000000000000000000000000000000000000000815260040161086290611161565b60405180910390fd5b600160009054906101000a900473ffffffffffffffffffffffffffffffffffffffff1673ffffffffffffffffffffffffffffffffffffffff163373ffffffffffffffffffffffffffffffffffffffff161480156108d55750600260169054906101000a900460ff16155b806109455750600260009054906101000a900473ffffffffffffffffffffffffffffffffffffffff1673ffffffffffffffffffffffffffffffffffffffff163373ffffffffffffffffffffffffffffffffffffffff161480156109445750600260169054906101000a900460ff165b5b610984576040517f08c379a000000000000000000000000000000000000000000000000000000000815260040161097b9061134b565b60405180910390fd5b60008082815260200190815260200160002060030160009054906101000a900460ff166109e6576040517f08c379a00000000000000000000000000000000000000000000000000000000081526004016109dd906113b7565b60405180910390fd5b60008083815260200190815260200160002060030160009054906101000a900460ff16610a48576040517f08c379a0000000000000000000000000000000000000000000000000000000008152600401610a3f906113b7565b60405180910390fd5b600080838152602001908152602001600020600101546000808381526020019081526020016000206002015411610c6357600080600083815260200190815260200160002060030160006101000a81548160ff0219169083151502179055503373ffffffffffffffffffffffffffffffffffffffff16600160009054906101000a900473ffffffffffffffffffffffffffffffffffffffff1673ffffffffffffffffffffffffffffffffffffffff1603610b155760056000815480929190610b0f9061124b565b91905055505b3373ffffffffffffffffffffffffffffffffffffffff16600260009054906101000a900473ffffffffffffffffffffffffffffffffffffffff1673ffffffffffffffffffffffffffffffffffffffff1603610b835760066000815480929190610b7d9061124b565b91905055505b6005805403610bf057600260009054906101000a900473ffffffffffffffffffffffffffffffffffffffff16600760006101000a81548173ffffffffffffffffffffffffffffffffffffffff021916908373ffffffffffffffffffffffffffffffffffffffff1602179055505b600560065403610c5e57600160009054906101000a900473ffffffffffffffffffffffffffffffffffffffff16600760006101000a81548173ffffffffffffffffffffffffffffffffffffffff021916908373ffffffffffffffffffffffffffffffffffffffff1602179055505b610ca5565b600080838152602001908152602001600020600101546000808381526020019081526020016000206002016000828254610c9d91906113d7565b925050819055505b600760009054906101000a900473ffffffffffffffffffffffffffffffffffffffff1673ffffffffffffffffffffffffffffffffffffffff167fbbca850ef098f4a3ce49a0770ca2e6e176215b97d03b6ea812dfd3586c1a6dad60405160405180910390a25050565b600260159054906101000a900460ff1681565b6040518060a00160405280600590602082028036833780820191505090505090565b60008115159050919050565b610d5881610d43565b82525050565b6000602082019050610d736000830184610d4f565b92915050565b600080fd5b6000819050919050565b610d9181610d7e565b8114610d9c57600080fd5b50565b600081359050610dae81610d88565b92915050565b600060208284031215610dca57610dc9610d79565b5b6000610dd884828501610d9f565b91505092915050565b610dea81610d7e565b82525050565b6000602082019050610e056000830184610de1565b92915050565b600073ffffffffffffffffffffffffffffffffffffffff82169050919050565b6000610e3682610e0b565b9050919050565b610e4681610e2b565b82525050565b6000602082019050610e616000830184610e3d565b92915050565b7f4e487b7100000000000000000000000000000000000000000000000000000000600052602160045260246000fd5b60038110610ea757610ea6610e67565b5b50565b6000819050610eb882610e96565b919050565b6000610ec882610eaa565b9050919050565b610ed881610ebd565b82525050565b6000602082019050610ef36000830184610ecf565b92915050565b600060a082019050610f0e6000830188610de1565b610f1b6020830187610de1565b610f286040830186610de1565b610f356060830185610d4f565b610f426080830184610d4f565b9695505050505050565b610f5581610e2b565b8114610f6057600080fd5b50565b600081359050610f7281610f4c565b92915050565b600060208284031215610f8e57610f8d610d79565b5b6000610f9c84828501610f63565b91505092915050565b610fae81610d43565b8114610fb957600080fd5b50565b600081359050610fcb81610fa5565b92915050565b600060208284031215610fe757610fe6610d79565b5b6000610ff584828501610fbc565b91505092915050565b600060059050919050565b600081905092915050565b6000819050919050565b61102781610d7e565b82525050565b6000611039838361101e565b60208301905092915050565b6000602082019050919050565b61105b81610ffe565b6110658184611009565b925061107082611014565b8060005b838110156110a1578151611088878261102d565b965061109383611045565b925050600181019050611074565b505050505050565b600060a0820190506110be6000830184611052565b92915050565b600080604083850312156110db576110da610d79565b5b60006110e985828601610d9f565b92505060206110fa85828601610d9f565b9150509250929050565b600082825260208201905092915050565b7f67616d65206f7665720000000000000000000000000000000000000000000000600082015250565b600061114b600983611104565b915061115682611115565b602082019050919050565b6000602082019050818103600083015261117a8161113e565b9050919050565b7f47616d6520616c72656164792073746172746564210000000000000000000000600082015250565b60006111b7601583611104565b91506111c282611181565b602082019050919050565b600060208201905081810360008301526111e6816111aa565b9050919050565b7f4e487b7100000000000000000000000000000000000000000000000000000000600052603260045260246000fd5b7f4e487b7100000000000000000000000000000000000000000000000000000000600052601160045260246000fd5b600061125682610d7e565b91507fffffffffffffffffffffffffffffffffffffffffffffffffffffffffffffffff82036112885761128761121c565b5b600182019050919050565b7f47616d6520686173206e6f742073746172746564207965742100000000000000600082015250565b60006112c9601983611104565b91506112d482611293565b602082019050919050565b600060208201905081810360008301526112f8816112bc565b9050919050565b7f4e6f7420796f7572207475726e00000000000000000000000000000000000000600082015250565b6000611335600d83611104565b9150611340826112ff565b602082019050919050565b6000602082019050818103600083015261136481611328565b9050919050565b7f546869732063617264206973206e6f7420616c69766500000000000000000000600082015250565b60006113a1601683611104565b91506113ac8261136b565b602082019050919050565b600060208201905081810360008301526113d081611394565b9050919050565b60006113e282610d7e565b91506113ed83610d7e565b92508282039050818111156114055761140461121c565b5b9291505056fea2646970667358221220134459fc1c1494b4a33eb3195f43c59c9341bf3bd3fe53d5bd65ca1c15bc4ff964736f6c63430008120033","opcodes":"PUSH1 0x80 PUSH1 0x40 MSTORE PUSH1 0x0 PUSH1 0x2 PUSH1 0x18 PUSH2 0x100 EXP DUP2 SLOAD DUP2 PUSH1 0xFF MUL NOT AND SWAP1 DUP4 PUSH1 0x2 DUP2 GT ISZERO PUSH3 0x2D JUMPI PUSH3 0x2C PUSH3 0x1A0 JUMP JUMPDEST JUMPDEST MUL OR SWAP1 SSTORE POP PUSH1 0x0 PUSH1 0x5 SSTORE PUSH1 0x0 PUSH1 0x6 SSTORE CALLVALUE DUP1 ISZERO PUSH3 0x49 JUMPI PUSH1 0x0 DUP1 REVERT JUMPDEST POP PUSH1 0x0 JUMPDEST PUSH1 0xA DUP2 LT ISZERO PUSH3 0x199 JUMPI PUSH1 0x40 MLOAD DUP1 PUSH1 0xA0 ADD PUSH1 0x40 MSTORE DUP1 DUP3 DUP2 MSTORE PUSH1 0x20 ADD PUSH1 0xA TIMESTAMP PUSH3 0x77 SWAP2 SWAP1 PUSH3 0x208 JUMP JUMPDEST DUP2 MSTORE PUSH1 0x20 ADD PUSH1 0xA DUP4 TIMESTAMP PUSH3 0x8C SWAP2 SWAP1 PUSH3 0x26F JUMP JUMPDEST PUSH3 0x98 SWAP2 SWAP1 PUSH3 0x208 JUMP JUMPDEST DUP2 MSTORE PUSH1 0x20 ADD PUSH1 0x1 ISZERO ISZERO DUP2 MSTORE PUSH1 0x20 ADD PUSH1 0x0 ISZERO ISZERO DUP2 MSTORE POP PUSH1 0x0 DUP1 DUP4 DUP2 MSTORE PUSH1 0x20 ADD SWAP1 DUP2 MSTORE PUSH1 0x20 ADD PUSH1 0x0 KECCAK256 PUSH1 0x0 DUP3 ADD MLOAD DUP2 PUSH1 0x0 ADD SSTORE PUSH1 0x20 DUP3 ADD MLOAD DUP2 PUSH1 0x1 ADD SSTORE PUSH1 0x40 DUP3 ADD MLOAD DUP2 PUSH1 0x2 ADD SSTORE PUSH1 0x60 DUP3 ADD MLOAD DUP2 PUSH1 0x3 ADD PUSH1 0x0 PUSH2 0x100 EXP DUP2 SLOAD DUP2 PUSH1 0xFF MUL NOT AND SWAP1 DUP4 ISZERO ISZERO MUL OR SWAP1 SSTORE POP PUSH1 0x80 DUP3 ADD MLOAD DUP2 PUSH1 0x3 ADD PUSH1 0x1 PUSH2 0x100 EXP DUP2 SLOAD DUP2 PUSH1 0xFF MUL NOT AND SWAP1 DUP4 ISZERO ISZERO MUL OR SWAP1 SSTORE POP SWAP1 POP POP PUSH1 0x6 DUP2 LT ISZERO PUSH3 0x159 JUMPI PUSH1 0x3 DUP2 SWAP1 DUP1 PUSH1 0x1 DUP2 SLOAD ADD DUP1 DUP3 SSTORE DUP1 SWAP2 POP POP PUSH1 0x1 SWAP1 SUB SWAP1 PUSH1 0x0 MSTORE PUSH1 0x20 PUSH1 0x0 KECCAK256 ADD PUSH1 0x0 SWAP1 SWAP2 SWAP1 SWAP2 SWAP1 SWAP2 POP SSTORE PUSH3 0x183 JUMP JUMPDEST PUSH1 0x4 DUP2 SWAP1 DUP1 PUSH1 0x1 DUP2 SLOAD ADD DUP1 DUP3 SSTORE DUP1 SWAP2 POP POP PUSH1 0x1 SWAP1 SUB SWAP1 PUSH1 0x0 MSTORE PUSH1 0x20 PUSH1 0x0 KECCAK256 ADD PUSH1 0x0 SWAP1 SWAP2 SWAP1 SWAP2 SWAP1 SWAP2 POP SSTORE JUMPDEST DUP1 DUP1 PUSH3 0x190 SWAP1 PUSH3 0x2BA JUMP JUMPDEST SWAP2 POP POP PUSH3 0x4D JUMP JUMPDEST POP PUSH3 0x307 JUMP JUMPDEST PUSH32 0x4E487B7100000000000000000000000000000000000000000000000000000000 PUSH1 0x0 MSTORE PUSH1 0x21 PUSH1 0x4 MSTORE PUSH1 0x24 PUSH1 0x0 REVERT JUMPDEST PUSH1 0x0 DUP2 SWAP1 POP SWAP2 SWAP1 POP JUMP JUMPDEST PUSH32 0x4E487B7100000000000000000000000000000000000000000000000000000000 PUSH1 0x0 MSTORE PUSH1 0x12 PUSH1 0x4 MSTORE PUSH1 0x24 PUSH1 0x0 REVERT JUMPDEST PUSH1 0x0 PUSH3 0x215 DUP3 PUSH3 0x1CF JUMP JUMPDEST SWAP2 POP PUSH3 0x222 DUP4 PUSH3 0x1CF JUMP JUMPDEST SWAP3 POP DUP3 PUSH3 0x235 JUMPI PUSH3 0x234 PUSH3 0x1D9 JUMP JUMPDEST JUMPDEST DUP3 DUP3 MOD SWAP1 POP SWAP3 SWAP2 POP POP JUMP JUMPDEST PUSH32 0x4E487B7100000000000000000000000000000000000000000000000000000000 PUSH1 0x0 MSTORE PUSH1 0x11 PUSH1 0x4 MSTORE PUSH1 0x24 PUSH1 0x0 REVERT JUMPDEST PUSH1 0x0 PUSH3 0x27C DUP3 PUSH3 0x1CF JUMP JUMPDEST SWAP2 POP PUSH3 0x289 DUP4 PUSH3 0x1CF JUMP JUMPDEST SWAP3 POP DUP3 DUP3 MUL PUSH3 0x299 DUP2 PUSH3 0x1CF JUMP JUMPDEST SWAP2 POP DUP3 DUP3 DIV DUP5 EQ DUP4 ISZERO OR PUSH3 0x2B3 JUMPI PUSH3 0x2B2 PUSH3 0x240 JUMP JUMPDEST JUMPDEST POP SWAP3 SWAP2 POP POP JUMP JUMPDEST PUSH1 0x0 PUSH3 0x2C7 DUP3 PUSH3 0x1CF JUMP JUMPDEST SWAP2 POP PUSH32 0xFFFFFFFFFFFFFFFFFFFFFFFFFFFFFFFFFFFFFFFFFFFFFFFFFFFFFFFFFFFFFFFF DUP3 SUB PUSH3 0x2FC JUMPI PUSH3 0x2FB PUSH3 0x240 JUMP JUMPDEST JUMPDEST PUSH1 0x1 DUP3 ADD SWAP1 POP SWAP2 SWAP1 POP JUMP JUMPDEST PUSH2 0x1441 DUP1 PUSH3 0x317 PUSH1 0x0 CODECOPY PUSH1 0x0 RETURN INVALID PUSH1 0x80 PUSH1 0x40 MSTORE CALLVALUE DUP1 ISZERO PUSH2 0x10 JUMPI PUSH1 0x0 DUP1 REVERT JUMPDEST POP PUSH1 0x4 CALLDATASIZE LT PUSH2 0xEA JUMPI PUSH1 0x0 CALLDATALOAD PUSH1 0xE0 SHR DUP1 PUSH4 0xAB57B8EF GT PUSH2 0x8C JUMPI DUP1 PUSH4 0xD014C01F GT PUSH2 0x66 JUMPI DUP1 PUSH4 0xD014C01F EQ PUSH2 0x255 JUMPI DUP1 PUSH4 0xDBDA3621 EQ PUSH2 0x271 JUMPI DUP1 PUSH4 0xE1FA7638 EQ PUSH2 0x2A1 JUMPI DUP1 PUSH4 0xEFB4D32F EQ PUSH2 0x2BD JUMPI PUSH2 0xEA JUMP JUMPDEST DUP1 PUSH4 0xAB57B8EF EQ PUSH2 0x1FB JUMPI DUP1 PUSH4 0xBDB337D1 EQ PUSH2 0x219 JUMPI DUP1 PUSH4 0xC0A487B8 EQ PUSH2 0x237 JUMPI PUSH2 0xEA JUMP JUMPDEST DUP1 PUSH4 0x722FED7E GT PUSH2 0xC8 JUMPI DUP1 PUSH4 0x722FED7E EQ PUSH2 0x15B JUMPI DUP1 PUSH4 0x8BC86154 EQ PUSH2 0x179 JUMPI DUP1 PUSH4 0x8DC10768 EQ PUSH2 0x197 JUMPI DUP1 PUSH4 0x9394E718 EQ PUSH2 0x1CB JUMPI PUSH2 0xEA JUMP JUMPDEST DUP1 PUSH4 0xE04A7D8 EQ PUSH2 0xEF JUMPI DUP1 PUSH4 0x21D7F050 EQ PUSH2 0x10D JUMPI DUP1 PUSH4 0x2F0D3356 EQ PUSH2 0x13D JUMPI JUMPDEST PUSH1 0x0 DUP1 REVERT JUMPDEST PUSH2 0xF7 PUSH2 0x2DB JUMP JUMPDEST PUSH1 0x40 MLOAD PUSH2 0x104 SWAP2 SWAP1 PUSH2 0xD5E JUMP JUMPDEST PUSH1 0x40 MLOAD DUP1 SWAP2 SUB SWAP1 RETURN JUMPDEST PUSH2 0x127 PUSH1 0x4 DUP1 CALLDATASIZE SUB DUP2 ADD SWAP1 PUSH2 0x122 SWAP2 SWAP1 PUSH2 0xDB4 JUMP JUMPDEST PUSH2 0x2F2 JUMP JUMPDEST PUSH1 0x40 MLOAD PUSH2 0x134 SWAP2 SWAP1 PUSH2 0xDF0 JUMP JUMPDEST PUSH1 0x40 MLOAD DUP1 SWAP2 SUB SWAP1 RETURN JUMPDEST PUSH2 0x145 PUSH2 0x316 JUMP JUMPDEST PUSH1 0x40 MLOAD PUSH2 0x152 SWAP2 SWAP1 PUSH2 0xE4C JUMP JUMPDEST PUSH1 0x40 MLOAD DUP1 SWAP2 SUB SWAP1 RETURN JUMPDEST PUSH2 0x163 PUSH2 0x33C JUMP JUMPDEST PUSH1 0x40 MLOAD PUSH2 0x170 SWAP2 SWAP1 PUSH2 0xEDE JUMP JUMPDEST PUSH1 0x40 MLOAD DUP1 SWAP2 SUB SWAP1 RETURN JUMPDEST PUSH2 0x181 PUSH2 0x34F JUMP JUMPDEST PUSH1 0x40 MLOAD PUSH2 0x18E SWAP2 SWAP1 PUSH2 0xE4C JUMP JUMPDEST PUSH1 0x40 MLOAD DUP1 SWAP2 SUB SWAP1 RETURN JUMPDEST PUSH2 0x1B1 PUSH1 0x4 DUP1 CALLDATASIZE SUB DUP2 ADD SWAP1 PUSH2 0x1AC SWAP2 SWAP1 PUSH2 0xDB4 JUMP JUMPDEST PUSH2 0x375 JUMP JUMPDEST PUSH1 0x40 MLOAD PUSH2 0x1C2 SWAP6 SWAP5 SWAP4 SWAP3 SWAP2 SWAP1 PUSH2 0xEF9 JUMP JUMPDEST PUSH1 0x40 MLOAD DUP1 SWAP2 SUB SWAP1 RETURN JUMPDEST PUSH2 0x1E5 PUSH1 0x4 DUP1 CALLDATASIZE SUB DUP2 ADD SWAP1 PUSH2 0x1E0 SWAP2 SWAP1 PUSH2 0xDB4 JUMP JUMPDEST PUSH2 0x3C5 JUMP JUMPDEST PUSH1 0x40 MLOAD PUSH2 0x1F2 SWAP2 SWAP1 PUSH2 0xDF0 JUMP JUMPDEST PUSH1 0x40 MLOAD DUP1 SWAP2 SUB SWAP1 RETURN JUMPDEST PUSH2 0x203 PUSH2 0x3E9 JUMP JUMPDEST PUSH1 0x40 MLOAD PUSH2 0x210 SWAP2 SWAP1 PUSH2 0xD5E JUMP JUMPDEST PUSH1 0x40 MLOAD DUP1 SWAP2 SUB SWAP1 RETURN JUMPDEST PUSH2 0x221 PUSH2 0x3FC JUMP JUMPDEST PUSH1 0x40 MLOAD PUSH2 0x22E SWAP2 SWAP1 PUSH2 0xD5E JUMP JUMPDEST PUSH1 0x40 MLOAD DUP1 SWAP2 SUB SWAP1 RETURN JUMPDEST PUSH2 0x23F PUSH2 0x40F JUMP JUMPDEST PUSH1 0x40 MLOAD PUSH2 0x24C SWAP2 SWAP1 PUSH2 0xD5E JUMP JUMPDEST PUSH1 0x40 MLOAD DUP1 SWAP2 SUB SWAP1 RETURN JUMPDEST PUSH2 0x26F PUSH1 0x4 DUP1 CALLDATASIZE SUB DUP2 ADD SWAP1 PUSH2 0x26A SWAP2 SWAP1 PUSH2 0xF78 JUMP JUMPDEST PUSH2 0x422 JUMP JUMPDEST STOP JUMPDEST PUSH2 0x28B PUSH1 0x4 DUP1 CALLDATASIZE SUB DUP2 ADD SWAP1 PUSH2 0x286 SWAP2 SWAP1 PUSH2 0xFD1 JUMP JUMPDEST PUSH2 0x62E JUMP JUMPDEST PUSH1 0x40 MLOAD PUSH2 0x298 SWAP2 SWAP1 PUSH2 0x10A9 JUMP JUMPDEST PUSH1 0x40 MLOAD DUP1 SWAP2 SUB SWAP1 RETURN JUMPDEST PUSH2 0x2BB PUSH1 0x4 DUP1 CALLDATASIZE SUB DUP2 ADD SWAP1 PUSH2 0x2B6 SWAP2 SWAP1 PUSH2 0x10C4 JUMP JUMPDEST PUSH2 0x7A5 JUMP JUMPDEST STOP JUMPDEST PUSH2 0x2C5 PUSH2 0xD0E JUMP JUMPDEST PUSH1 0x40 MLOAD PUSH2 0x2D2 SWAP2 SWAP1 PUSH2 0xD5E JUMP JUMPDEST PUSH1 0x40 MLOAD DUP1 SWAP2 SUB SWAP1 RETURN JUMPDEST PUSH1 0x0 PUSH1 0x2 PUSH1 0x17 SWAP1 SLOAD SWAP1 PUSH2 0x100 EXP SWAP1 DIV PUSH1 0xFF AND SWAP1 POP SWAP1 JUMP JUMPDEST PUSH1 0x3 DUP2 DUP2 SLOAD DUP2 LT PUSH2 0x302 JUMPI PUSH1 0x0 DUP1 REVERT JUMPDEST SWAP1 PUSH1 0x0 MSTORE PUSH1 0x20 PUSH1 0x0 KECCAK256 ADD PUSH1 0x0 SWAP2 POP SWAP1 POP SLOAD DUP2 JUMP JUMPDEST PUSH1 0x1 PUSH1 0x0 SWAP1 SLOAD SWAP1 PUSH2 0x100 EXP SWAP1 DIV PUSH20 0xFFFFFFFFFFFFFFFFFFFFFFFFFFFFFFFFFFFFFFFF AND DUP2 JUMP JUMPDEST PUSH1 0x2 PUSH1 0x18 SWAP1 SLOAD SWAP1 PUSH2 0x100 EXP SWAP1 DIV PUSH1 0xFF AND DUP2 JUMP JUMPDEST PUSH1 0x2 PUSH1 0x0 SWAP1 SLOAD SWAP1 PUSH2 0x100 EXP SWAP1 DIV PUSH20 0xFFFFFFFFFFFFFFFFFFFFFFFFFFFFFFFFFFFFFFFF AND DUP2 JUMP JUMPDEST PUSH1 0x0 PUSH1 0x20 MSTORE DUP1 PUSH1 0x0 MSTORE PUSH1 0x40 PUSH1 0x0 KECCAK256 PUSH1 0x0 SWAP2 POP SWAP1 POP DUP1 PUSH1 0x0 ADD SLOAD SWAP1 DUP1 PUSH1 0x1 ADD SLOAD SWAP1 DUP1 PUSH1 0x2 ADD SLOAD SWAP1 DUP1 PUSH1 0x3 ADD PUSH1 0x0 SWAP1 SLOAD SWAP1 PUSH2 0x100 EXP SWAP1 DIV PUSH1 0xFF AND SWAP1 DUP1 PUSH1 0x3 ADD PUSH1 0x1 SWAP1 SLOAD SWAP1 PUSH2 0x100 EXP SWAP1 DIV PUSH1 0xFF AND SWAP1 POP DUP6 JUMP JUMPDEST PUSH1 0x4 DUP2 DUP2 SLOAD DUP2 LT PUSH2 0x3D5 JUMPI PUSH1 0x0 DUP1 REVERT JUMPDEST SWAP1 PUSH1 0x0 MSTORE PUSH1 0x20 PUSH1 0x0 KECCAK256 ADD PUSH1 0x0 SWAP2 POP SWAP1 POP SLOAD DUP2 JUMP JUMPDEST PUSH1 0x2 PUSH1 0x16 SWAP1 SLOAD SWAP1 PUSH2 0x100 EXP SWAP1 DIV PUSH1 0xFF AND DUP2 JUMP JUMPDEST PUSH1 0x2 PUSH1 0x17 SWAP1 SLOAD SWAP1 PUSH2 0x100 EXP SWAP1 DIV PUSH1 0xFF AND DUP2 JUMP JUMPDEST PUSH1 0x2 PUSH1 0x14 SWAP1 SLOAD SWAP1 PUSH2 0x100 EXP SWAP1 DIV PUSH1 0xFF AND DUP2 JUMP JUMPDEST PUSH1 0x2 PUSH1 0x17 SWAP1 SLOAD SWAP1 PUSH2 0x100 EXP SWAP1 DIV PUSH1 0xFF AND ISZERO PUSH2 0x472 JUMPI PUSH1 0x40 MLOAD PUSH32 0x8C379A000000000000000000000000000000000000000000000000000000000 DUP2 MSTORE PUSH1 0x4 ADD PUSH2 0x469 SWAP1 PUSH2 0x1161 JUMP JUMPDEST PUSH1 0x40 MLOAD DUP1 SWAP2 SUB SWAP1 REVERT JUMPDEST PUSH1 0x0 PUSH1 0x2 DUP2 GT ISZERO PUSH2 0x486 JUMPI PUSH2 0x485 PUSH2 0xE67 JUMP JUMPDEST JUMPDEST PUSH1 0x2 PUSH1 0x18 SWAP1 SLOAD SWAP1 PUSH2 0x100 EXP SWAP1 DIV PUSH1 0xFF AND PUSH1 0x2 DUP2 GT ISZERO PUSH2 0x4A8 JUMPI PUSH2 0x4A7 PUSH2 0xE67 JUMP JUMPDEST JUMPDEST EQ PUSH2 0x4E8 JUMPI PUSH1 0x40 MLOAD PUSH32 0x8C379A000000000000000000000000000000000000000000000000000000000 DUP2 MSTORE PUSH1 0x4 ADD PUSH2 0x4DF SWAP1 PUSH2 0x11CD JUMP JUMPDEST PUSH1 0x40 MLOAD DUP1 SWAP2 SUB SWAP1 REVERT JUMPDEST PUSH1 0x2 PUSH1 0x14 SWAP1 SLOAD SWAP1 PUSH2 0x100 EXP SWAP1 DIV PUSH1 0xFF AND PUSH2 0x55D JUMPI DUP1 PUSH1 0x1 PUSH1 0x0 PUSH2 0x100 EXP DUP2 SLOAD DUP2 PUSH20 0xFFFFFFFFFFFFFFFFFFFFFFFFFFFFFFFFFFFFFFFF MUL NOT AND SWAP1 DUP4 PUSH20 0xFFFFFFFFFFFFFFFFFFFFFFFFFFFFFFFFFFFFFFFF AND MUL OR SWAP1 SSTORE POP PUSH1 0x1 PUSH1 0x2 PUSH1 0x14 PUSH2 0x100 EXP DUP2 SLOAD DUP2 PUSH1 0xFF MUL NOT AND SWAP1 DUP4 ISZERO ISZERO MUL OR SWAP1 SSTORE POP PUSH2 0x62B JUMP JUMPDEST PUSH1 0x2 PUSH1 0x15 SWAP1 SLOAD SWAP1 PUSH2 0x100 EXP SWAP1 DIV PUSH1 0xFF AND PUSH2 0x5D2 JUMPI DUP1 PUSH1 0x2 PUSH1 0x0 PUSH2 0x100 EXP DUP2 SLOAD DUP2 PUSH20 0xFFFFFFFFFFFFFFFFFFFFFFFFFFFFFFFFFFFFFFFF MUL NOT AND SWAP1 DUP4 PUSH20 0xFFFFFFFFFFFFFFFFFFFFFFFFFFFFFFFFFFFFFFFF AND MUL OR SWAP1 SSTORE POP PUSH1 0x1 PUSH1 0x2 PUSH1 0x15 PUSH2 0x100 EXP DUP2 SLOAD DUP2 PUSH1 0xFF MUL NOT AND SWAP1 DUP4 ISZERO ISZERO MUL OR SWAP1 SSTORE POP PUSH2 0x62A JUMP JUMPDEST PUSH1 0x1 PUSH1 0x2 PUSH1 0x18 PUSH2 0x100 EXP DUP2 SLOAD DUP2 PUSH1 0xFF MUL NOT AND SWAP1 DUP4 PUSH1 0x2 DUP2 GT ISZERO PUSH2 0x5F8 JUMPI PUSH2 0x5F7 PUSH2 0xE67 JUMP JUMPDEST JUMPDEST MUL OR SWAP1 SSTORE POP PUSH32 0x762F260439BB4BE3EF6E4DC2786E2E7BD187D3D80B79057D7A424FE98563E335 PUSH1 0x40 MLOAD PUSH1 0x40 MLOAD DUP1 SWAP2 SUB SWAP1 LOG1 JUMPDEST JUMPDEST POP JUMP JUMPDEST PUSH2 0x636 PUSH2 0xD21 JUMP JUMPDEST PUSH2 0x63E PUSH2 0xD21 JUMP JUMPDEST PUSH1 0x1 ISZERO ISZERO DUP4 ISZERO ISZERO SUB PUSH2 0x6F5 JUMPI PUSH1 0x0 JUMPDEST PUSH1 0x4 DUP1 SLOAD SWAP1 POP DUP2 LT ISZERO PUSH2 0x6EF JUMPI PUSH1 0x0 DUP1 PUSH1 0x4 DUP4 DUP2 SLOAD DUP2 LT PUSH2 0x671 JUMPI PUSH2 0x670 PUSH2 0x11ED JUMP JUMPDEST JUMPDEST SWAP1 PUSH1 0x0 MSTORE PUSH1 0x20 PUSH1 0x0 KECCAK256 ADD SLOAD DUP2 MSTORE PUSH1 0x20 ADD SWAP1 DUP2 MSTORE PUSH1 0x20 ADD PUSH1 0x0 KECCAK256 PUSH1 0x3 ADD PUSH1 0x0 SWAP1 SLOAD SWAP1 PUSH2 0x100 EXP SWAP1 DIV PUSH1 0xFF AND ISZERO PUSH2 0x6DC JUMPI PUSH1 0x4 DUP2 DUP2 SLOAD DUP2 LT PUSH2 0x6B4 JUMPI PUSH2 0x6B3 PUSH2 0x11ED JUMP JUMPDEST JUMPDEST SWAP1 PUSH1 0x0 MSTORE PUSH1 0x20 PUSH1 0x0 KECCAK256 ADD SLOAD DUP3 DUP3 PUSH1 0x5 DUP2 LT PUSH2 0x6D2 JUMPI PUSH2 0x6D1 PUSH2 0x11ED JUMP JUMPDEST JUMPDEST PUSH1 0x20 MUL ADD DUP2 DUP2 MSTORE POP POP JUMPDEST DUP1 DUP1 PUSH2 0x6E7 SWAP1 PUSH2 0x124B JUMP JUMPDEST SWAP2 POP POP PUSH2 0x64D JUMP JUMPDEST POP PUSH2 0x79C JUMP JUMPDEST PUSH1 0x0 JUMPDEST PUSH1 0x3 DUP1 SLOAD SWAP1 POP DUP2 LT ISZERO PUSH2 0x79A JUMPI PUSH1 0x0 DUP1 PUSH1 0x3 DUP4 DUP2 SLOAD DUP2 LT PUSH2 0x71C JUMPI PUSH2 0x71B PUSH2 0x11ED JUMP JUMPDEST JUMPDEST SWAP1 PUSH1 0x0 MSTORE PUSH1 0x20 PUSH1 0x0 KECCAK256 ADD SLOAD DUP2 MSTORE PUSH1 0x20 ADD SWAP1 DUP2 MSTORE PUSH1 0x20 ADD PUSH1 0x0 KECCAK256 PUSH1 0x3 ADD PUSH1 0x0 SWAP1 SLOAD SWAP1 PUSH2 0x100 EXP SWAP1 DIV PUSH1 0xFF AND ISZERO PUSH2 0x787 JUMPI PUSH1 0x3 DUP2 DUP2 SLOAD DUP2 LT PUSH2 0x75F JUMPI PUSH2 0x75E PUSH2 0x11ED JUMP JUMPDEST JUMPDEST SWAP1 PUSH1 0x0 MSTORE PUSH1 0x20 PUSH1 0x0 KECCAK256 ADD SLOAD DUP3 DUP3 PUSH1 0x5 DUP2 LT PUSH2 0x77D JUMPI PUSH2 0x77C PUSH2 0x11ED JUMP JUMPDEST JUMPDEST PUSH1 0x20 MUL ADD DUP2 DUP2 MSTORE POP POP JUMPDEST DUP1 DUP1 PUSH2 0x792 SWAP1 PUSH2 0x124B JUMP JUMPDEST SWAP2 POP POP PUSH2 0x6F8 JUMP JUMPDEST POP JUMPDEST DUP1 SWAP2 POP POP SWAP2 SWAP1 POP JUMP JUMPDEST PUSH1 0x0 PUSH1 0x2 DUP2 GT ISZERO PUSH2 0x7B9 JUMPI PUSH2 0x7B8 PUSH2 0xE67 JUMP JUMPDEST JUMPDEST PUSH1 0x2 PUSH1 0x18 SWAP1 SLOAD SWAP1 PUSH2 0x100 EXP SWAP1 DIV PUSH1 0xFF AND PUSH1 0x2 DUP2 GT ISZERO PUSH2 0x7DB JUMPI PUSH2 0x7DA PUSH2 0xE67 JUMP JUMPDEST JUMPDEST SUB PUSH2 0x81B JUMPI PUSH1 0x40 MLOAD PUSH32 0x8C379A000000000000000000000000000000000000000000000000000000000 DUP2 MSTORE PUSH1 0x4 ADD PUSH2 0x812 SWAP1 PUSH2 0x12DF JUMP JUMPDEST PUSH1 0x40 MLOAD DUP1 SWAP2 SUB SWAP1 REVERT JUMPDEST PUSH1 0x2 PUSH1 0x17 SWAP1 SLOAD SWAP1 PUSH2 0x100 EXP SWAP1 DIV PUSH1 0xFF AND ISZERO PUSH2 0x86B JUMPI PUSH1 0x40 MLOAD PUSH32 0x8C379A000000000000000000000000000000000000000000000000000000000 DUP2 MSTORE PUSH1 0x4 ADD PUSH2 0x862 SWAP1 PUSH2 0x1161 JUMP JUMPDEST PUSH1 0x40 MLOAD DUP1 SWAP2 SUB SWAP1 REVERT JUMPDEST PUSH1 0x1 PUSH1 0x0 SWAP1 SLOAD SWAP1 PUSH2 0x100 EXP SWAP1 DIV PUSH20 0xFFFFFFFFFFFFFFFFFFFFFFFFFFFFFFFFFFFFFFFF AND PUSH20 0xFFFFFFFFFFFFFFFFFFFFFFFFFFFFFFFFFFFFFFFF AND CALLER PUSH20 0xFFFFFFFFFFFFFFFFFFFFFFFFFFFFFFFFFFFFFFFF AND EQ DUP1 ISZERO PUSH2 0x8D5 JUMPI POP PUSH1 0x2 PUSH1 0x16 SWAP1 SLOAD SWAP1 PUSH2 0x100 EXP SWAP1 DIV PUSH1 0xFF AND ISZERO JUMPDEST DUP1 PUSH2 0x945 JUMPI POP PUSH1 0x2 PUSH1 0x0 SWAP1 SLOAD SWAP1 PUSH2 0x100 EXP SWAP1 DIV PUSH20 0xFFFFFFFFFFFFFFFFFFFFFFFFFFFFFFFFFFFFFFFF AND PUSH20 0xFFFFFFFFFFFFFFFFFFFFFFFFFFFFFFFFFFFFFFFF AND CALLER PUSH20 0xFFFFFFFFFFFFFFFFFFFFFFFFFFFFFFFFFFFFFFFF AND EQ DUP1 ISZERO PUSH2 0x944 JUMPI POP PUSH1 0x2 PUSH1 0x16 SWAP1 SLOAD SWAP1 PUSH2 0x100 EXP SWAP1 DIV PUSH1 0xFF AND JUMPDEST JUMPDEST PUSH2 0x984 JUMPI PUSH1 0x40 MLOAD PUSH32 0x8C379A000000000000000000000000000000000000000000000000000000000 DUP2 MSTORE PUSH1 0x4 ADD PUSH2 0x97B SWAP1 PUSH2 0x134B JUMP JUMPDEST PUSH1 0x40 MLOAD DUP1 SWAP2 SUB SWAP1 REVERT JUMPDEST PUSH1 0x0 DUP1 DUP3 DUP2 MSTORE PUSH1 0x20 ADD SWAP1 DUP2 MSTORE PUSH1 0x20 ADD PUSH1 0x0 KECCAK256 PUSH1 0x3 ADD PUSH1 0x0 SWAP1 SLOAD SWAP1 PUSH2 0x100 EXP SWAP1 DIV PUSH1 0xFF AND PUSH2 0x9E6 JUMPI PUSH1 0x40 MLOAD PUSH32 0x8C379A000000000000000000000000000000000000000000000000000000000 DUP2 MSTORE PUSH1 0x4 ADD PUSH2 0x9DD SWAP1 PUSH2 0x13B7 JUMP JUMPDEST PUSH1 0x40 MLOAD DUP1 SWAP2 SUB SWAP1 REVERT JUMPDEST PUSH1 0x0 DUP1 DUP4 DUP2 MSTORE PUSH1 0x20 ADD SWAP1 DUP2 MSTORE PUSH1 0x20 ADD PUSH1 0x0 KECCAK256 PUSH1 0x3 ADD PUSH1 0x0 SWAP1 SLOAD SWAP1 PUSH2 0x100 EXP SWAP1 DIV PUSH1 0xFF AND PUSH2 0xA48 JUMPI PUSH1 0x40 MLOAD PUSH32 0x8C379A000000000000000000000000000000000000000000000000000000000 DUP2 MSTORE PUSH1 0x4 ADD PUSH2 0xA3F SWAP1 PUSH2 0x13B7 JUMP JUMPDEST PUSH1 0x40 MLOAD DUP1 SWAP2 SUB SWAP1 REVERT JUMPDEST PUSH1 0x0 DUP1 DUP4 DUP2 MSTORE PUSH1 0x20 ADD SWAP1 DUP2 MSTORE PUSH1 0x20 ADD PUSH1 0x0 KECCAK256 PUSH1 0x1 ADD SLOAD PUSH1 0x0 DUP1 DUP4 DUP2 MSTORE PUSH1 0x20 ADD SWAP1 DUP2 MSTORE PUSH1 0x20 ADD PUSH1 0x0 KECCAK256 PUSH1 0x2 ADD SLOAD GT PUSH2 0xC63 JUMPI PUSH1 0x0 DUP1 PUSH1 0x0 DUP4 DUP2 MSTORE PUSH1 0x20 ADD SWAP1 DUP2 MSTORE PUSH1 0x20 ADD PUSH1 0x0 KECCAK256 PUSH1 0x3 ADD PUSH1 0x0 PUSH2 0x100 EXP DUP2 SLOAD DUP2 PUSH1 0xFF MUL NOT AND SWAP1 DUP4 ISZERO ISZERO MUL OR SWAP1 SSTORE POP CALLER PUSH20 0xFFFFFFFFFFFFFFFFFFFFFFFFFFFFFFFFFFFFFFFF AND PUSH1 0x1 PUSH1 0x0 SWAP1 SLOAD SWAP1 PUSH2 0x100 EXP SWAP1 DIV PUSH20 0xFFFFFFFFFFFFFFFFFFFFFFFFFFFFFFFFFFFFFFFF AND PUSH20 0xFFFFFFFFFFFFFFFFFFFFFFFFFFFFFFFFFFFFFFFF AND SUB PUSH2 0xB15 JUMPI PUSH1 0x5 PUSH1 0x0 DUP2 SLOAD DUP1 SWAP3 SWAP2 SWAP1 PUSH2 0xB0F SWAP1 PUSH2 0x124B JUMP JUMPDEST SWAP2 SWAP1 POP SSTORE POP JUMPDEST CALLER PUSH20 0xFFFFFFFFFFFFFFFFFFFFFFFFFFFFFFFFFFFFFFFF AND PUSH1 0x2 PUSH1 0x0 SWAP1 SLOAD SWAP1 PUSH2 0x100 EXP SWAP1 DIV PUSH20 0xFFFFFFFFFFFFFFFFFFFFFFFFFFFFFFFFFFFFFFFF AND PUSH20 0xFFFFFFFFFFFFFFFFFFFFFFFFFFFFFFFFFFFFFFFF AND SUB PUSH2 0xB83 JUMPI PUSH1 0x6 PUSH1 0x0 DUP2 SLOAD DUP1 SWAP3 SWAP2 SWAP1 PUSH2 0xB7D SWAP1 PUSH2 0x124B JUMP JUMPDEST SWAP2 SWAP1 POP SSTORE POP JUMPDEST PUSH1 0x5 DUP1 SLOAD SUB PUSH2 0xBF0 JUMPI PUSH1 0x2 PUSH1 0x0 SWAP1 SLOAD SWAP1 PUSH2 0x100 EXP SWAP1 DIV PUSH20 0xFFFFFFFFFFFFFFFFFFFFFFFFFFFFFFFFFFFFFFFF AND PUSH1 0x7 PUSH1 0x0 PUSH2 0x100 EXP DUP2 SLOAD DUP2 PUSH20 0xFFFFFFFFFFFFFFFFFFFFFFFFFFFFFFFFFFFFFFFF MUL NOT AND SWAP1 DUP4 PUSH20 0xFFFFFFFFFFFFFFFFFFFFFFFFFFFFFFFFFFFFFFFF AND MUL OR SWAP1 SSTORE POP JUMPDEST PUSH1 0x5 PUSH1 0x6 SLOAD SUB PUSH2 0xC5E JUMPI PUSH1 0x1 PUSH1 0x0 SWAP1 SLOAD SWAP1 PUSH2 0x100 EXP SWAP1 DIV PUSH20 0xFFFFFFFFFFFFFFFFFFFFFFFFFFFFFFFFFFFFFFFF AND PUSH1 0x7 PUSH1 0x0 PUSH2 0x100 EXP DUP2 SLOAD DUP2 PUSH20 0xFFFFFFFFFFFFFFFFFFFFFFFFFFFFFFFFFFFFFFFF MUL NOT AND SWAP1 DUP4 PUSH20 0xFFFFFFFFFFFFFFFFFFFFFFFFFFFFFFFFFFFFFFFF AND MUL OR SWAP1 SSTORE POP JUMPDEST PUSH2 0xCA5 JUMP JUMPDEST PUSH1 0x0 DUP1 DUP4 DUP2 MSTORE PUSH1 0x20 ADD SWAP1 DUP2 MSTORE PUSH1 0x20 ADD PUSH1 0x0 KECCAK256 PUSH1 0x1 ADD SLOAD PUSH1 0x0 DUP1 DUP4 DUP2 MSTORE PUSH1 0x20 ADD SWAP1 DUP2 MSTORE PUSH1 0x20 ADD PUSH1 0x0 KECCAK256 PUSH1 0x2 ADD PUSH1 0x0 DUP3 DUP3 SLOAD PUSH2 0xC9D SWAP2 SWAP1 PUSH2 0x13D7 JUMP JUMPDEST SWAP3 POP POP DUP2 SWAP1 SSTORE POP JUMPDEST PUSH1 0x7 PUSH1 0x0 SWAP1 SLOAD SWAP1 PUSH2 0x100 EXP SWAP1 DIV PUSH20 0xFFFFFFFFFFFFFFFFFFFFFFFFFFFFFFFFFFFFFFFF AND PUSH20 0xFFFFFFFFFFFFFFFFFFFFFFFFFFFFFFFFFFFFFFFF AND PUSH32 0xBBCA850EF098F4A3CE49A0770CA2E6E176215B97D03B6EA812DFD3586C1A6DAD PUSH1 0x40 MLOAD PUSH1 0x40 MLOAD DUP1 SWAP2 SUB SWAP1 LOG2 POP POP JUMP JUMPDEST PUSH1 0x2 PUSH1 0x15 SWAP1 SLOAD SWAP1 PUSH2 0x100 EXP SWAP1 DIV PUSH1 0xFF AND DUP2 JUMP JUMPDEST PUSH1 0x40 MLOAD DUP1 PUSH1 0xA0 ADD PUSH1 0x40 MSTORE DUP1 PUSH1 0x5 SWAP1 PUSH1 0x20 DUP3 MUL DUP1 CALLDATASIZE DUP4 CALLDATACOPY DUP1 DUP3 ADD SWAP2 POP POP SWAP1 POP POP SWAP1 JUMP JUMPDEST PUSH1 0x0 DUP2 ISZERO ISZERO SWAP1 POP SWAP2 SWAP1 POP JUMP JUMPDEST PUSH2 0xD58 DUP2 PUSH2 0xD43 JUMP JUMPDEST DUP3 MSTORE POP POP JUMP JUMPDEST PUSH1 0x0 PUSH1 0x20 DUP3 ADD SWAP1 POP PUSH2 0xD73 PUSH1 0x0 DUP4 ADD DUP5 PUSH2 0xD4F JUMP JUMPDEST SWAP3 SWAP2 POP POP JUMP JUMPDEST PUSH1 0x0 DUP1 REVERT JUMPDEST PUSH1 0x0 DUP2 SWAP1 POP SWAP2 SWAP1 POP JUMP JUMPDEST PUSH2 0xD91 DUP2 PUSH2 0xD7E JUMP JUMPDEST DUP2 EQ PUSH2 0xD9C JUMPI PUSH1 0x0 DUP1 REVERT JUMPDEST POP JUMP JUMPDEST PUSH1 0x0 DUP2 CALLDATALOAD SWAP1 POP PUSH2 0xDAE DUP2 PUSH2 0xD88 JUMP JUMPDEST SWAP3 SWAP2 POP POP JUMP JUMPDEST PUSH1 0x0 PUSH1 0x20 DUP3 DUP5 SUB SLT ISZERO PUSH2 0xDCA JUMPI PUSH2 0xDC9 PUSH2 0xD79 JUMP JUMPDEST JUMPDEST PUSH1 0x0 PUSH2 0xDD8 DUP5 DUP3 DUP6 ADD PUSH2 0xD9F JUMP JUMPDEST SWAP2 POP POP SWAP3 SWAP2 POP POP JUMP JUMPDEST PUSH2 0xDEA DUP2 PUSH2 0xD7E JUMP JUMPDEST DUP3 MSTORE POP POP JUMP JUMPDEST PUSH1 0x0 PUSH1 0x20 DUP3 ADD SWAP1 POP PUSH2 0xE05 PUSH1 0x0 DUP4 ADD DUP5 PUSH2 0xDE1 JUMP JUMPDEST SWAP3 SWAP2 POP POP JUMP JUMPDEST PUSH1 0x0 PUSH20 0xFFFFFFFFFFFFFFFFFFFFFFFFFFFFFFFFFFFFFFFF DUP3 AND SWAP1 POP SWAP2 SWAP1 POP JUMP JUMPDEST PUSH1 0x0 PUSH2 0xE36 DUP3 PUSH2 0xE0B JUMP JUMPDEST SWAP1 POP SWAP2 SWAP1 POP JUMP JUMPDEST PUSH2 0xE46 DUP2 PUSH2 0xE2B JUMP JUMPDEST DUP3 MSTORE POP POP JUMP JUMPDEST PUSH1 0x0 PUSH1 0x20 DUP3 ADD SWAP1 POP PUSH2 0xE61 PUSH1 0x0 DUP4 ADD DUP5 PUSH2 0xE3D JUMP JUMPDEST SWAP3 SWAP2 POP POP JUMP JUMPDEST PUSH32 0x4E487B7100000000000000000000000000000000000000000000000000000000 PUSH1 0x0 MSTORE PUSH1 0x21 PUSH1 0x4 MSTORE PUSH1 0x24 PUSH1 0x0 REVERT JUMPDEST PUSH1 0x3 DUP2 LT PUSH2 0xEA7 JUMPI PUSH2 0xEA6 PUSH2 0xE67 JUMP JUMPDEST JUMPDEST POP JUMP JUMPDEST PUSH1 0x0 DUP2 SWAP1 POP PUSH2 0xEB8 DUP3 PUSH2 0xE96 JUMP JUMPDEST SWAP2 SWAP1 POP JUMP JUMPDEST PUSH1 0x0 PUSH2 0xEC8 DUP3 PUSH2 0xEAA JUMP JUMPDEST SWAP1 POP SWAP2 SWAP1 POP JUMP JUMPDEST PUSH2 0xED8 DUP2 PUSH2 0xEBD JUMP JUMPDEST DUP3 MSTORE POP POP JUMP JUMPDEST PUSH1 0x0 PUSH1 0x20 DUP3 ADD SWAP1 POP PUSH2 0xEF3 PUSH1 0x0 DUP4 ADD DUP5 PUSH2 0xECF JUMP JUMPDEST SWAP3 SWAP2 POP POP JUMP JUMPDEST PUSH1 0x0 PUSH1 0xA0 DUP3 ADD SWAP1 POP PUSH2 0xF0E PUSH1 0x0 DUP4 ADD DUP9 PUSH2 0xDE1 JUMP JUMPDEST PUSH2 0xF1B PUSH1 0x20 DUP4 ADD DUP8 PUSH2 0xDE1 JUMP JUMPDEST PUSH2 0xF28 PUSH1 0x40 DUP4 ADD DUP7 PUSH2 0xDE1 JUMP JUMPDEST PUSH2 0xF35 PUSH1 0x60 DUP4 ADD DUP6 PUSH2 0xD4F JUMP JUMPDEST PUSH2 0xF42 PUSH1 0x80 DUP4 ADD DUP5 PUSH2 0xD4F JUMP JUMPDEST SWAP7 SWAP6 POP POP POP POP POP POP JUMP JUMPDEST PUSH2 0xF55 DUP2 PUSH2 0xE2B JUMP JUMPDEST DUP2 EQ PUSH2 0xF60 JUMPI PUSH1 0x0 DUP1 REVERT JUMPDEST POP JUMP JUMPDEST PUSH1 0x0 DUP2 CALLDATALOAD SWAP1 POP PUSH2 0xF72 DUP2 PUSH2 0xF4C JUMP JUMPDEST SWAP3 SWAP2 POP POP JUMP JUMPDEST PUSH1 0x0 PUSH1 0x20 DUP3 DUP5 SUB SLT ISZERO PUSH2 0xF8E JUMPI PUSH2 0xF8D PUSH2 0xD79 JUMP JUMPDEST JUMPDEST PUSH1 0x0 PUSH2 0xF9C DUP5 DUP3 DUP6 ADD PUSH2 0xF63 JUMP JUMPDEST SWAP2 POP POP SWAP3 SWAP2 POP POP JUMP JUMPDEST PUSH2 0xFAE DUP2 PUSH2 0xD43 JUMP JUMPDEST DUP2 EQ PUSH2 0xFB9 JUMPI PUSH1 0x0 DUP1 REVERT JUMPDEST POP JUMP JUMPDEST PUSH1 0x0 DUP2 CALLDATALOAD SWAP1 POP PUSH2 0xFCB DUP2 PUSH2 0xFA5 JUMP JUMPDEST SWAP3 SWAP2 POP POP JUMP JUMPDEST PUSH1 0x0 PUSH1 0x20 DUP3 DUP5 SUB SLT ISZERO PUSH2 0xFE7 JUMPI PUSH2 0xFE6 PUSH2 0xD79 JUMP JUMPDEST JUMPDEST PUSH1 0x0 PUSH2 0xFF5 DUP5 DUP3 DUP6 ADD PUSH2 0xFBC JUMP JUMPDEST SWAP2 POP POP SWAP3 SWAP2 POP POP JUMP JUMPDEST PUSH1 0x0 PUSH1 0x5 SWAP1 POP SWAP2 SWAP1 POP JUMP JUMPDEST PUSH1 0x0 DUP2 SWAP1 POP SWAP3 SWAP2 POP POP JUMP JUMPDEST PUSH1 0x0 DUP2 SWAP1 POP SWAP2 SWAP1 POP JUMP JUMPDEST PUSH2 0x1027 DUP2 PUSH2 0xD7E JUMP JUMPDEST DUP3 MSTORE POP POP JUMP JUMPDEST PUSH1 0x0 PUSH2 0x1039 DUP4 DUP4 PUSH2 0x101E JUMP JUMPDEST PUSH1 0x20 DUP4 ADD SWAP1 POP SWAP3 SWAP2 POP POP JUMP JUMPDEST PUSH1 0x0 PUSH1 0x20 DUP3 ADD SWAP1 POP SWAP2 SWAP1 POP JUMP JUMPDEST PUSH2 0x105B DUP2 PUSH2 0xFFE JUMP JUMPDEST PUSH2 0x1065 DUP2 DUP5 PUSH2 0x1009 JUMP JUMPDEST SWAP3 POP PUSH2 0x1070 DUP3 PUSH2 0x1014 JUMP JUMPDEST DUP1 PUSH1 0x0 JUMPDEST DUP4 DUP2 LT ISZERO PUSH2 0x10A1 JUMPI DUP2 MLOAD PUSH2 0x1088 DUP8 DUP3 PUSH2 0x102D JUMP JUMPDEST SWAP7 POP PUSH2 0x1093 DUP4 PUSH2 0x1045 JUMP JUMPDEST SWAP3 POP POP PUSH1 0x1 DUP2 ADD SWAP1 POP PUSH2 0x1074 JUMP JUMPDEST POP POP POP POP POP POP JUMP JUMPDEST PUSH1 0x0 PUSH1 0xA0 DUP3 ADD SWAP1 POP PUSH2 0x10BE PUSH1 0x0 DUP4 ADD DUP5 PUSH2 0x1052 JUMP JUMPDEST SWAP3 SWAP2 POP POP JUMP JUMPDEST PUSH1 0x0 DUP1 PUSH1 0x40 DUP4 DUP6 SUB SLT ISZERO PUSH2 0x10DB JUMPI PUSH2 0x10DA PUSH2 0xD79 JUMP JUMPDEST JUMPDEST PUSH1 0x0 PUSH2 0x10E9 DUP6 DUP3 DUP7 ADD PUSH2 0xD9F JUMP JUMPDEST SWAP3 POP POP PUSH1 0x20 PUSH2 0x10FA DUP6 DUP3 DUP7 ADD PUSH2 0xD9F JUMP JUMPDEST SWAP2 POP POP SWAP3 POP SWAP3 SWAP1 POP JUMP JUMPDEST PUSH1 0x0 DUP3 DUP3 MSTORE PUSH1 0x20 DUP3 ADD SWAP1 POP SWAP3 SWAP2 POP POP JUMP JUMPDEST PUSH32 0x67616D65206F7665720000000000000000000000000000000000000000000000 PUSH1 0x0 DUP3 ADD MSTORE POP JUMP JUMPDEST PUSH1 0x0 PUSH2 0x114B PUSH1 0x9 DUP4 PUSH2 0x1104 JUMP JUMPDEST SWAP2 POP PUSH2 0x1156 DUP3 PUSH2 0x1115 JUMP JUMPDEST PUSH1 0x20 DUP3 ADD SWAP1 POP SWAP2 SWAP1 POP JUMP JUMPDEST PUSH1 0x0 PUSH1 0x20 DUP3 ADD SWAP1 POP DUP2 DUP2 SUB PUSH1 0x0 DUP4 ADD MSTORE PUSH2 0x117A DUP2 PUSH2 0x113E JUMP JUMPDEST SWAP1 POP SWAP2 SWAP1 POP JUMP JUMPDEST PUSH32 0x47616D6520616C72656164792073746172746564210000000000000000000000 PUSH1 0x0 DUP3 ADD MSTORE POP JUMP JUMPDEST PUSH1 0x0 PUSH2 0x11B7 PUSH1 0x15 DUP4 PUSH2 0x1104 JUMP JUMPDEST SWAP2 POP PUSH2 0x11C2 DUP3 PUSH2 0x1181 JUMP JUMPDEST PUSH1 0x20 DUP3 ADD SWAP1 POP SWAP2 SWAP1 POP JUMP JUMPDEST PUSH1 0x0 PUSH1 0x20 DUP3 ADD SWAP1 POP DUP2 DUP2 SUB PUSH1 0x0 DUP4 ADD MSTORE PUSH2 0x11E6 DUP2 PUSH2 0x11AA JUMP JUMPDEST SWAP1 POP SWAP2 SWAP1 POP JUMP JUMPDEST PUSH32 0x4E487B7100000000000000000000000000000000000000000000000000000000 PUSH1 0x0 MSTORE PUSH1 0x32 PUSH1 0x4 MSTORE PUSH1 0x24 PUSH1 0x0 REVERT JUMPDEST PUSH32 0x4E487B7100000000000000000000000000000000000000000000000000000000 PUSH1 0x0 MSTORE PUSH1 0x11 PUSH1 0x4 MSTORE PUSH1 0x24 PUSH1 0x0 REVERT JUMPDEST PUSH1 0x0 PUSH2 0x1256 DUP3 PUSH2 0xD7E JUMP JUMPDEST SWAP2 POP PUSH32 0xFFFFFFFFFFFFFFFFFFFFFFFFFFFFFFFFFFFFFFFFFFFFFFFFFFFFFFFFFFFFFFFF DUP3 SUB PUSH2 0x1288 JUMPI PUSH2 0x1287 PUSH2 0x121C JUMP JUMPDEST JUMPDEST PUSH1 0x1 DUP3 ADD SWAP1 POP SWAP2 SWAP1 POP JUMP JUMPDEST PUSH32 0x47616D6520686173206E6F742073746172746564207965742100000000000000 PUSH1 0x0 DUP3 ADD MSTORE POP JUMP JUMPDEST PUSH1 0x0 PUSH2 0x12C9 PUSH1 0x19 DUP4 PUSH2 0x1104 JUMP JUMPDEST SWAP2 POP PUSH2 0x12D4 DUP3 PUSH2 0x1293 JUMP JUMPDEST PUSH1 0x20 DUP3 ADD SWAP1 POP SWAP2 SWAP1 POP JUMP JUMPDEST PUSH1 0x0 PUSH1 0x20 DUP3 ADD SWAP1 POP DUP2 DUP2 SUB PUSH1 0x0 DUP4 ADD MSTORE PUSH2 0x12F8 DUP2 PUSH2 0x12BC JUMP JUMPDEST SWAP1 POP SWAP2 SWAP1 POP JUMP JUMPDEST PUSH32 0x4E6F7420796F7572207475726E00000000000000000000000000000000000000 PUSH1 0x0 DUP3 ADD MSTORE POP JUMP JUMPDEST PUSH1 0x0 PUSH2 0x1335 PUSH1 0xD DUP4 PUSH2 0x1104 JUMP JUMPDEST SWAP2 POP PUSH2 0x1340 DUP3 PUSH2 0x12FF JUMP JUMPDEST PUSH1 0x20 DUP3 ADD SWAP1 POP SWAP2 SWAP1 POP JUMP JUMPDEST PUSH1 0x0 PUSH1 0x20 DUP3 ADD SWAP1 POP DUP2 DUP2 SUB PUSH1 0x0 DUP4 ADD MSTORE PUSH2 0x1364 DUP2 PUSH2 0x1328 JUMP JUMPDEST SWAP1 POP SWAP2 SWAP1 POP JUMP JUMPDEST PUSH32 0x546869732063617264206973206E6F7420616C69766500000000000000000000 PUSH1 0x0 DUP3 ADD MSTORE POP JUMP JUMPDEST PUSH1 0x0 PUSH2 0x13A1 PUSH1 0x16 DUP4 PUSH2 0x1104 JUMP JUMPDEST SWAP2 POP PUSH2 0x13AC DUP3 PUSH2 0x136B JUMP JUMPDEST PUSH1 0x20 DUP3 ADD SWAP1 POP SWAP2 SWAP1 POP JUMP JUMPDEST PUSH1 0x0 PUSH1 0x20 DUP3 ADD SWAP1 POP DUP2 DUP2 SUB PUSH1 0x0 DUP4 ADD MSTORE PUSH2 0x13D0 DUP2 PUSH2 0x1394 JUMP JUMPDEST SWAP1 POP SWAP2 SWAP1 POP JUMP JUMPDEST PUSH1 0x0 PUSH2 0x13E2 DUP3 PUSH2 0xD7E JUMP JUMPDEST SWAP2 POP PUSH2 0x13ED DUP4 PUSH2 0xD7E JUMP JUMPDEST SWAP3 POP DUP3 DUP3 SUB SWAP1 POP DUP2 DUP2 GT ISZERO PUSH2 0x1405 JUMPI PUSH2 0x1404 PUSH2 0x121C JUMP JUMPDEST JUMPDEST SWAP3 SWAP2 POP POP JUMP INVALID LOG2 PUSH5 0x6970667358 0x22 SLT KECCAK256 SGT PREVRANDAO MSIZE 0xFC SHR EQ SWAP5 0xB4 LOG3 RETURNDATACOPY 0xB3 NOT 0x5F NUMBER 0xC5 SWAP13 SWAP4 COINBASE 0xBF EXTCODESIZE 0xD3 INVALID MSTORE8 0xD5 0xBD PUSH6 0xCA1C15BC4FF9 PUSH5 0x736F6C6343 STOP ADDMOD SLT STOP CALLER "},"gasEstimates":{"creation":{"codeDepositCost":"1037000","executionCost":"infinite","totalCost":"infinite"},"external":{"attack(uint256,uint256)":"infinite","cards(uint256)":"infinite","enter(address)":"57946","gameOver()":"2566","gameStatus()":"2633","getLiveCardsInfo(bool)":"infinite","isGameOver()":"2553","user1Address()":"2582","user1Cards(uint256)":"infinite","user1IsEntered()":"2588","user2Address()":"2559","user2Cards(uint256)":"infinite","user2IsEntered()":"2609","whoseTurn()":"2544"},"internal":{"getOpponent(address)":"infinite"}},"methodIdentifiers":{"attack(uint256,uint256)":"e1fa7638","cards(uint256)":"8dc10768","enter(address)":"d014c01f","gameOver()":"bdb337d1","gameStatus()":"722fed7e","getLiveCardsInfo(bool)":"dbda3621","isGameOver()":"0e04a7d8","user1Address()":"2f0d3356","user1Cards(uint256)":"21d7f050","user1IsEntered()":"c0a487b8","user2Address()":"8bc86154","user2Cards(uint256)":"9394e718","user2IsEntered()":"efb4d32f","whoseTurn()":"ab57b8ef"}},"storageLayout":{"storage":[{"astId":21,"contract":"contracts/GameContract.sol:CardGame","label":"cards","offset":0,"slot":"0","type":"t_mapping(t_uint256,t_struct(Card)12_storage)"},{"astId":80,"contract":"contracts/GameContract.sol:CardGame","label":"user1Address","offset":0,"slot":"1","type":"t_address"},{"astId":82,"contract":"contracts/GameContract.sol:CardGame","label":"user2Address","offset":0,"slot":"2","type":"t_address"},{"astId":84,"contract":"contracts/GameContract.sol:CardGame","label":"user1IsEntered","offset":20,"slot":"2","type":"t_bool"},{"astId":86,"contract":"contracts/GameContract.sol:CardGame","label":"user2IsEntered","offset":21,"slot":"2","type":"t_bool"},{"astId":88,"contract":"contracts/GameContract.sol:CardGame","label":"whoseTurn","offset":22,"slot":"2","type":"t_bool"},{"astId":90,"contract":"contracts/GameContract.sol:CardGame","label":"gameOver","offset":23,"slot":"2","type":"t_bool"},{"astId":95,"contract":"contracts/GameContract.sol:CardGame","label":"gameStatus","offset":24,"slot":"2","type":"t_enum(GameStatus)16"},{"astId":98,"contract":"contracts/GameContract.sol:CardGame","label":"user1Cards","offset":0,"slot":"3","type":"t_array(t_uint256)dyn_storage"},{"astId":101,"contract":"contracts/GameContract.sol:CardGame","label":"user2Cards","offset":0,"slot":"4","type":"t_array(t_uint256)dyn_storage"},{"astId":104,"contract":"contracts/GameContract.sol:CardGame","label":"user1DeadCardCount","offset":0,"slot":"5","type":"t_uint256"},{"astId":107,"contract":"contracts/GameContract.sol:CardGame","label":"user2DeadCardCount","offset":0,"slot":"6","type":"t_uint256"},{"astId":109,"contract":"contracts/GameContract.sol:CardGame","label":"winner","offset":0,"slot":"7","type":"t_address"}],"types":{"t_address":{"encoding":"inplace","label":"address","numberOfBytes":"20"},"t_array(t_uint256)dyn_storage":{"base":"t_uint256","encoding":"dynamic_array","label":"uint256[]","numberOfBytes":"32"},"t_bool":{"encoding":"inplace","label":"bool","numberOfBytes":"1"},"t_enum(GameStatus)16":{"encoding":"inplace","label":"enum CardGame.GameStatus","numberOfBytes":"1"},"t_mapping(t_uint256,t_struct(Card)12_storage)":{"encoding":"mapping","key":"t_uint256","label":"mapping(uint256 => struct CardGame.Card)","numberOfBytes":"32","value":"t_struct(Card)12_storage"},"t_struct(Card)12_storage":{"encoding":"inplace","label":"struct CardGame.Card","members":[{"astId":3,"contract":"contracts/GameContract.sol:CardGame","label":"id","offset":0,"slot":"0","type":"t_uint256"},{"astId":5,"contract":"contracts/GameContract.sol:CardGame","label":"power","offset":0,"slot":"1","type":"t_uint256"},{"astId":7,"contract":"contracts/GameContract.sol:CardGame","label":"health","offset":0,"slot":"2","type":"t_uint256"},{"astId":9,"contract":"contracts/GameContract.sol:CardGame","label":"isAlive","offset":0,"slot":"3","type":"t_bool"},{"astId":11,"contract":"contracts/GameContract.sol:CardGame","label":"isTaken","offset":1,"slot":"3","type":"t_bool"}],"numberOfBytes":"128"},"t_uint256":{"encoding":"inplace","label":"uint256","numberOfBytes":"32"}}},"userdoc":{"kind":"user","methods":{},"version":1}}}}