{
  "_format": "hh-sol-artifact-1",
  "contractName": "GameFactory",
  "sourceName": "contracts/GameContractFactory.sol",
  "abi": [
    {
      "anonymous": false,
      "inputs": [
        {
          "indexed": true,
          "internalType": "address",
          "name": "gameAddress",
          "type": "address"
        },
        {
          "indexed": true,
          "internalType": "uint256",
          "name": "gameId",
          "type": "uint256"
        }
      ],
      "name": "GameCreated",
      "type": "event"
    },
    {
      "inputs": [],
      "name": "createNewGame",
      "outputs": [
        {
          "internalType": "address",
          "name": "",
          "type": "address"
        }
      ],
      "stateMutability": "nonpayable",
      "type": "function"
    },
    {
      "inputs": [
        {
          "internalType": "uint256",
          "name": "",
          "type": "uint256"
        }
      ],
      "name": "games",
      "outputs": [
        {
          "internalType": "contract CardGame",
          "name": "",
          "type": "address"
        }
      ],
      "stateMutability": "view",
      "type": "function"
    },
    {
      "inputs": [
        {
          "internalType": "uint256",
          "name": "index",
          "type": "uint256"
        }
      ],
      "name": "getGameAddress",
      "outputs": [
        {
          "internalType": "address",
          "name": "",
          "type": "address"
        }
      ],
      "stateMutability": "view",
      "type": "function"
    },
    {
      "inputs": [],
      "name": "getLastGameAddress",
      "outputs": [
        {
          "internalType": "address",
          "name": "",
          "type": "address"
        }
      ],
      "stateMutability": "view",
      "type": "function"
    },
    {
      "inputs": [],
      "name": "getNumberOfGames",
      "outputs": [
        {
          "internalType": "uint256",
          "name": "",
          "type": "uint256"
        }
      ],
      "stateMutability": "view",
      "type": "function"
    }
  ],
  "bytecode": "0x608060405234801561001057600080fd5b50611b2f806100206000396000f3fe60806040523480156200001157600080fd5b50600436106200005e5760003560e01c8063117a5b901462000063578063624afb461462000099578063dcaa794814620000bb578063dd2f4ebd14620000f1578063eb87eb5e1462000113575b600080fd5b6200008160048036038101906200007b9190620003fb565b62000135565b604051620000909190620004b8565b60405180910390f35b620000a362000175565b604051620000b29190620004fa565b60405180910390f35b620000d96004803603810190620000d39190620003fb565b6200021b565b604051620000e89190620004fa565b60405180910390f35b620000fb620002af565b6040516200010a919062000528565b60405180910390f35b6200011d620002bb565b6040516200012c9190620004fa565b60405180910390f35b600081815481106200014657600080fd5b906000526020600020016000915054906101000a900473ffffffffffffffffffffffffffffffffffffffff1681565b60008060008054905011620001c1576040517f08c379a0000000000000000000000000000000000000000000000000000000008152600401620001b890620005a6565b60405180910390fd5b60006001600080549050620001d79190620005f7565b81548110620001eb57620001ea62000632565b5b9060005260206000200160009054906101000a900473ffffffffffffffffffffffffffffffffffffffff16905090565b60008080549050821062000266576040517f08c379a00000000000000000000000000000000000000000000000000000000081526004016200025d90620006b1565b60405180910390fd5b600082815481106200027d576200027c62000632565b5b9060005260206000200160009054906101000a900473ffffffffffffffffffffffffffffffffffffffff169050919050565b60008080549050905090565b600080604051620002cc90620003ad565b604051809103906000f080158015620002e9573d6000803e3d6000fd5b5090506000819080600181540180825580915050600190039060005260206000200160009091909190916101000a81548173ffffffffffffffffffffffffffffffffffffffff021916908373ffffffffffffffffffffffffffffffffffffffff1602179055506001600080549050620003639190620005f7565b8173ffffffffffffffffffffffffffffffffffffffff167f306841c3fce8498c2d9b7194b8da4c04d03847394e237b625ce6d029b107f07760405160405180910390a38091505090565b61142680620006d483390190565b600080fd5b6000819050919050565b620003d581620003c0565b8114620003e157600080fd5b50565b600081359050620003f581620003ca565b92915050565b600060208284031215620004145762000413620003bb565b5b60006200042484828501620003e4565b91505092915050565b600073ffffffffffffffffffffffffffffffffffffffff82169050919050565b6000819050919050565b600062000478620004726200046c846200042d565b6200044d565b6200042d565b9050919050565b60006200048c8262000457565b9050919050565b6000620004a0826200047f565b9050919050565b620004b28162000493565b82525050565b6000602082019050620004cf6000830184620004a7565b92915050565b6000620004e2826200042d565b9050919050565b620004f481620004d5565b82525050565b6000602082019050620005116000830184620004e9565b92915050565b6200052281620003c0565b82525050565b60006020820190506200053f600083018462000517565b92915050565b600082825260208201905092915050565b7f4e6f2067616d6573000000000000000000000000000000000000000000000000600082015250565b60006200058e60088362000545565b91506200059b8262000556565b602082019050919050565b60006020820190508181036000830152620005c1816200057f565b9050919050565b7f4e487b7100000000000000000000000000000000000000000000000000000000600052601160045260246000fd5b60006200060482620003c0565b91506200061183620003c0565b92508282039050818111156200062c576200062b620005c8565b5b92915050565b7f4e487b7100000000000000000000000000000000000000000000000000000000600052603260045260246000fd5b7f496e76616c696420696e64657800000000000000000000000000000000000000600082015250565b600062000699600d8362000545565b9150620006a68262000661565b602082019050919050565b60006020820190508181036000830152620006cc816200068a565b905091905056fe60806040526000600260186101000a81548160ff021916908360028111156200002d576200002c620001a0565b5b0217905550600060055560006006553480156200004957600080fd5b5060005b600a81101562000199576040518060a00160405280828152602001600a4262000077919062000208565b8152602001600a83426200008c91906200026f565b62000098919062000208565b81526020016001151581526020016001151581525060008083815260200190815260200160002060008201518160000155602082015181600101556040820151816002015560608201518160030160006101000a81548160ff02191690831515021790555060808201518160030160016101000a81548160ff02191690831515021790555090505060058110156200015957600381908060018154018082558091505060019003906000526020600020016000909190919091505562000183565b60048190806001815401808255809150506001900390600052602060002001600090919091909150555b80806200019090620002ba565b9150506200004d565b5062000307565b7f4e487b7100000000000000000000000000000000000000000000000000000000600052602160045260246000fd5b6000819050919050565b7f4e487b7100000000000000000000000000000000000000000000000000000000600052601260045260246000fd5b60006200021582620001cf565b91506200022283620001cf565b925082620002355762000234620001d9565b5b828206905092915050565b7f4e487b7100000000000000000000000000000000000000000000000000000000600052601160045260246000fd5b60006200027c82620001cf565b91506200028983620001cf565b92508282026200029981620001cf565b91508282048414831517620002b357620002b262000240565b5b5092915050565b6000620002c782620001cf565b91507fffffffffffffffffffffffffffffffffffffffffffffffffffffffffffffffff8203620002fc57620002fb62000240565b5b600182019050919050565b61110f80620003176000396000f3fe608060405234801561001057600080fd5b50600436106100cf5760003560e01c80639394e7181161008c578063c0a487b811610066578063c0a487b81461021c578063d014c01f1461023a578063e1fa763814610256578063efb4d32f14610272576100cf565b80639394e718146101b0578063ab57b8ef146101e0578063bdb337d1146101fe576100cf565b80630e04a7d8146100d457806321d7f050146100f25780632f0d335614610122578063722fed7e146101405780638bc861541461015e5780638dc107681461017c575b600080fd5b6100dc610290565b6040516100e99190610b7a565b60405180910390f35b61010c60048036038101906101079190610bd0565b6102a7565b6040516101199190610c0c565b60405180910390f35b61012a6102cb565b6040516101379190610c68565b60405180910390f35b6101486102f1565b6040516101559190610cfa565b60405180910390f35b610166610304565b6040516101739190610c68565b60405180910390f35b61019660048036038101906101919190610bd0565b61032a565b6040516101a7959493929190610d15565b60405180910390f35b6101ca60048036038101906101c59190610bd0565b61037a565b6040516101d79190610c0c565b60405180910390f35b6101e861039e565b6040516101f59190610b7a565b60405180910390f35b6102066103b1565b6040516102139190610b7a565b60405180910390f35b6102246103c4565b6040516102319190610b7a565b60405180910390f35b610254600480360381019061024f9190610d94565b6103d7565b005b610270600480360381019061026b9190610dc1565b6105e3565b005b61027a610b4c565b6040516102879190610b7a565b60405180910390f35b6000600260179054906101000a900460ff16905090565b600381815481106102b757600080fd5b906000526020600020016000915090505481565b600160009054906101000a900473ffffffffffffffffffffffffffffffffffffffff1681565b600260189054906101000a900460ff1681565b600260009054906101000a900473ffffffffffffffffffffffffffffffffffffffff1681565b60006020528060005260406000206000915090508060000154908060010154908060020154908060030160009054906101000a900460ff16908060030160019054906101000a900460ff16905085565b6004818154811061038a57600080fd5b906000526020600020016000915090505481565b600260169054906101000a900460ff1681565b600260179054906101000a900460ff1681565b600260149054906101000a900460ff1681565b600260179054906101000a900460ff1615610427576040517f08c379a000000000000000000000000000000000000000000000000000000000815260040161041e90610e5e565b60405180910390fd5b6000600281111561043b5761043a610c83565b5b600260189054906101000a900460ff16600281111561045d5761045c610c83565b5b1461049d576040517f08c379a000000000000000000000000000000000000000000000000000000000815260040161049490610eca565b60405180910390fd5b600260149054906101000a900460ff166105125780600160006101000a81548173ffffffffffffffffffffffffffffffffffffffff021916908373ffffffffffffffffffffffffffffffffffffffff1602179055506001600260146101000a81548160ff0219169083151502179055506105e0565b600260159054906101000a900460ff166105875780600260006101000a81548173ffffffffffffffffffffffffffffffffffffffff021916908373ffffffffffffffffffffffffffffffffffffffff1602179055506001600260156101000a81548160ff0219169083151502179055506105df565b6001600260186101000a81548160ff021916908360028111156105ad576105ac610c83565b5b02179055507f762f260439bb4be3ef6e4dc2786e2e7bd187d3d80b79057d7a424fe98563e33560405160405180910390a15b5b50565b600060028111156105f7576105f6610c83565b5b600260189054906101000a900460ff16600281111561061957610618610c83565b5b03610659576040517f08c379a000000000000000000000000000000000000000000000000000000000815260040161065090610f36565b60405180910390fd5b600260179054906101000a900460ff16156106a9576040517f08c379a00000000000000000000000000000000000000000000000000000000081526004016106a090610e5e565b60405180910390fd5b600160009054906101000a900473ffffffffffffffffffffffffffffffffffffffff1673ffffffffffffffffffffffffffffffffffffffff163373ffffffffffffffffffffffffffffffffffffffff161480156107135750600260169054906101000a900460ff16155b806107835750600260009054906101000a900473ffffffffffffffffffffffffffffffffffffffff1673ffffffffffffffffffffffffffffffffffffffff163373ffffffffffffffffffffffffffffffffffffffff161480156107825750600260169054906101000a900460ff165b5b6107c2576040517f08c379a00000000000000000000000000000000000000000000000000000000081526004016107b990610fa2565b60405180910390fd5b60008082815260200190815260200160002060030160009054906101000a900460ff16610824576040517f08c379a000000000000000000000000000000000000000000000000000000000815260040161081b9061100e565b60405180910390fd5b60008083815260200190815260200160002060030160009054906101000a900460ff16610886576040517f08c379a000000000000000000000000000000000000000000000000000000000815260040161087d9061100e565b60405180910390fd5b600080838152602001908152602001600020600101546000808381526020019081526020016000206002015411610aa157600080600083815260200190815260200160002060030160006101000a81548160ff0219169083151502179055503373ffffffffffffffffffffffffffffffffffffffff16600160009054906101000a900473ffffffffffffffffffffffffffffffffffffffff1673ffffffffffffffffffffffffffffffffffffffff1603610953576005600081548092919061094d9061105d565b91905055505b3373ffffffffffffffffffffffffffffffffffffffff16600260009054906101000a900473ffffffffffffffffffffffffffffffffffffffff1673ffffffffffffffffffffffffffffffffffffffff16036109c157600660008154809291906109bb9061105d565b91905055505b6005805403610a2e57600260009054906101000a900473ffffffffffffffffffffffffffffffffffffffff16600760006101000a81548173ffffffffffffffffffffffffffffffffffffffff021916908373ffffffffffffffffffffffffffffffffffffffff1602179055505b600560065403610a9c57600160009054906101000a900473ffffffffffffffffffffffffffffffffffffffff16600760006101000a81548173ffffffffffffffffffffffffffffffffffffffff021916908373ffffffffffffffffffffffffffffffffffffffff1602179055505b610ae3565b600080838152602001908152602001600020600101546000808381526020019081526020016000206002016000828254610adb91906110a5565b925050819055505b600760009054906101000a900473ffffffffffffffffffffffffffffffffffffffff1673ffffffffffffffffffffffffffffffffffffffff167fbbca850ef098f4a3ce49a0770ca2e6e176215b97d03b6ea812dfd3586c1a6dad60405160405180910390a25050565b600260159054906101000a900460ff1681565b60008115159050919050565b610b7481610b5f565b82525050565b6000602082019050610b8f6000830184610b6b565b92915050565b600080fd5b6000819050919050565b610bad81610b9a565b8114610bb857600080fd5b50565b600081359050610bca81610ba4565b92915050565b600060208284031215610be657610be5610b95565b5b6000610bf484828501610bbb565b91505092915050565b610c0681610b9a565b82525050565b6000602082019050610c216000830184610bfd565b92915050565b600073ffffffffffffffffffffffffffffffffffffffff82169050919050565b6000610c5282610c27565b9050919050565b610c6281610c47565b82525050565b6000602082019050610c7d6000830184610c59565b92915050565b7f4e487b7100000000000000000000000000000000000000000000000000000000600052602160045260246000fd5b60038110610cc357610cc2610c83565b5b50565b6000819050610cd482610cb2565b919050565b6000610ce482610cc6565b9050919050565b610cf481610cd9565b82525050565b6000602082019050610d0f6000830184610ceb565b92915050565b600060a082019050610d2a6000830188610bfd565b610d376020830187610bfd565b610d446040830186610bfd565b610d516060830185610b6b565b610d5e6080830184610b6b565b9695505050505050565b610d7181610c47565b8114610d7c57600080fd5b50565b600081359050610d8e81610d68565b92915050565b600060208284031215610daa57610da9610b95565b5b6000610db884828501610d7f565b91505092915050565b60008060408385031215610dd857610dd7610b95565b5b6000610de685828601610bbb565b9250506020610df785828601610bbb565b9150509250929050565b600082825260208201905092915050565b7f67616d65206f7665720000000000000000000000000000000000000000000000600082015250565b6000610e48600983610e01565b9150610e5382610e12565b602082019050919050565b60006020820190508181036000830152610e7781610e3b565b9050919050565b7f47616d6520616c72656164792073746172746564210000000000000000000000600082015250565b6000610eb4601583610e01565b9150610ebf82610e7e565b602082019050919050565b60006020820190508181036000830152610ee381610ea7565b9050919050565b7f47616d6520686173206e6f742073746172746564207965742100000000000000600082015250565b6000610f20601983610e01565b9150610f2b82610eea565b602082019050919050565b60006020820190508181036000830152610f4f81610f13565b9050919050565b7f4e6f7420796f7572207475726e00000000000000000000000000000000000000600082015250565b6000610f8c600d83610e01565b9150610f9782610f56565b602082019050919050565b60006020820190508181036000830152610fbb81610f7f565b9050919050565b7f546869732063617264206973206e6f7420616c69766500000000000000000000600082015250565b6000610ff8601683610e01565b915061100382610fc2565b602082019050919050565b6000602082019050818103600083015261102781610feb565b9050919050565b7f4e487b7100000000000000000000000000000000000000000000000000000000600052601160045260246000fd5b600061106882610b9a565b91507fffffffffffffffffffffffffffffffffffffffffffffffffffffffffffffffff820361109a5761109961102e565b5b600182019050919050565b60006110b082610b9a565b91506110bb83610b9a565b92508282039050818111156110d3576110d261102e565b5b9291505056fea264697066735822122020d5cf04c6abf329cf8832fe4ee9e8be141cd9b32c705edaad3d94b7e780b45964736f6c63430008120033a264697066735822122061fa44b398a58cc76ffa5abeee9e6701e14a4db7b700b17b19e579a08d69df4f64736f6c63430008120033",
  "linkReferences": {},
  "deployedLinkReferences": {}
}