{
  "_format": "hh-sol-artifact-1",
  "contractName": "GameFactory",
  "sourceName": "contracts/GameContractFactory.sol",
  "abi": [
    {
      "anonymous": false,
      "inputs": [
        {
          "indexed": true,
          "internalType": "address",
          "name": "gameAddress",
          "type": "address"
        },
        {
          "indexed": true,
          "internalType": "uint256",
          "name": "gameId",
          "type": "uint256"
        }
      ],
      "name": "GameCreated",
      "type": "event"
    },
    {
      "inputs": [],
      "name": "createNewGame",
      "outputs": [
        {
          "internalType": "address",
          "name": "",
          "type": "address"
        }
      ],
      "stateMutability": "nonpayable",
      "type": "function"
    },
    {
      "inputs": [
        {
          "internalType": "uint256",
          "name": "",
          "type": "uint256"
        }
      ],
      "name": "games",
      "outputs": [
        {
          "internalType": "contract CardGame",
          "name": "",
          "type": "address"
        }
      ],
      "stateMutability": "view",
      "type": "function"
    },
    {
      "inputs": [
        {
          "internalType": "uint256",
          "name": "index",
          "type": "uint256"
        }
      ],
      "name": "getGameAddress",
      "outputs": [
        {
          "internalType": "address",
          "name": "",
          "type": "address"
        }
      ],
      "stateMutability": "view",
      "type": "function"
    },
    {
      "inputs": [],
      "name": "getLastGameAddress",
      "outputs": [
        {
          "internalType": "address",
          "name": "",
          "type": "address"
        }
      ],
      "stateMutability": "view",
      "type": "function"
    },
    {
      "inputs": [],
      "name": "getNumberOfGames",
      "outputs": [
        {
          "internalType": "uint256",
          "name": "",
          "type": "uint256"
        }
      ],
      "stateMutability": "view",
      "type": "function"
    }
  ],
  "bytecode": "0x608060405234801561001057600080fd5b50611ec2806100206000396000f3fe608060405234801561001057600080fd5b50600436106100575760003560e01c8063117a5b901461005c578063624afb461461008c578063dcaa7948146100aa578063dd2f4ebd146100da578063eb87eb5e146100f8575b600080fd5b610076600480360381019061007191906103c3565b610116565b604051610083919061046f565b60405180910390f35b610094610155565b6040516100a191906104ab565b60405180910390f35b6100c460048036038101906100bf91906103c3565b6101f3565b6040516100d191906104ab565b60405180910390f35b6100e2610281565b6040516100ef91906104d5565b60405180910390f35b61010061028d565b60405161010d91906104ab565b60405180910390f35b6000818154811061012657600080fd5b906000526020600020016000915054906101000a900473ffffffffffffffffffffffffffffffffffffffff1681565b6000806000805490501161019e576040517f08c379a00000000000000000000000000000000000000000000000000000000081526004016101959061054d565b60405180910390fd5b600060016000805490506101b2919061059c565b815481106101c3576101c26105d0565b5b9060005260206000200160009054906101000a900473ffffffffffffffffffffffffffffffffffffffff16905090565b60008080549050821061023b576040517f08c379a00000000000000000000000000000000000000000000000000000000081526004016102329061064b565b60405180910390fd5b6000828154811061024f5761024e6105d0565b5b9060005260206000200160009054906101000a900473ffffffffffffffffffffffffffffffffffffffff169050919050565b60008080549050905090565b60008060405161029c9061037a565b604051809103906000f0801580156102b8573d6000803e3d6000fd5b5090506000819080600181540180825580915050600190039060005260206000200160009091909190916101000a81548173ffffffffffffffffffffffffffffffffffffffff021916908373ffffffffffffffffffffffffffffffffffffffff1602179055506001600080549050610330919061059c565b8173ffffffffffffffffffffffffffffffffffffffff167f306841c3fce8498c2d9b7194b8da4c04d03847394e237b625ce6d029b107f07760405160405180910390a38091505090565b611821806200066c83390190565b600080fd5b6000819050919050565b6103a08161038d565b81146103ab57600080fd5b50565b6000813590506103bd81610397565b92915050565b6000602082840312156103d9576103d8610388565b5b60006103e7848285016103ae565b91505092915050565b600073ffffffffffffffffffffffffffffffffffffffff82169050919050565b6000819050919050565b600061043561043061042b846103f0565b610410565b6103f0565b9050919050565b60006104478261041a565b9050919050565b60006104598261043c565b9050919050565b6104698161044e565b82525050565b60006020820190506104846000830184610460565b92915050565b6000610495826103f0565b9050919050565b6104a58161048a565b82525050565b60006020820190506104c0600083018461049c565b92915050565b6104cf8161038d565b82525050565b60006020820190506104ea60008301846104c6565b92915050565b600082825260208201905092915050565b7f4e6f2067616d6573000000000000000000000000000000000000000000000000600082015250565b60006105376008836104f0565b915061054282610501565b602082019050919050565b600060208201905081810360008301526105668161052a565b9050919050565b7f4e487b7100000000000000000000000000000000000000000000000000000000600052601160045260246000fd5b60006105a78261038d565b91506105b28361038d565b92508282039050818111156105ca576105c961056d565b5b92915050565b7f4e487b7100000000000000000000000000000000000000000000000000000000600052603260045260246000fd5b7f496e76616c696420696e64657800000000000000000000000000000000000000600082015250565b6000610635600d836104f0565b9150610640826105ff565b602082019050919050565b6000602082019050818103600083015261066481610628565b905091905056fe6080604052600060055560006006553480156200001b57600080fd5b506000600190505b600b8110156200010c576040518060a00160405280828152602001600a426200004d91906200014c565b8152602001600a8342620000629190620001b3565b6200006e91906200014c565b81526020016001151581526020016000151581525060008083815260200190815260200160002060008201518160000155602082015181600101556040820151816002015560608201518160030160006101000a81548160ff02191690831515021790555060808201518160030160016101000a81548160ff02191690831515021790555090505080806200010390620001fe565b91505062000023565b506200024b565b6000819050919050565b7f4e487b7100000000000000000000000000000000000000000000000000000000600052601260045260246000fd5b6000620001598262000113565b9150620001668362000113565b9250826200017957620001786200011d565b5b828206905092915050565b7f4e487b7100000000000000000000000000000000000000000000000000000000600052601160045260246000fd5b6000620001c08262000113565b9150620001cd8362000113565b9250828202620001dd8162000113565b91508282048414831517620001f757620001f662000184565b5b5092915050565b60006200020b8262000113565b91507fffffffffffffffffffffffffffffffffffffffffffffffffffffffffffffffff820362000240576200023f62000184565b5b600182019050919050565b6115c6806200025b6000396000f3fe608060405234801561001057600080fd5b50600436106100f55760003560e01c8063ac49a86e11610097578063d014c01f11610066578063d014c01f1461027e578063db65146a1461029a578063e1fa7638146102b6578063efb4d32f146102d2576100f5565b8063ac49a86e14610206578063bdb337d114610224578063c0a487b814610242578063c315432a14610260576100f5565b80635b8bdf47116100d35780635b8bdf47146101665780638bc86154146101845780638dc10768146101a25780639394e718146101d6576100f5565b80630e04a7d8146100fa57806321d7f050146101185780632f0d335614610148575b600080fd5b6101026102f0565b60405161010f9190610f13565b60405180910390f35b610132600480360381019061012d9190610f69565b610307565b60405161013f9190610fa5565b60405180910390f35b61015061032b565b60405161015d9190611001565b60405180910390f35b61016e610351565b60405161017b9190610f13565b60405180910390f35b61018c610364565b6040516101999190611001565b60405180910390f35b6101bc60048036038101906101b79190610f69565b61038a565b6040516101cd95949392919061101c565b60405180910390f35b6101f060048036038101906101eb9190610f69565b6103da565b6040516101fd9190610fa5565b60405180910390f35b61020e6103fe565b60405161021b9190610f13565b60405180910390f35b61022c610411565b6040516102399190610f13565b60405180910390f35b61024a610424565b6040516102579190610f13565b60405180910390f35b610268610437565b6040516102759190610f13565b60405180910390f35b6102986004803603810190610293919061109b565b61044a565b005b6102b460048036038101906102af9190610f69565b61065f565b005b6102d060048036038101906102cb91906110c8565b610abc565b005b6102da610ee5565b6040516102e79190610f13565b60405180910390f35b6000600260199054906101000a900460ff16905090565b6003818154811061031757600080fd5b906000526020600020016000915090505481565b600160009054906101000a900473ffffffffffffffffffffffffffffffffffffffff1681565b600260169054906101000a900460ff1681565b600260009054906101000a900473ffffffffffffffffffffffffffffffffffffffff1681565b60006020528060005260406000206000915090508060000154908060010154908060020154908060030160009054906101000a900460ff16908060030160019054906101000a900460ff16905085565b600481815481106103ea57600080fd5b906000526020600020016000915090505481565b600260179054906101000a900460ff1681565b600260199054906101000a900460ff1681565b600260149054906101000a900460ff1681565b600260189054906101000a900460ff1681565b600260199054906101000a900460ff161561049a576040517f08c379a000000000000000000000000000000000000000000000000000000000815260040161049190611165565b60405180910390fd5b600260189054906101000a900460ff16156104ea576040517f08c379a00000000000000000000000000000000000000000000000000000000081526004016104e1906111d1565b60405180910390fd5b600260149054906101000a900460ff166105765780600160006101000a81548173ffffffffffffffffffffffffffffffffffffffff021916908373ffffffffffffffffffffffffffffffffffffffff1602179055506001600260146101000a81548160ff0219169083151502179055506001600260166101000a81548160ff0219169083151502179055505b600260159054906101000a900460ff166105e75780600260006101000a81548173ffffffffffffffffffffffffffffffffffffffff021916908373ffffffffffffffffffffffffffffffffffffffff1602179055506001600260156101000a81548160ff0219169083151502179055505b600260149054906101000a900460ff16801561060f5750600260159054906101000a900460ff165b1561065c576001600260186101000a81548160ff0219169083151502179055507f762f260439bb4be3ef6e4dc2786e2e7bd187d3d80b79057d7a424fe98563e33560405160405180910390a15b50565b600260189054906101000a900460ff166106ae576040517f08c379a00000000000000000000000000000000000000000000000000000000081526004016106a59061123d565b60405180910390fd5b600260199054906101000a900460ff16156106fe576040517f08c379a00000000000000000000000000000000000000000000000000000000081526004016106f590611165565b60405180910390fd5b60008082815260200190815260200160002060030160019054906101000a900460ff1615610761576040517f08c379a0000000000000000000000000000000000000000000000000000000008152600401610758906112a9565b60405180910390fd5b600160009054906101000a900473ffffffffffffffffffffffffffffffffffffffff1673ffffffffffffffffffffffffffffffffffffffff163373ffffffffffffffffffffffffffffffffffffffff16148061080a5750600260009054906101000a900473ffffffffffffffffffffffffffffffffffffffff1673ffffffffffffffffffffffffffffffffffffffff163373ffffffffffffffffffffffffffffffffffffffff16145b610849576040517f08c379a000000000000000000000000000000000000000000000000000000000815260040161084090611315565b60405180910390fd5b600160009054906101000a900473ffffffffffffffffffffffffffffffffffffffff1673ffffffffffffffffffffffffffffffffffffffff163373ffffffffffffffffffffffffffffffffffffffff160361095f57600260169054906101000a900460ff166108ed576040517f08c379a00000000000000000000000000000000000000000000000000000000081526004016108e490611381565b60405180910390fd5b600660038054905010610935576040517f08c379a000000000000000000000000000000000000000000000000000000000815260040161092c906113ed565b60405180910390fd5b60038190806001815401808255809150506001900390600052602060002001600090919091909150555b600260009054906101000a900473ffffffffffffffffffffffffffffffffffffffff1673ffffffffffffffffffffffffffffffffffffffff163373ffffffffffffffffffffffffffffffffffffffff1603610a7557600260179054906101000a900460ff16610a03576040517f08c379a00000000000000000000000000000000000000000000000000000000081526004016109fa90611381565b60405180910390fd5b600660048054905010610a4b576040517f08c379a0000000000000000000000000000000000000000000000000000000008152600401610a4290611459565b60405180910390fd5b60048190806001815401808255809150506001900390600052602060002001600090919091909150555b3373ffffffffffffffffffffffffffffffffffffffff16817f248287cefbc005baa4715ebf2d33f0bdd6ce703226f9a5e26c6beaab38b16a3e60405160405180910390a350565b600260189054906101000a900460ff16610b0b576040517f08c379a0000000000000000000000000000000000000000000000000000000008152600401610b029061123d565b60405180910390fd5b600260199054906101000a900460ff1615610b5b576040517f08c379a0000000000000000000000000000000000000000000000000000000008152600401610b5290611165565b60405180910390fd5b60008082815260200190815260200160002060030160009054906101000a900460ff16610bbd576040517f08c379a0000000000000000000000000000000000000000000000000000000008152600401610bb4906114c5565b60405180910390fd5b60008083815260200190815260200160002060030160009054906101000a900460ff16610c1f576040517f08c379a0000000000000000000000000000000000000000000000000000000008152600401610c16906114c5565b60405180910390fd5b600080838152602001908152602001600020600101546000808381526020019081526020016000206002015411610e3a57600080600083815260200190815260200160002060030160006101000a81548160ff0219169083151502179055503373ffffffffffffffffffffffffffffffffffffffff16600160009054906101000a900473ffffffffffffffffffffffffffffffffffffffff1673ffffffffffffffffffffffffffffffffffffffff1603610cec5760056000815480929190610ce690611514565b91905055505b3373ffffffffffffffffffffffffffffffffffffffff16600260009054906101000a900473ffffffffffffffffffffffffffffffffffffffff1673ffffffffffffffffffffffffffffffffffffffff1603610d5a5760066000815480929190610d5490611514565b91905055505b6005805403610dc757600260009054906101000a900473ffffffffffffffffffffffffffffffffffffffff16600760006101000a81548173ffffffffffffffffffffffffffffffffffffffff021916908373ffffffffffffffffffffffffffffffffffffffff1602179055505b600560065403610e3557600160009054906101000a900473ffffffffffffffffffffffffffffffffffffffff16600760006101000a81548173ffffffffffffffffffffffffffffffffffffffff021916908373ffffffffffffffffffffffffffffffffffffffff1602179055505b610e7c565b600080838152602001908152602001600020600101546000808381526020019081526020016000206002016000828254610e74919061155c565b925050819055505b600760009054906101000a900473ffffffffffffffffffffffffffffffffffffffff1673ffffffffffffffffffffffffffffffffffffffff167fbbca850ef098f4a3ce49a0770ca2e6e176215b97d03b6ea812dfd3586c1a6dad60405160405180910390a25050565b600260159054906101000a900460ff1681565b60008115159050919050565b610f0d81610ef8565b82525050565b6000602082019050610f286000830184610f04565b92915050565b600080fd5b6000819050919050565b610f4681610f33565b8114610f5157600080fd5b50565b600081359050610f6381610f3d565b92915050565b600060208284031215610f7f57610f7e610f2e565b5b6000610f8d84828501610f54565b91505092915050565b610f9f81610f33565b82525050565b6000602082019050610fba6000830184610f96565b92915050565b600073ffffffffffffffffffffffffffffffffffffffff82169050919050565b6000610feb82610fc0565b9050919050565b610ffb81610fe0565b82525050565b60006020820190506110166000830184610ff2565b92915050565b600060a0820190506110316000830188610f96565b61103e6020830187610f96565b61104b6040830186610f96565b6110586060830185610f04565b6110656080830184610f04565b9695505050505050565b61107881610fe0565b811461108357600080fd5b50565b6000813590506110958161106f565b92915050565b6000602082840312156110b1576110b0610f2e565b5b60006110bf84828501611086565b91505092915050565b600080604083850312156110df576110de610f2e565b5b60006110ed85828601610f54565b92505060206110fe85828601610f54565b9150509250929050565b600082825260208201905092915050565b7f67616d65206f7665720000000000000000000000000000000000000000000000600082015250565b600061114f600983611108565b915061115a82611119565b602082019050919050565b6000602082019050818103600083015261117e81611142565b9050919050565b7f47616d6520616c72656164792073746172746564210000000000000000000000600082015250565b60006111bb601583611108565b91506111c682611185565b602082019050919050565b600060208201905081810360008301526111ea816111ae565b9050919050565b7f47616d6520686173206e6f742073746172746564207965742100000000000000600082015250565b6000611227601983611108565b9150611232826111f1565b602082019050919050565b600060208201905081810360008301526112568161121a565b9050919050565b7f416c72656164792054616b656e00000000000000000000000000000000000000600082015250565b6000611293600d83611108565b915061129e8261125d565b602082019050919050565b600060208201905081810360008301526112c281611286565b9050919050565b7f596f7520617265206e6f74206120706c61796572000000000000000000000000600082015250565b60006112ff601483611108565b915061130a826112c9565b602082019050919050565b6000602082019050818103600083015261132e816112f2565b9050919050565b7f4e6f7420796f7572207475726e00000000000000000000000000000000000000600082015250565b600061136b600d83611108565b915061137682611335565b602082019050919050565b6000602082019050818103600083015261139a8161135e565b9050919050565b7f596f75206861766520656e6f7567682063617264730000000000000000000000600082015250565b60006113d7601583611108565b91506113e2826113a1565b602082019050919050565b60006020820190508181036000830152611406816113ca565b9050919050565b7f596f7520686176652020656e6f75676820636172647300000000000000000000600082015250565b6000611443601683611108565b915061144e8261140d565b602082019050919050565b6000602082019050818103600083015261147281611436565b9050919050565b7f546869732063617264206973206e6f7420616c69766500000000000000000000600082015250565b60006114af601683611108565b91506114ba82611479565b602082019050919050565b600060208201905081810360008301526114de816114a2565b9050919050565b7f4e487b7100000000000000000000000000000000000000000000000000000000600052601160045260246000fd5b600061151f82610f33565b91507fffffffffffffffffffffffffffffffffffffffffffffffffffffffffffffffff8203611551576115506114e5565b5b600182019050919050565b600061156782610f33565b915061157283610f33565b925082820390508181111561158a576115896114e5565b5b9291505056fea2646970667358221220eb88c59f7c5a49528bb658a7de68118b5ca83eb86a87793b884cadf30370960964736f6c63430008120033a2646970667358221220401e729b646eea08194f3309270c43fb8dcf36df3a7376dbef8cae618a8e022c64736f6c63430008120033",
  "linkReferences": {},
  "deployedLinkReferences": {}
}